{
  "_format": "hh-sol-artifact-1",
  "contractName": "ForestToken",
  "sourceName": "contracts/ForestToken.sol",
  "abi": [
    {
      "inputs": [],
      "stateMutability": "nonpayable",
      "type": "constructor"
    },
    {
      "anonymous": false,
      "inputs": [
        {
          "indexed": true,
          "internalType": "address",
          "name": "owner",
          "type": "address"
        },
        {
          "indexed": true,
          "internalType": "address",
          "name": "spender",
          "type": "address"
        },
        {
          "indexed": false,
          "internalType": "uint256",
          "name": "value",
          "type": "uint256"
        }
      ],
      "name": "Approval",
      "type": "event"
    },
    {
      "anonymous": false,
      "inputs": [
        {
          "indexed": true,
          "internalType": "address",
          "name": "previousOwner",
          "type": "address"
        },
        {
          "indexed": true,
          "internalType": "address",
          "name": "newOwner",
          "type": "address"
        }
      ],
      "name": "OwnershipTransferred",
      "type": "event"
    },
    {
      "anonymous": false,
      "inputs": [
        {
          "indexed": false,
          "internalType": "uint256",
          "name": "amount",
          "type": "uint256"
        }
      ],
      "name": "TokensMinted",
      "type": "event"
    },
    {
      "anonymous": false,
      "inputs": [
        {
          "indexed": true,
          "internalType": "address",
          "name": "from",
          "type": "address"
        },
        {
          "indexed": true,
          "internalType": "address",
          "name": "to",
          "type": "address"
        },
        {
          "indexed": false,
          "internalType": "uint256",
          "name": "value",
          "type": "uint256"
        }
      ],
      "name": "Transfer",
      "type": "event"
    },
    {
      "anonymous": false,
      "inputs": [
        {
          "indexed": true,
          "internalType": "address",
          "name": "from",
          "type": "address"
        },
        {
          "indexed": false,
          "internalType": "uint256",
          "name": "amount",
          "type": "uint256"
        }
      ],
      "name": "VirtualBurn",
      "type": "event"
    },
    {
      "anonymous": false,
      "inputs": [
        {
          "indexed": true,
          "internalType": "address",
          "name": "from",
          "type": "address"
        },
        {
          "indexed": true,
          "internalType": "address",
          "name": "to",
          "type": "address"
        },
        {
          "indexed": false,
          "internalType": "uint256",
          "name": "amount",
          "type": "uint256"
        }
      ],
      "name": "VirtualTransfer",
      "type": "event"
    },
    {
      "anonymous": false,
      "inputs": [
        {
          "indexed": true,
          "internalType": "address",
          "name": "from",
          "type": "address"
        },
        {
          "indexed": true,
          "internalType": "address",
          "name": "to",
          "type": "address"
        },
        {
          "indexed": false,
          "internalType": "uint256",
          "name": "amount",
          "type": "uint256"
        },
        {
          "indexed": false,
          "internalType": "uint256",
          "name": "fee",
          "type": "uint256"
        }
      ],
      "name": "Withdrawal",
      "type": "event"
    },
    {
      "inputs": [],
      "name": "FEE_PERCENTAGE",
      "outputs": [
        {
          "internalType": "uint256",
          "name": "",
          "type": "uint256"
        }
      ],
      "stateMutability": "view",
      "type": "function"
    },
    {
      "inputs": [],
      "name": "INITIAL_REWARD",
      "outputs": [
        {
          "internalType": "uint256",
          "name": "",
          "type": "uint256"
        }
      ],
      "stateMutability": "view",
      "type": "function"
    },
    {
      "inputs": [
        {
          "internalType": "address",
          "name": "contractAddress",
          "type": "address"
        }
      ],
      "name": "addAuthorizedContract",
      "outputs": [],
      "stateMutability": "nonpayable",
      "type": "function"
    },
    {
      "inputs": [
        {
          "internalType": "address",
          "name": "owner",
          "type": "address"
        },
        {
          "internalType": "address",
          "name": "spender",
          "type": "address"
        }
      ],
      "name": "allowance",
      "outputs": [
        {
          "internalType": "uint256",
          "name": "",
          "type": "uint256"
        }
      ],
      "stateMutability": "view",
      "type": "function"
    },
    {
      "inputs": [
        {
          "internalType": "address",
          "name": "spender",
          "type": "address"
        },
        {
          "internalType": "uint256",
          "name": "amount",
          "type": "uint256"
        }
      ],
      "name": "approve",
      "outputs": [
        {
          "internalType": "bool",
          "name": "",
          "type": "bool"
        }
      ],
      "stateMutability": "nonpayable",
      "type": "function"
    },
    {
      "inputs": [
        {
          "internalType": "address",
          "name": "",
          "type": "address"
        }
      ],
      "name": "authorizedContracts",
      "outputs": [
        {
          "internalType": "bool",
          "name": "",
          "type": "bool"
        }
      ],
      "stateMutability": "view",
      "type": "function"
    },
    {
      "inputs": [
        {
          "internalType": "address",
          "name": "account",
          "type": "address"
        }
      ],
      "name": "balanceOf",
      "outputs": [
        {
          "internalType": "uint256",
          "name": "",
          "type": "uint256"
        }
      ],
      "stateMutability": "view",
      "type": "function"
    },
    {
      "inputs": [
        {
          "internalType": "uint256",
          "name": "amount",
          "type": "uint256"
        }
      ],
      "name": "burn",
      "outputs": [],
      "stateMutability": "nonpayable",
      "type": "function"
    },
    {
      "inputs": [
        {
          "internalType": "uint256",
          "name": "amount",
          "type": "uint256"
        }
      ],
      "name": "burnFromContract",
      "outputs": [],
      "stateMutability": "nonpayable",
      "type": "function"
    },
    {
      "inputs": [
        {
          "internalType": "address",
          "name": "to",
          "type": "address"
        }
      ],
      "name": "claimInitialReward",
      "outputs": [],
      "stateMutability": "nonpayable",
      "type": "function"
    },
    {
      "inputs": [
        {
          "internalType": "address",
          "name": "to",
          "type": "address"
        },
        {
          "internalType": "uint256",
          "name": "amount",
          "type": "uint256"
        }
      ],
      "name": "claimStaking",
      "outputs": [],
      "stateMutability": "nonpayable",
      "type": "function"
    },
    {
      "inputs": [],
      "name": "decimals",
      "outputs": [
        {
          "internalType": "uint8",
          "name": "",
          "type": "uint8"
        }
      ],
      "stateMutability": "view",
      "type": "function"
    },
    {
      "inputs": [
        {
          "internalType": "address",
          "name": "spender",
          "type": "address"
        },
        {
          "internalType": "uint256",
          "name": "subtractedValue",
          "type": "uint256"
        }
      ],
      "name": "decreaseAllowance",
      "outputs": [
        {
          "internalType": "bool",
          "name": "",
          "type": "bool"
        }
      ],
      "stateMutability": "nonpayable",
      "type": "function"
    },
    {
      "inputs": [
        {
          "internalType": "uint256",
          "name": "amount",
          "type": "uint256"
        }
      ],
      "name": "deposit",
      "outputs": [],
      "stateMutability": "nonpayable",
      "type": "function"
    },
    {
      "inputs": [
        {
          "internalType": "address",
          "name": "",
          "type": "address"
        }
      ],
      "name": "hasClaimedReward",
      "outputs": [
        {
          "internalType": "bool",
          "name": "",
          "type": "bool"
        }
      ],
      "stateMutability": "view",
      "type": "function"
    },
    {
      "inputs": [
        {
          "internalType": "address",
          "name": "spender",
          "type": "address"
        },
        {
          "internalType": "uint256",
          "name": "addedValue",
          "type": "uint256"
        }
      ],
      "name": "increaseAllowance",
      "outputs": [
        {
          "internalType": "bool",
          "name": "",
          "type": "bool"
        }
      ],
      "stateMutability": "nonpayable",
      "type": "function"
    },
    {
      "inputs": [
        {
          "internalType": "uint256",
          "name": "amount",
          "type": "uint256"
        }
      ],
      "name": "mint",
      "outputs": [],
      "stateMutability": "nonpayable",
      "type": "function"
    },
    {
      "inputs": [],
      "name": "name",
      "outputs": [
        {
          "internalType": "string",
          "name": "",
          "type": "string"
        }
      ],
      "stateMutability": "view",
      "type": "function"
    },
    {
      "inputs": [],
      "name": "owner",
      "outputs": [
        {
          "internalType": "address",
          "name": "",
          "type": "address"
        }
      ],
      "stateMutability": "view",
      "type": "function"
    },
    {
      "inputs": [
        {
          "internalType": "address",
          "name": "from",
          "type": "address"
        },
        {
          "internalType": "uint256",
          "name": "amount",
          "type": "uint256"
        }
      ],
      "name": "reduceBalance",
      "outputs": [],
      "stateMutability": "nonpayable",
      "type": "function"
    },
    {
      "inputs": [
        {
          "internalType": "address",
          "name": "contractAddress",
          "type": "address"
        }
      ],
      "name": "removeAuthorizedContract",
      "outputs": [],
      "stateMutability": "nonpayable",
      "type": "function"
    },
    {
      "inputs": [],
      "name": "renounceOwnership",
      "outputs": [],
      "stateMutability": "nonpayable",
      "type": "function"
    },
    {
      "inputs": [],
      "name": "symbol",
      "outputs": [
        {
          "internalType": "string",
          "name": "",
          "type": "string"
        }
      ],
      "stateMutability": "view",
      "type": "function"
    },
    {
      "inputs": [],
      "name": "totalSupply",
      "outputs": [
        {
          "internalType": "uint256",
          "name": "",
          "type": "uint256"
        }
      ],
      "stateMutability": "view",
      "type": "function"
    },
    {
      "inputs": [
        {
          "internalType": "address",
          "name": "to",
          "type": "address"
        },
        {
          "internalType": "uint256",
          "name": "amount",
          "type": "uint256"
        }
      ],
      "name": "transfer",
      "outputs": [
        {
          "internalType": "bool",
          "name": "",
          "type": "bool"
        }
      ],
      "stateMutability": "nonpayable",
      "type": "function"
    },
    {
      "inputs": [
        {
          "internalType": "address",
          "name": "from",
          "type": "address"
        },
        {
          "internalType": "address",
          "name": "to",
          "type": "address"
        },
        {
          "internalType": "uint256",
          "name": "amount",
          "type": "uint256"
        }
      ],
      "name": "transferFrom",
      "outputs": [
        {
          "internalType": "bool",
          "name": "",
          "type": "bool"
        }
      ],
      "stateMutability": "nonpayable",
      "type": "function"
    },
    {
      "inputs": [
        {
          "internalType": "address",
          "name": "newOwner",
          "type": "address"
        }
      ],
      "name": "transferOwnership",
      "outputs": [],
      "stateMutability": "nonpayable",
      "type": "function"
    },
    {
      "inputs": [
        {
          "internalType": "address",
          "name": "",
          "type": "address"
        }
      ],
      "name": "virtualBalance",
      "outputs": [
        {
          "internalType": "uint256",
          "name": "",
          "type": "uint256"
        }
      ],
      "stateMutability": "view",
      "type": "function"
    },
    {
      "inputs": [
        {
          "internalType": "address",
          "name": "from",
          "type": "address"
        },
        {
          "internalType": "uint256",
          "name": "amount",
          "type": "uint256"
        }
      ],
      "name": "virtualBurn",
      "outputs": [],
      "stateMutability": "nonpayable",
      "type": "function"
    },
    {
      "inputs": [
        {
          "internalType": "address",
          "name": "from",
          "type": "address"
        },
        {
          "internalType": "address",
          "name": "to",
          "type": "address"
        },
        {
          "internalType": "uint256",
          "name": "amount",
          "type": "uint256"
        }
      ],
      "name": "virtualTransfer",
      "outputs": [],
      "stateMutability": "nonpayable",
      "type": "function"
    },
    {
      "inputs": [
        {
          "internalType": "address",
          "name": "to",
          "type": "address"
        },
        {
          "internalType": "uint256",
          "name": "amount",
          "type": "uint256"
        }
      ],
      "name": "withdraw",
      "outputs": [],
      "stateMutability": "nonpayable",
      "type": "function"
    }
  ],
  "bytecode": "0x608060405234801561001057600080fd5b506040518060400160405280600c81526020017f466f7265737420546f6b656e00000000000000000000000000000000000000008152506040518060400160405280600681526020017f464f524553540000000000000000000000000000000000000000000000000000815250816003908161008c91906106bb565b50806004908161009c91906106bb565b5050506100bb6100b061022860201b60201c565b61023060201b60201c565b6100f2336100cd6102f660201b60201c565b600a6100d991906108fc565b620f42406100e79190610947565b6102ff60201b60201c565b6101006102f660201b60201c565b600a61010c91906108fc565b620f424061011a9190610947565b600760003373ffffffffffffffffffffffffffffffffffffffff1673ffffffffffffffffffffffffffffffffffffffff16815260200190815260200160002060008282546101689190610989565b925050819055506101a6306101816102f660201b60201c565b600a61018d91906108fc565b620f424061019b9190610947565b6102ff60201b60201c565b6101b46102f660201b60201c565b600a6101c091906108fc565b620f42406101ce9190610947565b600760003073ffffffffffffffffffffffffffffffffffffffff1673ffffffffffffffffffffffffffffffffffffffff168152602001908152602001600020600082825461021c9190610989565b92505081905550610a64565b600033905090565b6000600560009054906101000a900473ffffffffffffffffffffffffffffffffffffffff16905081600560006101000a81548173ffffffffffffffffffffffffffffffffffffffff021916908373ffffffffffffffffffffffffffffffffffffffff1602179055508173ffffffffffffffffffffffffffffffffffffffff168173ffffffffffffffffffffffffffffffffffffffff167f8be0079c531659141344cd1fd0a4f28419497f9722a3daafe3b4186f6b6457e060405160405180910390a35050565b60006012905090565b600073ffffffffffffffffffffffffffffffffffffffff168273ffffffffffffffffffffffffffffffffffffffff160361036e576040517f08c379a000000000000000000000000000000000000000000000000000000000815260040161036590610a1a565b60405180910390fd5b6103806000838361046160201b60201c565b80600260008282546103929190610989565b92505081905550806000808473ffffffffffffffffffffffffffffffffffffffff1673ffffffffffffffffffffffffffffffffffffffff168152602001908152602001600020600082825401925050819055508173ffffffffffffffffffffffffffffffffffffffff16600073ffffffffffffffffffffffffffffffffffffffff167fddf252ad1be2c89b69c2b068fc378daa952ba7f163c4a11628f55a4df523b3ef836040516104439190610a49565b60405180910390a361045d6000838361046660201b60201c565b5050565b505050565b505050565b600081519050919050565b7f4e487b7100000000000000000000000000000000000000000000000000000000600052604160045260246000fd5b7f4e487b7100000000000000000000000000000000000000000000000000000000600052602260045260246000fd5b600060028204905060018216806104ec57607f821691505b6020821081036104ff576104fe6104a5565b5b50919050565b60008190508160005260206000209050919050565b60006020601f8301049050919050565b600082821b905092915050565b6000600883026105677fffffffffffffffffffffffffffffffffffffffffffffffffffffffffffffffff8261052a565b610571868361052a565b95508019841693508086168417925050509392505050565b6000819050919050565b6000819050919050565b60006105b86105b36105ae84610589565b610593565b610589565b9050919050565b6000819050919050565b6105d28361059d565b6105e66105de826105bf565b848454610537565b825550505050565b600090565b6105fb6105ee565b6106068184846105c9565b505050565b5b8181101561062a5761061f6000826105f3565b60018101905061060c565b5050565b601f82111561066f5761064081610505565b6106498461051a565b81016020851015610658578190505b61066c6106648561051a565b83018261060b565b50505b505050565b600082821c905092915050565b600061069260001984600802610674565b1980831691505092915050565b60006106ab8383610681565b9150826002028217905092915050565b6106c48261046b565b67ffffffffffffffff8111156106dd576106dc610476565b5b6106e782546104d4565b6106f282828561062e565b600060209050601f8311600181146107255760008415610713578287015190505b61071d858261069f565b865550610785565b601f19841661073386610505565b60005b8281101561075b57848901518255600182019150602085019450602081019050610736565b868310156107785784890151610774601f891682610681565b8355505b6001600288020188555050505b505050505050565b7f4e487b7100000000000000000000000000000000000000000000000000000000600052601160045260246000fd5b60008160011c9050919050565b6000808291508390505b6001851115610813578086048111156107ef576107ee61078d565b5b60018516156107fe5780820291505b808102905061080c856107bc565b94506107d3565b94509492505050565b60008261082c57600190506108e8565b8161083a57600090506108e8565b8160018114610850576002811461085a57610889565b60019150506108e8565b60ff84111561086c5761086b61078d565b5b8360020a9150848211156108835761088261078d565b5b506108e8565b5060208310610133831016604e8410600b84101617156108be5782820a9050838111156108b9576108b861078d565b5b6108e8565b6108cb84848460016107c9565b925090508184048111156108e2576108e161078d565b5b81810290505b9392505050565b600060ff82169050919050565b600061090782610589565b9150610912836108ef565b925061093f7fffffffffffffffffffffffffffffffffffffffffffffffffffffffffffffffff848461081c565b905092915050565b600061095282610589565b915061095d83610589565b925082820261096b81610589565b915082820484148315176109825761098161078d565b5b5092915050565b600061099482610589565b915061099f83610589565b92508282019050808211156109b7576109b661078d565b5b92915050565b600082825260208201905092915050565b7f45524332303a206d696e7420746f20746865207a65726f206164647265737300600082015250565b6000610a04601f836109bd565b9150610a0f826109ce565b602082019050919050565b60006020820190508181036000830152610a33816109f7565b9050919050565b610a4381610589565b82525050565b6000602082019050610a5e6000830184610a3a565b92915050565b612d5780610a736000396000f3fe608060405234801561001057600080fd5b50600436106101e45760003560e01c80638da5cb5b1161010f578063b6b55f25116100a2578063f2fde38b11610071578063f2fde38b1461058d578063f3fef3a3146105a9578063f5c46e41146105c5578063fc818684146105f5576101e4565b8063b6b55f25146104f5578063d5b9221b14610511578063dd62ed3e14610541578063e6b165ed14610571576101e4565b8063a074696a116100de578063a074696a14610449578063a457c2d714610479578063a9059cbb146104a9578063b4727906146104d9576101e4565b80638da5cb5b146103d557806395d89b41146103f357806398eaa4a714610411578063a0712d681461042d576101e4565b806336bcf7d61161018757806370a082311161015657806370a0823114610363578063715018a61461039357806372a2b90b1461039d57806389e5ae20146103b9576101e4565b806336bcf7d6146102dd57806339509351146102fb57806342966c681461032b57806345f3427214610347576101e4565b806318160ddd116101c357806318160ddd146102555780631aa158d91461027357806323b872dd1461028f578063313ce567146102bf576101e4565b80620b46f8146101e957806306fdde0314610207578063095ea7b314610225575b600080fd5b6101f1610611565b6040516101fe9190611e53565b60405180910390f35b61020f610616565b60405161021c9190611efe565b60405180910390f35b61023f600480360381019061023a9190611faf565b6106a8565b60405161024c919061200a565b60405180910390f35b61025d6106cb565b60405161026a9190611e53565b60405180910390f35b61028d60048036038101906102889190612025565b6106d5565b005b6102a960048036038101906102a49190612052565b610824565b6040516102b6919061200a565b60405180910390f35b6102c7610853565b6040516102d491906120c1565b60405180910390f35b6102e561085c565b6040516102f29190611e53565b60405180910390f35b61031560048036038101906103109190611faf565b610869565b604051610322919061200a565b60405180910390f35b610345600480360381019061034091906120dc565b6108a0565b005b610361600480360381019061035c9190611faf565b6108ad565b005b61037d60048036038101906103789190612025565b610a34565b60405161038a9190611e53565b60405180910390f35b61039b610a7c565b005b6103b760048036038101906103b29190611faf565b610a90565b005b6103d360048036038101906103ce9190612052565b610b35565b005b6103dd610d96565b6040516103ea9190612118565b60405180910390f35b6103fb610dc0565b6040516104089190611efe565b60405180910390f35b61042b60048036038101906104269190612025565b610e52565b005b610447600480360381019061044291906120dc565b610eb5565b005b610463600480360381019061045e9190612025565b610f01565b604051610470919061200a565b60405180910390f35b610493600480360381019061048e9190611faf565b610f21565b6040516104a0919061200a565b60405180910390f35b6104c360048036038101906104be9190611faf565b610f98565b6040516104d0919061200a565b60405180910390f35b6104f360048036038101906104ee9190611faf565b610fbb565b005b61050f600480360381019061050a91906120dc565b611060565b005b61052b60048036038101906105269190612025565b61115a565b604051610538919061200a565b60405180910390f35b61055b60048036038101906105569190612133565b61117a565b6040516105689190611e53565b60405180910390f35b61058b60048036038101906105869190612025565b611201565b005b6105a760048036038101906105a29190612025565b611264565b005b6105c360048036038101906105be9190611faf565b6112e7565b005b6105df60048036038101906105da9190612025565b6114c9565b6040516105ec9190611e53565b60405180910390f35b61060f600480360381019061060a91906120dc565b6114e1565b005b600581565b606060038054610625906121a2565b80601f0160208091040260200160405190810160405280929190818152602001828054610651906121a2565b801561069e5780601f106106735761010080835404028352916020019161069e565b820191906000526020600020905b81548152906001019060200180831161068157829003601f168201915b5050505050905090565b6000806106b36114f6565b90506106c08185856114fe565b600191505092915050565b6000600254905090565b6106dd6116c7565b600660008273ffffffffffffffffffffffffffffffffffffffff1673ffffffffffffffffffffffffffffffffffffffff16815260200190815260200160002060009054906101000a900460ff161561076a576040517f08c379a00000000000000000000000000000000000000000000000000000000081526004016107619061221f565b60405180910390fd5b6001600660008373ffffffffffffffffffffffffffffffffffffffff1673ffffffffffffffffffffffffffffffffffffffff16815260200190815260200160002060006101000a81548160ff0219169083151502179055506801158e460913d00000600760008373ffffffffffffffffffffffffffffffffffffffff1673ffffffffffffffffffffffffffffffffffffffff168152602001908152602001600020600082825461081a919061226e565b9250508190555050565b60008061082f6114f6565b905061083c858285611745565b6108478585856117d1565b60019150509392505050565b60006012905090565b6801158e460913d0000081565b6000806108746114f6565b9050610895818585610886858961117a565b610890919061226e565b6114fe565b600191505092915050565b6108aa3382611a47565b50565b6108b56116c7565b80600760008473ffffffffffffffffffffffffffffffffffffffff1673ffffffffffffffffffffffffffffffffffffffff168152602001908152602001600020541015610937576040517f08c379a000000000000000000000000000000000000000000000000000000000815260040161092e906122ee565b60405180910390fd5b8061094130610a34565b1015610982576040517f08c379a000000000000000000000000000000000000000000000000000000000815260040161097990612380565b60405180910390fd5b80600760008473ffffffffffffffffffffffffffffffffffffffff1673ffffffffffffffffffffffffffffffffffffffff16815260200190815260200160002060008282546109d191906123a0565b925050819055506109e23082611a47565b8173ffffffffffffffffffffffffffffffffffffffff167f0b32e9141ed76c4ab29fe0649befae8daaa48fda512fc899cd12e9068c25f18f82604051610a289190611e53565b60405180910390a25050565b60008060008373ffffffffffffffffffffffffffffffffffffffff1673ffffffffffffffffffffffffffffffffffffffff168152602001908152602001600020549050919050565b610a846116c7565b610a8e6000611c14565b565b610a986116c7565b60008111610adb576040517f08c379a0000000000000000000000000000000000000000000000000000000008152600401610ad290612420565b60405180910390fd5b80600760008473ffffffffffffffffffffffffffffffffffffffff1673ffffffffffffffffffffffffffffffffffffffff1681526020019081526020016000206000828254610b2a919061226e565b925050819055505050565b610b3d610d96565b73ffffffffffffffffffffffffffffffffffffffff163373ffffffffffffffffffffffffffffffffffffffff161480610bbf5750600860003373ffffffffffffffffffffffffffffffffffffffff1673ffffffffffffffffffffffffffffffffffffffff16815260200190815260200160002060009054906101000a900460ff165b610bfe576040517f08c379a0000000000000000000000000000000000000000000000000000000008152600401610bf59061248c565b60405180910390fd5b80600760008573ffffffffffffffffffffffffffffffffffffffff1673ffffffffffffffffffffffffffffffffffffffff168152602001908152602001600020541015610c80576040517f08c379a0000000000000000000000000000000000000000000000000000000008152600401610c77906122ee565b60405180910390fd5b80600760008573ffffffffffffffffffffffffffffffffffffffff1673ffffffffffffffffffffffffffffffffffffffff1681526020019081526020016000206000828254610ccf91906123a0565b9250508190555080600760008473ffffffffffffffffffffffffffffffffffffffff1673ffffffffffffffffffffffffffffffffffffffff1681526020019081526020016000206000828254610d25919061226e565b925050819055508173ffffffffffffffffffffffffffffffffffffffff168373ffffffffffffffffffffffffffffffffffffffff167f722fb1b64a0366ad0f6cab15a7cce14dd4e8ad290b24e9a8d896ed21b5436a6883604051610d899190611e53565b60405180910390a3505050565b6000600560009054906101000a900473ffffffffffffffffffffffffffffffffffffffff16905090565b606060048054610dcf906121a2565b80601f0160208091040260200160405190810160405280929190818152602001828054610dfb906121a2565b8015610e485780601f10610e1d57610100808354040283529160200191610e48565b820191906000526020600020905b815481529060010190602001808311610e2b57829003601f168201915b5050505050905090565b610e5a6116c7565b6001600860008373ffffffffffffffffffffffffffffffffffffffff1673ffffffffffffffffffffffffffffffffffffffff16815260200190815260200160002060006101000a81548160ff02191690831515021790555050565b610ebd6116c7565b610ec73082611cda565b7f772f66a00a405709c30e7f18feadcc8f123b20c09c7260165d3eec36c9f2137281604051610ef69190611e53565b60405180910390a150565b60066020528060005260406000206000915054906101000a900460ff1681565b600080610f2c6114f6565b90506000610f3a828661117a565b905083811015610f7f576040517f08c379a0000000000000000000000000000000000000000000000000000000008152600401610f769061251e565b60405180910390fd5b610f8c82868684036114fe565b60019250505092915050565b600080610fa36114f6565b9050610fb08185856117d1565b600191505092915050565b610fc36116c7565b60008111611006576040517f08c379a0000000000000000000000000000000000000000000000000000000008152600401610ffd90612420565b60405180910390fd5b80600760008473ffffffffffffffffffffffffffffffffffffffff1673ffffffffffffffffffffffffffffffffffffffff168152602001908152602001600020600082825461105591906123a0565b925050819055505050565b6110686116c7565b600081116110ab576040517f08c379a00000000000000000000000000000000000000000000000000000000081526004016110a29061258a565b60405180910390fd5b806110b533610a34565b10156110f6576040517f08c379a00000000000000000000000000000000000000000000000000000000081526004016110ed906125f6565b60405180910390fd5b6111013330836117d1565b80600760003373ffffffffffffffffffffffffffffffffffffffff1673ffffffffffffffffffffffffffffffffffffffff1681526020019081526020016000206000828254611150919061226e565b9250508190555050565b60086020528060005260406000206000915054906101000a900460ff1681565b6000600160008473ffffffffffffffffffffffffffffffffffffffff1673ffffffffffffffffffffffffffffffffffffffff16815260200190815260200160002060008373ffffffffffffffffffffffffffffffffffffffff1673ffffffffffffffffffffffffffffffffffffffff16815260200190815260200160002054905092915050565b6112096116c7565b6000600860008373ffffffffffffffffffffffffffffffffffffffff1673ffffffffffffffffffffffffffffffffffffffff16815260200190815260200160002060006101000a81548160ff02191690831515021790555050565b61126c6116c7565b600073ffffffffffffffffffffffffffffffffffffffff168173ffffffffffffffffffffffffffffffffffffffff16036112db576040517f08c379a00000000000000000000000000000000000000000000000000000000081526004016112d290612688565b60405180910390fd5b6112e481611c14565b50565b6112ef6116c7565b80600760008473ffffffffffffffffffffffffffffffffffffffff1673ffffffffffffffffffffffffffffffffffffffff168152602001908152602001600020541015611371576040517f08c379a0000000000000000000000000000000000000000000000000000000008152600401611368906122ee565b60405180910390fd5b8061137b30610a34565b10156113bc576040517f08c379a00000000000000000000000000000000000000000000000000000000081526004016113b3906126f4565b60405180910390fd5b600060646005836113cd9190612714565b6113d79190612785565b9050600081836113e791906123a0565b905082600760008673ffffffffffffffffffffffffffffffffffffffff1673ffffffffffffffffffffffffffffffffffffffff168152602001908152602001600020600082825461143891906123a0565b9250508190555061144a3085836117d1565b61145c30611456610d96565b846117d1565b8373ffffffffffffffffffffffffffffffffffffffff168473ffffffffffffffffffffffffffffffffffffffff167fc2b4a290c20fb28939d29f102514fbffd2b73c059ffba8b78250c94161d5fcc683856040516114bb9291906127b6565b60405180910390a350505050565b60076020528060005260406000206000915090505481565b6114e96116c7565b6114f33082611a47565b50565b600033905090565b600073ffffffffffffffffffffffffffffffffffffffff168373ffffffffffffffffffffffffffffffffffffffff160361156d576040517f08c379a000000000000000000000000000000000000000000000000000000000815260040161156490612851565b60405180910390fd5b600073ffffffffffffffffffffffffffffffffffffffff168273ffffffffffffffffffffffffffffffffffffffff16036115dc576040517f08c379a00000000000000000000000000000000000000000000000000000000081526004016115d3906128e3565b60405180910390fd5b80600160008573ffffffffffffffffffffffffffffffffffffffff1673ffffffffffffffffffffffffffffffffffffffff16815260200190815260200160002060008473ffffffffffffffffffffffffffffffffffffffff1673ffffffffffffffffffffffffffffffffffffffff168152602001908152602001600020819055508173ffffffffffffffffffffffffffffffffffffffff168373ffffffffffffffffffffffffffffffffffffffff167f8c5be1e5ebec7d5bd14f71427d1e84f3dd0314c0f7b2291e5b200ac8c7c3b925836040516116ba9190611e53565b60405180910390a3505050565b6116cf6114f6565b73ffffffffffffffffffffffffffffffffffffffff166116ed610d96565b73ffffffffffffffffffffffffffffffffffffffff1614611743576040517f08c379a000000000000000000000000000000000000000000000000000000000815260040161173a9061294f565b60405180910390fd5b565b6000611751848461117a565b90507fffffffffffffffffffffffffffffffffffffffffffffffffffffffffffffffff81146117cb57818110156117bd576040517f08c379a00000000000000000000000000000000000000000000000000000000081526004016117b4906129bb565b60405180910390fd5b6117ca84848484036114fe565b5b50505050565b600073ffffffffffffffffffffffffffffffffffffffff168373ffffffffffffffffffffffffffffffffffffffff1603611840576040517f08c379a000000000000000000000000000000000000000000000000000000000815260040161183790612a4d565b60405180910390fd5b600073ffffffffffffffffffffffffffffffffffffffff168273ffffffffffffffffffffffffffffffffffffffff16036118af576040517f08c379a00000000000000000000000000000000000000000000000000000000081526004016118a690612adf565b60405180910390fd5b6118ba838383611e30565b60008060008573ffffffffffffffffffffffffffffffffffffffff1673ffffffffffffffffffffffffffffffffffffffff16815260200190815260200160002054905081811015611940576040517f08c379a000000000000000000000000000000000000000000000000000000000815260040161193790612b71565b60405180910390fd5b8181036000808673ffffffffffffffffffffffffffffffffffffffff1673ffffffffffffffffffffffffffffffffffffffff16815260200190815260200160002081905550816000808573ffffffffffffffffffffffffffffffffffffffff1673ffffffffffffffffffffffffffffffffffffffff168152602001908152602001600020600082825401925050819055508273ffffffffffffffffffffffffffffffffffffffff168473ffffffffffffffffffffffffffffffffffffffff167fddf252ad1be2c89b69c2b068fc378daa952ba7f163c4a11628f55a4df523b3ef84604051611a2e9190611e53565b60405180910390a3611a41848484611e35565b50505050565b600073ffffffffffffffffffffffffffffffffffffffff168273ffffffffffffffffffffffffffffffffffffffff1603611ab6576040517f08c379a0000000000000000000000000000000000000000000000000000000008152600401611aad90612c03565b60405180910390fd5b611ac282600083611e30565b60008060008473ffffffffffffffffffffffffffffffffffffffff1673ffffffffffffffffffffffffffffffffffffffff16815260200190815260200160002054905081811015611b48576040517f08c379a0000000000000000000000000000000000000000000000000000000008152600401611b3f90612c95565b60405180910390fd5b8181036000808573ffffffffffffffffffffffffffffffffffffffff1673ffffffffffffffffffffffffffffffffffffffff1681526020019081526020016000208190555081600260008282540392505081905550600073ffffffffffffffffffffffffffffffffffffffff168373ffffffffffffffffffffffffffffffffffffffff167fddf252ad1be2c89b69c2b068fc378daa952ba7f163c4a11628f55a4df523b3ef84604051611bfb9190611e53565b60405180910390a3611c0f83600084611e35565b505050565b6000600560009054906101000a900473ffffffffffffffffffffffffffffffffffffffff16905081600560006101000a81548173ffffffffffffffffffffffffffffffffffffffff021916908373ffffffffffffffffffffffffffffffffffffffff1602179055508173ffffffffffffffffffffffffffffffffffffffff168173ffffffffffffffffffffffffffffffffffffffff167f8be0079c531659141344cd1fd0a4f28419497f9722a3daafe3b4186f6b6457e060405160405180910390a35050565b600073ffffffffffffffffffffffffffffffffffffffff168273ffffffffffffffffffffffffffffffffffffffff1603611d49576040517f08c379a0000000000000000000000000000000000000000000000000000000008152600401611d4090612d01565b60405180910390fd5b611d5560008383611e30565b8060026000828254611d67919061226e565b92505081905550806000808473ffffffffffffffffffffffffffffffffffffffff1673ffffffffffffffffffffffffffffffffffffffff168152602001908152602001600020600082825401925050819055508173ffffffffffffffffffffffffffffffffffffffff16600073ffffffffffffffffffffffffffffffffffffffff167fddf252ad1be2c89b69c2b068fc378daa952ba7f163c4a11628f55a4df523b3ef83604051611e189190611e53565b60405180910390a3611e2c60008383611e35565b5050565b505050565b505050565b6000819050919050565b611e4d81611e3a565b82525050565b6000602082019050611e686000830184611e44565b92915050565b600081519050919050565b600082825260208201905092915050565b60005b83811015611ea8578082015181840152602081019050611e8d565b60008484015250505050565b6000601f19601f8301169050919050565b6000611ed082611e6e565b611eda8185611e79565b9350611eea818560208601611e8a565b611ef381611eb4565b840191505092915050565b60006020820190508181036000830152611f188184611ec5565b905092915050565b600080fd5b600073ffffffffffffffffffffffffffffffffffffffff82169050919050565b6000611f5082611f25565b9050919050565b611f6081611f45565b8114611f6b57600080fd5b50565b600081359050611f7d81611f57565b92915050565b611f8c81611e3a565b8114611f9757600080fd5b50565b600081359050611fa981611f83565b92915050565b60008060408385031215611fc657611fc5611f20565b5b6000611fd485828601611f6e565b9250506020611fe585828601611f9a565b9150509250929050565b60008115159050919050565b61200481611fef565b82525050565b600060208201905061201f6000830184611ffb565b92915050565b60006020828403121561203b5761203a611f20565b5b600061204984828501611f6e565b91505092915050565b60008060006060848603121561206b5761206a611f20565b5b600061207986828701611f6e565b935050602061208a86828701611f6e565b925050604061209b86828701611f9a565b9150509250925092565b600060ff82169050919050565b6120bb816120a5565b82525050565b60006020820190506120d660008301846120b2565b92915050565b6000602082840312156120f2576120f1611f20565b5b600061210084828501611f9a565b91505092915050565b61211281611f45565b82525050565b600060208201905061212d6000830184612109565b92915050565b6000806040838503121561214a57612149611f20565b5b600061215885828601611f6e565b925050602061216985828601611f6e565b9150509250929050565b7f4e487b7100000000000000000000000000000000000000000000000000000000600052602260045260246000fd5b600060028204905060018216806121ba57607f821691505b6020821081036121cd576121cc612173565b5b50919050565b7f5961207265636c616d61737465207475207265636f6d70656e73610000000000600082015250565b6000612209601b83611e79565b9150612214826121d3565b602082019050919050565b60006020820190508181036000830152612238816121fc565b9050919050565b7f4e487b7100000000000000000000000000000000000000000000000000000000600052601160045260246000fd5b600061227982611e3a565b915061228483611e3a565b925082820190508082111561229c5761229b61223f565b5b92915050565b7f53616c646f207669727475616c20696e737566696369656e7465000000000000600082015250565b60006122d8601a83611e79565b91506122e3826122a2565b602082019050919050565b60006020820190508181036000830152612307816122cb565b9050919050565b7f436f6e747261746f2073696e20737566696369656e74657320746f6b656e732060008201527f70617261207175656d6172000000000000000000000000000000000000000000602082015250565b600061236a602b83611e79565b91506123758261230e565b604082019050919050565b600060208201905081810360008301526123998161235d565b9050919050565b60006123ab82611e3a565b91506123b683611e3a565b92508282039050818111156123ce576123cd61223f565b5b92915050565b7f416d6f756e74206d7573742062652067726561746572207468616e2030000000600082015250565b600061240a601d83611e79565b9150612415826123d4565b602082019050919050565b60006020820190508181036000830152612439816123fd565b9050919050565b7f4e6f7420617574686f72697a6564000000000000000000000000000000000000600082015250565b6000612476600e83611e79565b915061248182612440565b602082019050919050565b600060208201905081810360008301526124a581612469565b9050919050565b7f45524332303a2064656372656173656420616c6c6f77616e63652062656c6f7760008201527f207a65726f000000000000000000000000000000000000000000000000000000602082015250565b6000612508602583611e79565b9150612513826124ac565b604082019050919050565b60006020820190508181036000830152612537816124fb565b9050919050565b7f43616e7469646164206465626520736572206d61796f72206120300000000000600082015250565b6000612574601b83611e79565b915061257f8261253e565b602082019050919050565b600060208201905081810360008301526125a381612567565b9050919050565b7f53616c646f20696e737566696369656e74650000000000000000000000000000600082015250565b60006125e0601283611e79565b91506125eb826125aa565b602082019050919050565b6000602082019050818103600083015261260f816125d3565b9050919050565b7f4f776e61626c653a206e6577206f776e657220697320746865207a65726f206160008201527f6464726573730000000000000000000000000000000000000000000000000000602082015250565b6000612672602683611e79565b915061267d82612616565b604082019050919050565b600060208201905081810360008301526126a181612665565b9050919050565b7f436f6e747261746f2073696e20737566696369656e74657320746f6b656e7300600082015250565b60006126de601f83611e79565b91506126e9826126a8565b602082019050919050565b6000602082019050818103600083015261270d816126d1565b9050919050565b600061271f82611e3a565b915061272a83611e3a565b925082820261273881611e3a565b9150828204841483151761274f5761274e61223f565b5b5092915050565b7f4e487b7100000000000000000000000000000000000000000000000000000000600052601260045260246000fd5b600061279082611e3a565b915061279b83611e3a565b9250826127ab576127aa612756565b5b828204905092915050565b60006040820190506127cb6000830185611e44565b6127d86020830184611e44565b9392505050565b7f45524332303a20617070726f76652066726f6d20746865207a65726f2061646460008201527f7265737300000000000000000000000000000000000000000000000000000000602082015250565b600061283b602483611e79565b9150612846826127df565b604082019050919050565b6000602082019050818103600083015261286a8161282e565b9050919050565b7f45524332303a20617070726f766520746f20746865207a65726f20616464726560008201527f7373000000000000000000000000000000000000000000000000000000000000602082015250565b60006128cd602283611e79565b91506128d882612871565b604082019050919050565b600060208201905081810360008301526128fc816128c0565b9050919050565b7f4f776e61626c653a2063616c6c6572206973206e6f7420746865206f776e6572600082015250565b6000612939602083611e79565b915061294482612903565b602082019050919050565b600060208201905081810360008301526129688161292c565b9050919050565b7f45524332303a20696e73756666696369656e7420616c6c6f77616e6365000000600082015250565b60006129a5601d83611e79565b91506129b08261296f565b602082019050919050565b600060208201905081810360008301526129d481612998565b9050919050565b7f45524332303a207472616e736665722066726f6d20746865207a65726f20616460008201527f6472657373000000000000000000000000000000000000000000000000000000602082015250565b6000612a37602583611e79565b9150612a42826129db565b604082019050919050565b60006020820190508181036000830152612a6681612a2a565b9050919050565b7f45524332303a207472616e7366657220746f20746865207a65726f206164647260008201527f6573730000000000000000000000000000000000000000000000000000000000602082015250565b6000612ac9602383611e79565b9150612ad482612a6d565b604082019050919050565b60006020820190508181036000830152612af881612abc565b9050919050565b7f45524332303a207472616e7366657220616d6f756e742065786365656473206260008201527f616c616e63650000000000000000000000000000000000000000000000000000602082015250565b6000612b5b602683611e79565b9150612b6682612aff565b604082019050919050565b60006020820190508181036000830152612b8a81612b4e565b9050919050565b7f45524332303a206275726e2066726f6d20746865207a65726f2061646472657360008201527f7300000000000000000000000000000000000000000000000000000000000000602082015250565b6000612bed602183611e79565b9150612bf882612b91565b604082019050919050565b60006020820190508181036000830152612c1c81612be0565b9050919050565b7f45524332303a206275726e20616d6f756e7420657863656564732062616c616e60008201527f6365000000000000000000000000000000000000000000000000000000000000602082015250565b6000612c7f602283611e79565b9150612c8a82612c23565b604082019050919050565b60006020820190508181036000830152612cae81612c72565b9050919050565b7f45524332303a206d696e7420746f20746865207a65726f206164647265737300600082015250565b6000612ceb601f83611e79565b9150612cf682612cb5565b602082019050919050565b60006020820190508181036000830152612d1a81612cde565b905091905056fea2646970667358221220a6efcc55e8b626c5562fc36b0fdefebfdbcf2174e05a456e8c38702f4bd4a0f764736f6c634300081c0033",
  "linkReferences": {},
  "deployedLinkReferences": {}
}