{
  "_format": "hh-sol-artifact-1",
  "contractName": "ForestNFT",
  "sourceName": "contracts/ForestNFT.sol",
  "abi": [
    {
      "inputs": [],
      "stateMutability": "nonpayable",
      "type": "constructor"
    },
    {
      "anonymous": false,
      "inputs": [
        {
          "indexed": true,
          "internalType": "address",
          "name": "owner",
          "type": "address"
        },
        {
          "indexed": true,
          "internalType": "address",
          "name": "approved",
          "type": "address"
        },
        {
          "indexed": true,
          "internalType": "uint256",
          "name": "tokenId",
          "type": "uint256"
        }
      ],
      "name": "Approval",
      "type": "event"
    },
    {
      "anonymous": false,
      "inputs": [
        {
          "indexed": true,
          "internalType": "address",
          "name": "owner",
          "type": "address"
        },
        {
          "indexed": true,
          "internalType": "address",
          "name": "operator",
          "type": "address"
        },
        {
          "indexed": false,
          "internalType": "bool",
          "name": "approved",
          "type": "bool"
        }
      ],
      "name": "ApprovalForAll",
      "type": "event"
    },
    {
      "anonymous": false,
      "inputs": [
        {
          "indexed": false,
          "internalType": "uint256",
          "name": "_fromTokenId",
          "type": "uint256"
        },
        {
          "indexed": false,
          "internalType": "uint256",
          "name": "_toTokenId",
          "type": "uint256"
        }
      ],
      "name": "BatchMetadataUpdate",
      "type": "event"
    },
    {
      "anonymous": false,
      "inputs": [
        {
          "indexed": false,
          "internalType": "uint256",
          "name": "_tokenId",
          "type": "uint256"
        }
      ],
      "name": "MetadataUpdate",
      "type": "event"
    },
    {
      "anonymous": false,
      "inputs": [
        {
          "indexed": true,
          "internalType": "address",
          "name": "previousOwner",
          "type": "address"
        },
        {
          "indexed": true,
          "internalType": "address",
          "name": "newOwner",
          "type": "address"
        }
      ],
      "name": "OwnershipTransferred",
      "type": "event"
    },
    {
      "anonymous": false,
      "inputs": [
        {
          "indexed": true,
          "internalType": "address",
          "name": "from",
          "type": "address"
        },
        {
          "indexed": true,
          "internalType": "address",
          "name": "to",
          "type": "address"
        },
        {
          "indexed": true,
          "internalType": "uint256",
          "name": "tokenId",
          "type": "uint256"
        }
      ],
      "name": "Transfer",
      "type": "event"
    },
    {
      "inputs": [],
      "name": "TREES_PER_PARCEL",
      "outputs": [
        {
          "internalType": "uint256",
          "name": "",
          "type": "uint256"
        }
      ],
      "stateMutability": "view",
      "type": "function"
    },
    {
      "inputs": [
        {
          "internalType": "address",
          "name": "user",
          "type": "address"
        },
        {
          "internalType": "uint256",
          "name": "additionalParcels",
          "type": "uint256"
        }
      ],
      "name": "addParcels",
      "outputs": [],
      "stateMutability": "nonpayable",
      "type": "function"
    },
    {
      "inputs": [
        {
          "internalType": "address",
          "name": "to",
          "type": "address"
        },
        {
          "internalType": "uint256",
          "name": "tokenId",
          "type": "uint256"
        }
      ],
      "name": "approve",
      "outputs": [],
      "stateMutability": "nonpayable",
      "type": "function"
    },
    {
      "inputs": [
        {
          "internalType": "address",
          "name": "user",
          "type": "address"
        },
        {
          "internalType": "uint256",
          "name": "parcels",
          "type": "uint256"
        }
      ],
      "name": "assignParcels",
      "outputs": [],
      "stateMutability": "nonpayable",
      "type": "function"
    },
    {
      "inputs": [
        {
          "internalType": "address",
          "name": "owner",
          "type": "address"
        }
      ],
      "name": "balanceOf",
      "outputs": [
        {
          "internalType": "uint256",
          "name": "",
          "type": "uint256"
        }
      ],
      "stateMutability": "view",
      "type": "function"
    },
    {
      "inputs": [
        {
          "internalType": "address",
          "name": "user",
          "type": "address"
        }
      ],
      "name": "canPlantMoreTrees",
      "outputs": [
        {
          "internalType": "bool",
          "name": "",
          "type": "bool"
        }
      ],
      "stateMutability": "view",
      "type": "function"
    },
    {
      "inputs": [
        {
          "internalType": "uint256",
          "name": "tokenId",
          "type": "uint256"
        }
      ],
      "name": "getApproved",
      "outputs": [
        {
          "internalType": "address",
          "name": "",
          "type": "address"
        }
      ],
      "stateMutability": "view",
      "type": "function"
    },
    {
      "inputs": [
        {
          "internalType": "address",
          "name": "user",
          "type": "address"
        }
      ],
      "name": "getAvailableTreeSlots",
      "outputs": [
        {
          "internalType": "uint256",
          "name": "",
          "type": "uint256"
        }
      ],
      "stateMutability": "view",
      "type": "function"
    },
    {
      "inputs": [
        {
          "internalType": "address",
          "name": "user",
          "type": "address"
        },
        {
          "internalType": "enum ForestNFT.Rarity",
          "name": "rarity",
          "type": "uint8"
        }
      ],
      "name": "getNFTsByRarity",
      "outputs": [
        {
          "internalType": "uint256",
          "name": "",
          "type": "uint256"
        }
      ],
      "stateMutability": "view",
      "type": "function"
    },
    {
      "inputs": [
        {
          "internalType": "address",
          "name": "user",
          "type": "address"
        }
      ],
      "name": "getUserParcels",
      "outputs": [
        {
          "internalType": "uint256",
          "name": "",
          "type": "uint256"
        }
      ],
      "stateMutability": "view",
      "type": "function"
    },
    {
      "inputs": [
        {
          "internalType": "address",
          "name": "owner",
          "type": "address"
        },
        {
          "internalType": "address",
          "name": "operator",
          "type": "address"
        }
      ],
      "name": "isApprovedForAll",
      "outputs": [
        {
          "internalType": "bool",
          "name": "",
          "type": "bool"
        }
      ],
      "stateMutability": "view",
      "type": "function"
    },
    {
      "inputs": [
        {
          "internalType": "address",
          "name": "to",
          "type": "address"
        },
        {
          "internalType": "uint256",
          "name": "amountScaled",
          "type": "uint256"
        }
      ],
      "name": "mintTo",
      "outputs": [],
      "stateMutability": "nonpayable",
      "type": "function"
    },
    {
      "inputs": [],
      "name": "name",
      "outputs": [
        {
          "internalType": "string",
          "name": "",
          "type": "string"
        }
      ],
      "stateMutability": "view",
      "type": "function"
    },
    {
      "inputs": [],
      "name": "owner",
      "outputs": [
        {
          "internalType": "address",
          "name": "",
          "type": "address"
        }
      ],
      "stateMutability": "view",
      "type": "function"
    },
    {
      "inputs": [
        {
          "internalType": "uint256",
          "name": "tokenId",
          "type": "uint256"
        }
      ],
      "name": "ownerOf",
      "outputs": [
        {
          "internalType": "address",
          "name": "",
          "type": "address"
        }
      ],
      "stateMutability": "view",
      "type": "function"
    },
    {
      "inputs": [],
      "name": "renounceOwnership",
      "outputs": [],
      "stateMutability": "nonpayable",
      "type": "function"
    },
    {
      "inputs": [
        {
          "internalType": "address",
          "name": "from",
          "type": "address"
        },
        {
          "internalType": "address",
          "name": "to",
          "type": "address"
        },
        {
          "internalType": "uint256",
          "name": "tokenId",
          "type": "uint256"
        }
      ],
      "name": "safeTransferFrom",
      "outputs": [],
      "stateMutability": "nonpayable",
      "type": "function"
    },
    {
      "inputs": [
        {
          "internalType": "address",
          "name": "from",
          "type": "address"
        },
        {
          "internalType": "address",
          "name": "to",
          "type": "address"
        },
        {
          "internalType": "uint256",
          "name": "tokenId",
          "type": "uint256"
        },
        {
          "internalType": "bytes",
          "name": "data",
          "type": "bytes"
        }
      ],
      "name": "safeTransferFrom",
      "outputs": [],
      "stateMutability": "nonpayable",
      "type": "function"
    },
    {
      "inputs": [
        {
          "internalType": "address",
          "name": "operator",
          "type": "address"
        },
        {
          "internalType": "bool",
          "name": "approved",
          "type": "bool"
        }
      ],
      "name": "setApprovalForAll",
      "outputs": [],
      "stateMutability": "nonpayable",
      "type": "function"
    },
    {
      "inputs": [
        {
          "internalType": "bytes4",
          "name": "interfaceId",
          "type": "bytes4"
        }
      ],
      "name": "supportsInterface",
      "outputs": [
        {
          "internalType": "bool",
          "name": "",
          "type": "bool"
        }
      ],
      "stateMutability": "view",
      "type": "function"
    },
    {
      "inputs": [],
      "name": "symbol",
      "outputs": [
        {
          "internalType": "string",
          "name": "",
          "type": "string"
        }
      ],
      "stateMutability": "view",
      "type": "function"
    },
    {
      "inputs": [
        {
          "internalType": "uint256",
          "name": "",
          "type": "uint256"
        }
      ],
      "name": "tokenRarity",
      "outputs": [
        {
          "internalType": "enum ForestNFT.Rarity",
          "name": "",
          "type": "uint8"
        }
      ],
      "stateMutability": "view",
      "type": "function"
    },
    {
      "inputs": [
        {
          "internalType": "uint256",
          "name": "tokenId",
          "type": "uint256"
        }
      ],
      "name": "tokenURI",
      "outputs": [
        {
          "internalType": "string",
          "name": "",
          "type": "string"
        }
      ],
      "stateMutability": "view",
      "type": "function"
    },
    {
      "inputs": [
        {
          "internalType": "address",
          "name": "owner",
          "type": "address"
        }
      ],
      "name": "tokensOfOwner",
      "outputs": [
        {
          "internalType": "uint256[]",
          "name": "",
          "type": "uint256[]"
        }
      ],
      "stateMutability": "view",
      "type": "function"
    },
    {
      "inputs": [
        {
          "internalType": "address",
          "name": "from",
          "type": "address"
        },
        {
          "internalType": "address",
          "name": "to",
          "type": "address"
        },
        {
          "internalType": "uint256",
          "name": "tokenId",
          "type": "uint256"
        }
      ],
      "name": "transferFrom",
      "outputs": [],
      "stateMutability": "nonpayable",
      "type": "function"
    },
    {
      "inputs": [
        {
          "internalType": "address",
          "name": "newOwner",
          "type": "address"
        }
      ],
      "name": "transferOwnership",
      "outputs": [],
      "stateMutability": "nonpayable",
      "type": "function"
    },
    {
      "inputs": [
        {
          "internalType": "address",
          "name": "",
          "type": "address"
        },
        {
          "internalType": "enum ForestNFT.Rarity",
          "name": "",
          "type": "uint8"
        }
      ],
      "name": "userNFTsByRarity",
      "outputs": [
        {
          "internalType": "uint256",
          "name": "",
          "type": "uint256"
        }
      ],
      "stateMutability": "view",
      "type": "function"
    },
    {
      "inputs": [
        {
          "internalType": "address",
          "name": "",
          "type": "address"
        }
      ],
      "name": "userParcels",
      "outputs": [
        {
          "internalType": "uint256",
          "name": "",
          "type": "uint256"
        }
      ],
      "stateMutability": "view",
      "type": "function"
    }
  ],
  "bytecode": "0x608060405234801561001057600080fd5b506040518060400160405280600a81526020017f466f72657374204e4654000000000000000000000000000000000000000000008152506040518060400160405280600981526020017f464f524553544e46540000000000000000000000000000000000000000000000815250816000908161008c91906103de565b50806001908161009c91906103de565b5050506100bb6100b06100c060201b60201c565b6100c860201b60201c565b6104b0565b600033905090565b6000600760009054906101000a900473ffffffffffffffffffffffffffffffffffffffff16905081600760006101000a81548173ffffffffffffffffffffffffffffffffffffffff021916908373ffffffffffffffffffffffffffffffffffffffff1602179055508173ffffffffffffffffffffffffffffffffffffffff168173ffffffffffffffffffffffffffffffffffffffff167f8be0079c531659141344cd1fd0a4f28419497f9722a3daafe3b4186f6b6457e060405160405180910390a35050565b600081519050919050565b7f4e487b7100000000000000000000000000000000000000000000000000000000600052604160045260246000fd5b7f4e487b7100000000000000000000000000000000000000000000000000000000600052602260045260246000fd5b6000600282049050600182168061020f57607f821691505b602082108103610222576102216101c8565b5b50919050565b60008190508160005260206000209050919050565b60006020601f8301049050919050565b600082821b905092915050565b60006008830261028a7fffffffffffffffffffffffffffffffffffffffffffffffffffffffffffffffff8261024d565b610294868361024d565b95508019841693508086168417925050509392505050565b6000819050919050565b6000819050919050565b60006102db6102d66102d1846102ac565b6102b6565b6102ac565b9050919050565b6000819050919050565b6102f5836102c0565b610309610301826102e2565b84845461025a565b825550505050565b600090565b61031e610311565b6103298184846102ec565b505050565b5b8181101561034d57610342600082610316565b60018101905061032f565b5050565b601f8211156103925761036381610228565b61036c8461023d565b8101602085101561037b578190505b61038f6103878561023d565b83018261032e565b50505b505050565b600082821c905092915050565b60006103b560001984600802610397565b1980831691505092915050565b60006103ce83836103a4565b9150826002028217905092915050565b6103e78261018e565b67ffffffffffffffff811115610400576103ff610199565b5b61040a82546101f7565b610415828285610351565b600060209050601f8311600181146104485760008415610436578287015190505b61044085826103c2565b8655506104a8565b601f19841661045686610228565b60005b8281101561047e57848901518255600182019150602085019450602081019050610459565b8683101561049b5784890151610497601f8916826103a4565b8355505b6001600288020188555050505b505050505050565b614425806104bf6000396000f3fe608060405234801561001057600080fd5b50600436106101c45760003560e01c80638462151c116100f9578063b88d4fde11610097578063c87b56dd11610071578063c87b56dd1461053b578063e985e9c51461056b578063f2fde38b1461059b578063f859fa25146105b7576101c4565b8063b88d4fde146104bf578063bd17d3ce146104db578063c25842371461050b576101c4565b8063a22cb465116100d3578063a22cb4651461043b578063a867d19a14610457578063a8d99bf814610473578063afb0a3691461048f576101c4565b80638462151c146103cf5780638da5cb5b146103ff57806395d89b411461041d576101c4565b806342842e0e1161016657806369f43aad1161014057806369f43aad1461034757806370a0823114610377578063715018a6146103a75780637613090f146103b1576101c4565b806342842e0e146102df578063449a52f8146102fb5780636352211e14610317576101c4565b8063081812fc116101a2578063081812fc14610247578063095ea7b31461027757806318e05bbe1461029357806323b872dd146102c3576101c4565b806301ffc9a7146101c9578063041634bf146101f957806306fdde0314610229575b600080fd5b6101e360048036038101906101de9190612b01565b6105e7565b6040516101f09190612b49565b60405180910390f35b610213600480360381019061020e9190612bc2565b610648565b6040516102209190612c08565b60405180910390f35b610231610691565b60405161023e9190612cb3565b60405180910390f35b610261600480360381019061025c9190612d01565b610723565b60405161026e9190612d3d565b60405180910390f35b610291600480360381019061028c9190612d58565b610769565b005b6102ad60048036038101906102a89190612bc2565b610880565b6040516102ba9190612c08565b60405180910390f35b6102dd60048036038101906102d89190612d98565b610898565b005b6102f960048036038101906102f49190612d98565b6108f8565b005b61031560048036038101906103109190612d58565b610918565b005b610331600480360381019061032c9190612d01565b610a9a565b60405161033e9190612d3d565b60405180910390f35b610361600480360381019061035c9190612e10565b610b20565b60405161036e9190612c08565b60405180910390f35b610391600480360381019061038c9190612bc2565b610b9f565b60405161039e9190612c08565b60405180910390f35b6103af610c56565b005b6103b9610c6a565b6040516103c69190612c08565b60405180910390f35b6103e960048036038101906103e49190612bc2565b610c6f565b6040516103f69190612f0e565b60405180910390f35b610407610d06565b6040516104149190612d3d565b60405180910390f35b610425610d30565b6040516104329190612cb3565b60405180910390f35b61045560048036038101906104509190612f5c565b610dc2565b005b610471600480360381019061046c9190612d58565b610dd8565b005b61048d60048036038101906104889190612d58565b610e7d565b005b6104a960048036038101906104a49190612d01565b610f10565b6040516104b69190613013565b60405180910390f35b6104d960048036038101906104d49190613163565b610f30565b005b6104f560048036038101906104f09190612bc2565b610f92565b6040516105029190612b49565b60405180910390f35b61052560048036038101906105209190612e10565b610ffc565b6040516105329190612c08565b60405180910390f35b61055560048036038101906105509190612d01565b611021565b6040516105629190612cb3565b60405180910390f35b610585600480360381019061058091906131e6565b611133565b6040516105929190612b49565b60405180910390f35b6105b560048036038101906105b09190612bc2565b6111c7565b005b6105d160048036038101906105cc9190612bc2565b61124a565b6040516105de9190612c08565b60405180910390f35b6000634906490660e01b7bffffffffffffffffffffffffffffffffffffffffffffffffffffffff1916827bffffffffffffffffffffffffffffffffffffffffffffffffffffffff191614806106415750610640826112d0565b5b9050919050565b6000600b60008373ffffffffffffffffffffffffffffffffffffffff1673ffffffffffffffffffffffffffffffffffffffff168152602001908152602001600020549050919050565b6060600080546106a090613255565b80601f01602080910402602001604051908101604052809291908181526020018280546106cc90613255565b80156107195780601f106106ee57610100808354040283529160200191610719565b820191906000526020600020905b8154815290600101906020018083116106fc57829003601f168201915b5050505050905090565b600061072e826113b2565b6004600083815260200190815260200160002060009054906101000a900473ffffffffffffffffffffffffffffffffffffffff169050919050565b600061077482610a9a565b90508073ffffffffffffffffffffffffffffffffffffffff168373ffffffffffffffffffffffffffffffffffffffff16036107e4576040517f08c379a00000000000000000000000000000000000000000000000000000000081526004016107db906132f8565b60405180910390fd5b8073ffffffffffffffffffffffffffffffffffffffff166108036113fd565b73ffffffffffffffffffffffffffffffffffffffff16148061083257506108318161082c6113fd565b611133565b5b610871576040517f08c379a00000000000000000000000000000000000000000000000000000000081526004016108689061338a565b60405180910390fd5b61087b8383611405565b505050565b600b6020528060005260406000206000915090505481565b6108a96108a36113fd565b826114be565b6108e8576040517f08c379a00000000000000000000000000000000000000000000000000000000081526004016108df9061341c565b60405180910390fd5b6108f3838383611553565b505050565b61091383838360405180602001604052806000815250610f30565b505050565b61092061184c565b600c8110158015610932575060418111155b610971576040517f08c379a0000000000000000000000000000000000000000000000000000000008152600401610968906134ae565b60405180910390fd5b600061097c83610b9f565b905060006010600b60008673ffffffffffffffffffffffffffffffffffffffff1673ffffffffffffffffffffffffffffffffffffffff168152602001908152602001600020546109cc91906134fd565b9050808210610a10576040517f08c379a0000000000000000000000000000000000000000000000000000000008152600401610a07906135b1565b60405180910390fd5b610a1a60086118ca565b6000610a2660086118e0565b90506000610a33856118ee565b9050806009600084815260200190815260200160002060006101000a81548160ff02191690836002811115610a6b57610a6a612f9c565b5b02179055506000610a7b82611a71565b9050610a878784611b2b565b610a918382611b49565b50505050505050565b600080610aa683611bed565b9050600073ffffffffffffffffffffffffffffffffffffffff168173ffffffffffffffffffffffffffffffffffffffff1603610b17576040517f08c379a0000000000000000000000000000000000000000000000000000000008152600401610b0e9061361d565b60405180910390fd5b80915050919050565b6000600a60008473ffffffffffffffffffffffffffffffffffffffff1673ffffffffffffffffffffffffffffffffffffffff1681526020019081526020016000206000836002811115610b7657610b75612f9c565b5b6002811115610b8857610b87612f9c565b5b815260200190815260200160002054905092915050565b60008073ffffffffffffffffffffffffffffffffffffffff168273ffffffffffffffffffffffffffffffffffffffff1603610c0f576040517f08c379a0000000000000000000000000000000000000000000000000000000008152600401610c06906136af565b60405180910390fd5b600360008373ffffffffffffffffffffffffffffffffffffffff1673ffffffffffffffffffffffffffffffffffffffff168152602001908152602001600020549050919050565b610c5e61184c565b610c686000611c2a565b565b601081565b6060600c60008373ffffffffffffffffffffffffffffffffffffffff1673ffffffffffffffffffffffffffffffffffffffff168152602001908152602001600020805480602002602001604051908101604052809291908181526020018280548015610cfa57602002820191906000526020600020905b815481526020019060010190808311610ce6575b50505050509050919050565b6000600760009054906101000a900473ffffffffffffffffffffffffffffffffffffffff16905090565b606060018054610d3f90613255565b80601f0160208091040260200160405190810160405280929190818152602001828054610d6b90613255565b8015610db85780601f10610d8d57610100808354040283529160200191610db8565b820191906000526020600020905b815481529060010190602001808311610d9b57829003601f168201915b5050505050905090565b610dd4610dcd6113fd565b8383611cf0565b5050565b610de061184c565b60008111610e23576040517f08c379a0000000000000000000000000000000000000000000000000000000008152600401610e1a90613741565b60405180910390fd5b80600b60008473ffffffffffffffffffffffffffffffffffffffff1673ffffffffffffffffffffffffffffffffffffffff1681526020019081526020016000206000828254610e729190613761565b925050819055505050565b610e8561184c565b60008111610ec8576040517f08c379a0000000000000000000000000000000000000000000000000000000008152600401610ebf906137e1565b60405180910390fd5b80600b60008473ffffffffffffffffffffffffffffffffffffffff1673ffffffffffffffffffffffffffffffffffffffff168152602001908152602001600020819055505050565b60096020528060005260406000206000915054906101000a900460ff1681565b610f41610f3b6113fd565b836114be565b610f80576040517f08c379a0000000000000000000000000000000000000000000000000000000008152600401610f779061341c565b60405180910390fd5b610f8c84848484611e5c565b50505050565b600080610f9e83610b9f565b905060006010600b60008673ffffffffffffffffffffffffffffffffffffffff1673ffffffffffffffffffffffffffffffffffffffff16815260200190815260200160002054610fee91906134fd565b905080821092505050919050565b600a602052816000526040600020602052806000526040600020600091509150505481565b606061102c826113b2565b600060066000848152602001908152602001600020805461104c90613255565b80601f016020809104026020016040519081016040528092919081815260200182805461107890613255565b80156110c55780601f1061109a576101008083540402835291602001916110c5565b820191906000526020600020905b8154815290600101906020018083116110a857829003601f168201915b5050505050905060006110d6611eb8565b905060008151036110eb57819250505061112e565b60008251111561112057808260405160200161110892919061383d565b6040516020818303038152906040529250505061112e565b61112984611ecf565b925050505b919050565b6000600560008473ffffffffffffffffffffffffffffffffffffffff1673ffffffffffffffffffffffffffffffffffffffff16815260200190815260200160002060008373ffffffffffffffffffffffffffffffffffffffff1673ffffffffffffffffffffffffffffffffffffffff16815260200190815260200160002060009054906101000a900460ff16905092915050565b6111cf61184c565b600073ffffffffffffffffffffffffffffffffffffffff168173ffffffffffffffffffffffffffffffffffffffff160361123e576040517f08c379a0000000000000000000000000000000000000000000000000000000008152600401611235906138d3565b60405180910390fd5b61124781611c2a565b50565b60008061125683610b9f565b905060006010600b60008673ffffffffffffffffffffffffffffffffffffffff1673ffffffffffffffffffffffffffffffffffffffff168152602001908152602001600020546112a691906134fd565b90508082106112ba576000925050506112cb565b81816112c691906138f3565b925050505b919050565b60007f80ac58cd000000000000000000000000000000000000000000000000000000007bffffffffffffffffffffffffffffffffffffffffffffffffffffffff1916827bffffffffffffffffffffffffffffffffffffffffffffffffffffffff1916148061139b57507f5b5e139f000000000000000000000000000000000000000000000000000000007bffffffffffffffffffffffffffffffffffffffffffffffffffffffff1916827bffffffffffffffffffffffffffffffffffffffffffffffffffffffff1916145b806113ab57506113aa82611f37565b5b9050919050565b6113bb81611fa1565b6113fa576040517f08c379a00000000000000000000000000000000000000000000000000000000081526004016113f19061361d565b60405180910390fd5b50565b600033905090565b816004600083815260200190815260200160002060006101000a81548173ffffffffffffffffffffffffffffffffffffffff021916908373ffffffffffffffffffffffffffffffffffffffff160217905550808273ffffffffffffffffffffffffffffffffffffffff1661147883610a9a565b73ffffffffffffffffffffffffffffffffffffffff167f8c5be1e5ebec7d5bd14f71427d1e84f3dd0314c0f7b2291e5b200ac8c7c3b92560405160405180910390a45050565b6000806114ca83610a9a565b90508073ffffffffffffffffffffffffffffffffffffffff168473ffffffffffffffffffffffffffffffffffffffff16148061150c575061150b8185611133565b5b8061154a57508373ffffffffffffffffffffffffffffffffffffffff1661153284610723565b73ffffffffffffffffffffffffffffffffffffffff16145b91505092915050565b8273ffffffffffffffffffffffffffffffffffffffff1661157382610a9a565b73ffffffffffffffffffffffffffffffffffffffff16146115c9576040517f08c379a00000000000000000000000000000000000000000000000000000000081526004016115c090613999565b60405180910390fd5b600073ffffffffffffffffffffffffffffffffffffffff168273ffffffffffffffffffffffffffffffffffffffff1603611638576040517f08c379a000000000000000000000000000000000000000000000000000000000815260040161162f90613a2b565b60405180910390fd5b6116458383836001611fe2565b8273ffffffffffffffffffffffffffffffffffffffff1661166582610a9a565b73ffffffffffffffffffffffffffffffffffffffff16146116bb576040517f08c379a00000000000000000000000000000000000000000000000000000000081526004016116b290613999565b60405180910390fd5b6004600082815260200190815260200160002060006101000a81549073ffffffffffffffffffffffffffffffffffffffff02191690556001600360008573ffffffffffffffffffffffffffffffffffffffff1673ffffffffffffffffffffffffffffffffffffffff168152602001908152602001600020600082825403925050819055506001600360008473ffffffffffffffffffffffffffffffffffffffff1673ffffffffffffffffffffffffffffffffffffffff16815260200190815260200160002060008282540192505081905550816002600083815260200190815260200160002060006101000a81548173ffffffffffffffffffffffffffffffffffffffff021916908373ffffffffffffffffffffffffffffffffffffffff160217905550808273ffffffffffffffffffffffffffffffffffffffff168473ffffffffffffffffffffffffffffffffffffffff167fddf252ad1be2c89b69c2b068fc378daa952ba7f163c4a11628f55a4df523b3ef60405160405180910390a46118478383836001612430565b505050565b6118546113fd565b73ffffffffffffffffffffffffffffffffffffffff16611872610d06565b73ffffffffffffffffffffffffffffffffffffffff16146118c8576040517f08c379a00000000000000000000000000000000000000000000000000000000081526004016118bf90613a97565b60405180910390fd5b565b6001816000016000828254019250508190555050565b600081600001549050919050565b600080600f6035601e600c8661190491906138f3565b61190e91906134fd565b6119189190613af0565b6119229190613b5a565b90506000603c90506000601990506000600f9050600084846119449190613b5a565b905060006002866119559190613af0565b846119609190613b9d565b905060006002876119719190613af0565b8461197c9190613b9d565b9050600061198984612436565b9050600061199684612436565b905060006119a384612436565b905060008183856119b49190613761565b6119be9190613761565b9050600081036119d957603c935060199250600f9150606490505b6000814244336040516020016119f193929190613c4a565b6040516020818303038152906040528051906020012060001c611a149190613c87565b905082811015611a335760029c50505050505050505050505050611a6c565b8383611a3f9190613761565b811015611a5b5760019c50505050505050505050505050611a6c565b60009c505050505050505050505050505b919050565b6060600280811115611a8657611a85612f9c565b5b826002811115611a9957611a98612f9c565b5b03611abe57604051806060016040528060358152602001614351603591399050611b26565b60016002811115611ad257611ad1612f9c565b5b826002811115611ae557611ae4612f9c565b5b03611b0a57604051806060016040528060358152602001614386603591399050611b26565b6040518060600160405280603581526020016143bb6035913990505b919050565b611b45828260405180602001604052806000815250612452565b5050565b611b5282611fa1565b611b91576040517f08c379a0000000000000000000000000000000000000000000000000000000008152600401611b8890613d2a565b60405180910390fd5b80600660008481526020019081526020016000209081611bb19190613ef6565b507ff8e1a15aba9398e019f0b49df1a4fde98ee17ae345cb5f6b5e2c27f5033e8ce782604051611be19190612c08565b60405180910390a15050565b60006002600083815260200190815260200160002060009054906101000a900473ffffffffffffffffffffffffffffffffffffffff169050919050565b6000600760009054906101000a900473ffffffffffffffffffffffffffffffffffffffff16905081600760006101000a81548173ffffffffffffffffffffffffffffffffffffffff021916908373ffffffffffffffffffffffffffffffffffffffff1602179055508173ffffffffffffffffffffffffffffffffffffffff168173ffffffffffffffffffffffffffffffffffffffff167f8be0079c531659141344cd1fd0a4f28419497f9722a3daafe3b4186f6b6457e060405160405180910390a35050565b8173ffffffffffffffffffffffffffffffffffffffff168373ffffffffffffffffffffffffffffffffffffffff1603611d5e576040517f08c379a0000000000000000000000000000000000000000000000000000000008152600401611d5590614014565b60405180910390fd5b80600560008573ffffffffffffffffffffffffffffffffffffffff1673ffffffffffffffffffffffffffffffffffffffff16815260200190815260200160002060008473ffffffffffffffffffffffffffffffffffffffff1673ffffffffffffffffffffffffffffffffffffffff16815260200190815260200160002060006101000a81548160ff0219169083151502179055508173ffffffffffffffffffffffffffffffffffffffff168373ffffffffffffffffffffffffffffffffffffffff167f17307eab39ab6107e8899845ad3d59bd9653f200f220920489ca2b5937696c3183604051611e4f9190612b49565b60405180910390a3505050565b611e67848484611553565b611e73848484846124ad565b611eb2576040517f08c379a0000000000000000000000000000000000000000000000000000000008152600401611ea9906140a6565b60405180910390fd5b50505050565b606060405180602001604052806000815250905090565b6060611eda826113b2565b6000611ee4611eb8565b90506000815111611f045760405180602001604052806000815250611f2f565b80611f0e84612634565b604051602001611f1f92919061383d565b6040516020818303038152906040525b915050919050565b60007f01ffc9a7000000000000000000000000000000000000000000000000000000007bffffffffffffffffffffffffffffffffffffffffffffffffffffffff1916827bffffffffffffffffffffffffffffffffffffffffffffffffffffffff1916149050919050565b60008073ffffffffffffffffffffffffffffffffffffffff16611fc383611bed565b73ffffffffffffffffffffffffffffffffffffffff1614159050919050565b600073ffffffffffffffffffffffffffffffffffffffff168473ffffffffffffffffffffffffffffffffffffffff161461228b57600a60008573ffffffffffffffffffffffffffffffffffffffff1673ffffffffffffffffffffffffffffffffffffffff16815260200190815260200160002060006009600085815260200190815260200160002060009054906101000a900460ff16600281111561208a57612089612f9c565b5b600281111561209c5761209b612f9c565b5b815260200190815260200160002060008154809291906120bb906140c6565b919050555060006001600c60008773ffffffffffffffffffffffffffffffffffffffff1673ffffffffffffffffffffffffffffffffffffffff1681526020019081526020016000208054905061211191906138f3565b90506000600d600085815260200190815260200160002054905081811461220c576000600c60008873ffffffffffffffffffffffffffffffffffffffff1673ffffffffffffffffffffffffffffffffffffffff1681526020019081526020016000208381548110612185576121846140ef565b5b9060005260206000200154905080600c60008973ffffffffffffffffffffffffffffffffffffffff1673ffffffffffffffffffffffffffffffffffffffff16815260200190815260200160002083815481106121e4576121e36140ef565b5b906000526020600020018190555081600d600083815260200190815260200160002081905550505b600c60008773ffffffffffffffffffffffffffffffffffffffff1673ffffffffffffffffffffffffffffffffffffffff16815260200190815260200160002080548061225b5761225a61411e565b5b60019003818190600052602060002001600090559055600d60008581526020019081526020016000206000905550505b600073ffffffffffffffffffffffffffffffffffffffff168373ffffffffffffffffffffffffffffffffffffffff161461242a57600a60008473ffffffffffffffffffffffffffffffffffffffff1673ffffffffffffffffffffffffffffffffffffffff16815260200190815260200160002060006009600085815260200190815260200160002060009054906101000a900460ff16600281111561233357612332612f9c565b5b600281111561234557612344612f9c565b5b815260200190815260200160002060008154809291906123649061414d565b9190505550600c60008473ffffffffffffffffffffffffffffffffffffffff1673ffffffffffffffffffffffffffffffffffffffff16815260200190815260200160002080549050600d600084815260200190815260200160002081905550600c60008473ffffffffffffffffffffffffffffffffffffffff1673ffffffffffffffffffffffffffffffffffffffff1681526020019081526020016000208290806001815401808255809150506001900390600052602060002001600090919091909150555b50505050565b50505050565b600080821215612449576000905061244d565b8190505b919050565b61245c8383612702565b61246960008484846124ad565b6124a8576040517f08c379a000000000000000000000000000000000000000000000000000000000815260040161249f906140a6565b60405180910390fd5b505050565b60006124ce8473ffffffffffffffffffffffffffffffffffffffff1661291f565b15612627578373ffffffffffffffffffffffffffffffffffffffff1663150b7a026124f76113fd565b8786866040518563ffffffff1660e01b815260040161251994939291906141ea565b6020604051808303816000875af192505050801561255557506040513d601f19601f82011682018060405250810190612552919061424b565b60015b6125d7573d8060008114612585576040519150601f19603f3d011682016040523d82523d6000602084013e61258a565b606091505b5060008151036125cf576040517f08c379a00000000000000000000000000000000000000000000000000000000081526004016125c6906140a6565b60405180910390fd5b805181602001fd5b63150b7a0260e01b7bffffffffffffffffffffffffffffffffffffffffffffffffffffffff1916817bffffffffffffffffffffffffffffffffffffffffffffffffffffffff19161491505061262c565b600190505b949350505050565b60606000600161264384612942565b01905060008167ffffffffffffffff81111561266257612661613038565b5b6040519080825280601f01601f1916602001820160405280156126945781602001600182028036833780820191505090505b509050600082602001820190505b6001156126f7578080600190039150507f3031323334353637383961626364656600000000000000000000000000000000600a86061a8153600a85816126eb576126ea613ac1565b5b049450600085036126a2575b819350505050919050565b600073ffffffffffffffffffffffffffffffffffffffff168273ffffffffffffffffffffffffffffffffffffffff1603612771576040517f08c379a0000000000000000000000000000000000000000000000000000000008152600401612768906142c4565b60405180910390fd5b61277a81611fa1565b156127ba576040517f08c379a00000000000000000000000000000000000000000000000000000000081526004016127b190614330565b60405180910390fd5b6127c8600083836001611fe2565b6127d181611fa1565b15612811576040517f08c379a000000000000000000000000000000000000000000000000000000000815260040161280890614330565b60405180910390fd5b6001600360008473ffffffffffffffffffffffffffffffffffffffff1673ffffffffffffffffffffffffffffffffffffffff16815260200190815260200160002060008282540192505081905550816002600083815260200190815260200160002060006101000a81548173ffffffffffffffffffffffffffffffffffffffff021916908373ffffffffffffffffffffffffffffffffffffffff160217905550808273ffffffffffffffffffffffffffffffffffffffff16600073ffffffffffffffffffffffffffffffffffffffff167fddf252ad1be2c89b69c2b068fc378daa952ba7f163c4a11628f55a4df523b3ef60405160405180910390a461291b600083836001612430565b5050565b6000808273ffffffffffffffffffffffffffffffffffffffff163b119050919050565b600080600090507a184f03e93ff9f4daa797ed6e38ed64bf6a1f01000000000000000083106129a0577a184f03e93ff9f4daa797ed6e38ed64bf6a1f010000000000000000838161299657612995613ac1565b5b0492506040810190505b6d04ee2d6d415b85acef810000000083106129dd576d04ee2d6d415b85acef810000000083816129d3576129d2613ac1565b5b0492506020810190505b662386f26fc100008310612a0c57662386f26fc100008381612a0257612a01613ac1565b5b0492506010810190505b6305f5e1008310612a35576305f5e1008381612a2b57612a2a613ac1565b5b0492506008810190505b6127108310612a5a576127108381612a5057612a4f613ac1565b5b0492506004810190505b60648310612a7d5760648381612a7357612a72613ac1565b5b0492506002810190505b600a8310612a8c576001810190505b80915050919050565b6000604051905090565b600080fd5b600080fd5b60007fffffffff0000000000000000000000000000000000000000000000000000000082169050919050565b612ade81612aa9565b8114612ae957600080fd5b50565b600081359050612afb81612ad5565b92915050565b600060208284031215612b1757612b16612a9f565b5b6000612b2584828501612aec565b91505092915050565b60008115159050919050565b612b4381612b2e565b82525050565b6000602082019050612b5e6000830184612b3a565b92915050565b600073ffffffffffffffffffffffffffffffffffffffff82169050919050565b6000612b8f82612b64565b9050919050565b612b9f81612b84565b8114612baa57600080fd5b50565b600081359050612bbc81612b96565b92915050565b600060208284031215612bd857612bd7612a9f565b5b6000612be684828501612bad565b91505092915050565b6000819050919050565b612c0281612bef565b82525050565b6000602082019050612c1d6000830184612bf9565b92915050565b600081519050919050565b600082825260208201905092915050565b60005b83811015612c5d578082015181840152602081019050612c42565b60008484015250505050565b6000601f19601f8301169050919050565b6000612c8582612c23565b612c8f8185612c2e565b9350612c9f818560208601612c3f565b612ca881612c69565b840191505092915050565b60006020820190508181036000830152612ccd8184612c7a565b905092915050565b612cde81612bef565b8114612ce957600080fd5b50565b600081359050612cfb81612cd5565b92915050565b600060208284031215612d1757612d16612a9f565b5b6000612d2584828501612cec565b91505092915050565b612d3781612b84565b82525050565b6000602082019050612d526000830184612d2e565b92915050565b60008060408385031215612d6f57612d6e612a9f565b5b6000612d7d85828601612bad565b9250506020612d8e85828601612cec565b9150509250929050565b600080600060608486031215612db157612db0612a9f565b5b6000612dbf86828701612bad565b9350506020612dd086828701612bad565b9250506040612de186828701612cec565b9150509250925092565b60038110612df857600080fd5b50565b600081359050612e0a81612deb565b92915050565b60008060408385031215612e2757612e26612a9f565b5b6000612e3585828601612bad565b9250506020612e4685828601612dfb565b9150509250929050565b600081519050919050565b600082825260208201905092915050565b6000819050602082019050919050565b612e8581612bef565b82525050565b6000612e978383612e7c565b60208301905092915050565b6000602082019050919050565b6000612ebb82612e50565b612ec58185612e5b565b9350612ed083612e6c565b8060005b83811015612f01578151612ee88882612e8b565b9750612ef383612ea3565b925050600181019050612ed4565b5085935050505092915050565b60006020820190508181036000830152612f288184612eb0565b905092915050565b612f3981612b2e565b8114612f4457600080fd5b50565b600081359050612f5681612f30565b92915050565b60008060408385031215612f7357612f72612a9f565b5b6000612f8185828601612bad565b9250506020612f9285828601612f47565b9150509250929050565b7f4e487b7100000000000000000000000000000000000000000000000000000000600052602160045260246000fd5b60038110612fdc57612fdb612f9c565b5b50565b6000819050612fed82612fcb565b919050565b6000612ffd82612fdf565b9050919050565b61300d81612ff2565b82525050565b60006020820190506130286000830184613004565b92915050565b600080fd5b600080fd5b7f4e487b7100000000000000000000000000000000000000000000000000000000600052604160045260246000fd5b61307082612c69565b810181811067ffffffffffffffff8211171561308f5761308e613038565b5b80604052505050565b60006130a2612a95565b90506130ae8282613067565b919050565b600067ffffffffffffffff8211156130ce576130cd613038565b5b6130d782612c69565b9050602081019050919050565b82818337600083830152505050565b6000613106613101846130b3565b613098565b90508281526020810184848401111561312257613121613033565b5b61312d8482856130e4565b509392505050565b600082601f83011261314a5761314961302e565b5b813561315a8482602086016130f3565b91505092915050565b6000806000806080858703121561317d5761317c612a9f565b5b600061318b87828801612bad565b945050602061319c87828801612bad565b93505060406131ad87828801612cec565b925050606085013567ffffffffffffffff8111156131ce576131cd612aa4565b5b6131da87828801613135565b91505092959194509250565b600080604083850312156131fd576131fc612a9f565b5b600061320b85828601612bad565b925050602061321c85828601612bad565b9150509250929050565b7f4e487b7100000000000000000000000000000000000000000000000000000000600052602260045260246000fd5b6000600282049050600182168061326d57607f821691505b6020821081036132805761327f613226565b5b50919050565b7f4552433732313a20617070726f76616c20746f2063757272656e74206f776e6560008201527f7200000000000000000000000000000000000000000000000000000000000000602082015250565b60006132e2602183612c2e565b91506132ed82613286565b604082019050919050565b60006020820190508181036000830152613311816132d5565b9050919050565b7f4552433732313a20617070726f76652063616c6c6572206973206e6f7420746f60008201527f6b656e206f776e6572206f7220617070726f76656420666f7220616c6c000000602082015250565b6000613374603d83612c2e565b915061337f82613318565b604082019050919050565b600060208201905081810360008301526133a381613367565b9050919050565b7f4552433732313a2063616c6c6572206973206e6f7420746f6b656e206f776e6560008201527f72206f7220617070726f76656400000000000000000000000000000000000000602082015250565b6000613406602d83612c2e565b9150613411826133aa565b604082019050919050565b60006020820190508181036000830152613435816133f9565b9050919050565b7f416d6f756e74206d757374206265206265747765656e20312e3220616e64203660008201527f2e3520746f6b656e7320287363616c6564206279203130290000000000000000602082015250565b6000613498603883612c2e565b91506134a38261343c565b604082019050919050565b600060208201905081810360008301526134c78161348b565b9050919050565b7f4e487b7100000000000000000000000000000000000000000000000000000000600052601160045260246000fd5b600061350882612bef565b915061351383612bef565b925082820261352181612bef565b91508282048414831517613538576135376134ce565b5b5092915050565b7f4e6f7420656e6f7567682070617263656c7320746f206d696e74206d6f72652060008201527f7472656573000000000000000000000000000000000000000000000000000000602082015250565b600061359b602583612c2e565b91506135a68261353f565b604082019050919050565b600060208201905081810360008301526135ca8161358e565b9050919050565b7f4552433732313a20696e76616c696420746f6b656e2049440000000000000000600082015250565b6000613607601883612c2e565b9150613612826135d1565b602082019050919050565b60006020820190508181036000830152613636816135fa565b9050919050565b7f4552433732313a2061646472657373207a65726f206973206e6f74206120766160008201527f6c6964206f776e65720000000000000000000000000000000000000000000000602082015250565b6000613699602983612c2e565b91506136a48261363d565b604082019050919050565b600060208201905081810360008301526136c88161368c565b9050919050565b7f4164646974696f6e616c2070617263656c73206d75737420626520677265617460008201527f6572207468616e20300000000000000000000000000000000000000000000000602082015250565b600061372b602983612c2e565b9150613736826136cf565b604082019050919050565b6000602082019050818103600083015261375a8161371e565b9050919050565b600061376c82612bef565b915061377783612bef565b925082820190508082111561378f5761378e6134ce565b5b92915050565b7f50617263656c73206d7573742062652067726561746572207468616e20300000600082015250565b60006137cb601e83612c2e565b91506137d682613795565b602082019050919050565b600060208201905081810360008301526137fa816137be565b9050919050565b600081905092915050565b600061381782612c23565b6138218185613801565b9350613831818560208601612c3f565b80840191505092915050565b6000613849828561380c565b9150613855828461380c565b91508190509392505050565b7f4f776e61626c653a206e6577206f776e657220697320746865207a65726f206160008201527f6464726573730000000000000000000000000000000000000000000000000000602082015250565b60006138bd602683612c2e565b91506138c882613861565b604082019050919050565b600060208201905081810360008301526138ec816138b0565b9050919050565b60006138fe82612bef565b915061390983612bef565b9250828203905081811115613921576139206134ce565b5b92915050565b7f4552433732313a207472616e736665722066726f6d20696e636f72726563742060008201527f6f776e6572000000000000000000000000000000000000000000000000000000602082015250565b6000613983602583612c2e565b915061398e82613927565b604082019050919050565b600060208201905081810360008301526139b281613976565b9050919050565b7f4552433732313a207472616e7366657220746f20746865207a65726f2061646460008201527f7265737300000000000000000000000000000000000000000000000000000000602082015250565b6000613a15602483612c2e565b9150613a20826139b9565b604082019050919050565b60006020820190508181036000830152613a4481613a08565b9050919050565b7f4f776e61626c653a2063616c6c6572206973206e6f7420746865206f776e6572600082015250565b6000613a81602083612c2e565b9150613a8c82613a4b565b602082019050919050565b60006020820190508181036000830152613ab081613a74565b9050919050565b6000819050919050565b7f4e487b7100000000000000000000000000000000000000000000000000000000600052601260045260246000fd5b6000613afb82613ab7565b9150613b0683613ab7565b925082613b1657613b15613ac1565b5b600160000383147f800000000000000000000000000000000000000000000000000000000000000083141615613b4f57613b4e6134ce565b5b828205905092915050565b6000613b6582613ab7565b9150613b7083613ab7565b9250828203905081811260008412168282136000851215161715613b9757613b966134ce565b5b92915050565b6000613ba882613ab7565b9150613bb383613ab7565b925082820190508281121560008312168382126000841215161715613bdb57613bda6134ce565b5b92915050565b6000819050919050565b613bfc613bf782612bef565b613be1565b82525050565b60008160601b9050919050565b6000613c1a82613c02565b9050919050565b6000613c2c82613c0f565b9050919050565b613c44613c3f82612b84565b613c21565b82525050565b6000613c568286613beb565b602082019150613c668285613beb565b602082019150613c768284613c33565b601482019150819050949350505050565b6000613c9282612bef565b9150613c9d83612bef565b925082613cad57613cac613ac1565b5b828206905092915050565b7f45524337323155524953746f726167653a2055524920736574206f66206e6f6e60008201527f6578697374656e7420746f6b656e000000000000000000000000000000000000602082015250565b6000613d14602e83612c2e565b9150613d1f82613cb8565b604082019050919050565b60006020820190508181036000830152613d4381613d07565b9050919050565b60008190508160005260206000209050919050565b60006020601f8301049050919050565b600082821b905092915050565b600060088302613dac7fffffffffffffffffffffffffffffffffffffffffffffffffffffffffffffffff82613d6f565b613db68683613d6f565b95508019841693508086168417925050509392505050565b6000819050919050565b6000613df3613dee613de984612bef565b613dce565b612bef565b9050919050565b6000819050919050565b613e0d83613dd8565b613e21613e1982613dfa565b848454613d7c565b825550505050565b600090565b613e36613e29565b613e41818484613e04565b505050565b5b81811015613e6557613e5a600082613e2e565b600181019050613e47565b5050565b601f821115613eaa57613e7b81613d4a565b613e8484613d5f565b81016020851015613e93578190505b613ea7613e9f85613d5f565b830182613e46565b50505b505050565b600082821c905092915050565b6000613ecd60001984600802613eaf565b1980831691505092915050565b6000613ee68383613ebc565b9150826002028217905092915050565b613eff82612c23565b67ffffffffffffffff811115613f1857613f17613038565b5b613f228254613255565b613f2d828285613e69565b600060209050601f831160018114613f605760008415613f4e578287015190505b613f588582613eda565b865550613fc0565b601f198416613f6e86613d4a565b60005b82811015613f9657848901518255600182019150602085019450602081019050613f71565b86831015613fb35784890151613faf601f891682613ebc565b8355505b6001600288020188555050505b505050505050565b7f4552433732313a20617070726f766520746f2063616c6c657200000000000000600082015250565b6000613ffe601983612c2e565b915061400982613fc8565b602082019050919050565b6000602082019050818103600083015261402d81613ff1565b9050919050565b7f4552433732313a207472616e7366657220746f206e6f6e20455243373231526560008201527f63656976657220696d706c656d656e7465720000000000000000000000000000602082015250565b6000614090603283612c2e565b915061409b82614034565b604082019050919050565b600060208201905081810360008301526140bf81614083565b9050919050565b60006140d182612bef565b9150600082036140e4576140e36134ce565b5b600182039050919050565b7f4e487b7100000000000000000000000000000000000000000000000000000000600052603260045260246000fd5b7f4e487b7100000000000000000000000000000000000000000000000000000000600052603160045260246000fd5b600061415882612bef565b91507fffffffffffffffffffffffffffffffffffffffffffffffffffffffffffffffff820361418a576141896134ce565b5b600182019050919050565b600081519050919050565b600082825260208201905092915050565b60006141bc82614195565b6141c681856141a0565b93506141d6818560208601612c3f565b6141df81612c69565b840191505092915050565b60006080820190506141ff6000830187612d2e565b61420c6020830186612d2e565b6142196040830185612bf9565b818103606083015261422b81846141b1565b905095945050505050565b60008151905061424581612ad5565b92915050565b60006020828403121561426157614260612a9f565b5b600061426f84828501614236565b91505092915050565b7f4552433732313a206d696e7420746f20746865207a65726f2061646472657373600082015250565b60006142ae602083612c2e565b91506142b982614278565b602082019050919050565b600060208201905081810360008301526142dd816142a1565b9050919050565b7f4552433732313a20746f6b656e20616c7265616479206d696e74656400000000600082015250565b600061431a601c83612c2e565b9150614325826142e4565b602082019050919050565b600060208201905081810360008301526143498161430d565b905091905056fe697066733a2f2f516d6270327035324166426e7173315641796444447650646461566a6e317a7566754775536679384a35734c4763697066733a2f2f516d55526d6d4c346e6245576b3546513739716e416f7a694e75524d50436f5664437563646f5839503246515857697066733a2f2f516d4e6136677a68656b45674548316f6f76375561356a505470394650776658355741325834346b6b7377684467a26469706673582212206b0ab52d1cd1f1461b9387f9fe9622cb5a8a66c5d132cc3ee1baa2f89214979964736f6c634300081c0033",
  "linkReferences": {},
  "deployedLinkReferences": {}
}