{
  "_format": "hh-sol-artifact-1",
  "contractName": "ForestToken",
  "sourceName": "contracts/ForestToken.sol",
  "abi": [
    {
      "inputs": [],
      "stateMutability": "nonpayable",
      "type": "constructor"
    },
    {
      "anonymous": false,
      "inputs": [
        {
          "indexed": true,
          "internalType": "address",
          "name": "owner",
          "type": "address"
        },
        {
          "indexed": true,
          "internalType": "address",
          "name": "spender",
          "type": "address"
        },
        {
          "indexed": false,
          "internalType": "uint256",
          "name": "value",
          "type": "uint256"
        }
      ],
      "name": "Approval",
      "type": "event"
    },
    {
      "anonymous": false,
      "inputs": [
        {
          "indexed": true,
          "internalType": "address",
          "name": "previousOwner",
          "type": "address"
        },
        {
          "indexed": true,
          "internalType": "address",
          "name": "newOwner",
          "type": "address"
        }
      ],
      "name": "OwnershipTransferred",
      "type": "event"
    },
    {
      "anonymous": false,
      "inputs": [
        {
          "indexed": false,
          "internalType": "uint256",
          "name": "amount",
          "type": "uint256"
        }
      ],
      "name": "TokensMinted",
      "type": "event"
    },
    {
      "anonymous": false,
      "inputs": [
        {
          "indexed": true,
          "internalType": "address",
          "name": "from",
          "type": "address"
        },
        {
          "indexed": true,
          "internalType": "address",
          "name": "to",
          "type": "address"
        },
        {
          "indexed": false,
          "internalType": "uint256",
          "name": "value",
          "type": "uint256"
        }
      ],
      "name": "Transfer",
      "type": "event"
    },
    {
      "anonymous": false,
      "inputs": [
        {
          "indexed": true,
          "internalType": "address",
          "name": "from",
          "type": "address"
        },
        {
          "indexed": false,
          "internalType": "uint256",
          "name": "amount",
          "type": "uint256"
        }
      ],
      "name": "VirtualBurn",
      "type": "event"
    },
    {
      "anonymous": false,
      "inputs": [
        {
          "indexed": true,
          "internalType": "address",
          "name": "from",
          "type": "address"
        },
        {
          "indexed": true,
          "internalType": "address",
          "name": "to",
          "type": "address"
        },
        {
          "indexed": false,
          "internalType": "uint256",
          "name": "amount",
          "type": "uint256"
        }
      ],
      "name": "VirtualTransfer",
      "type": "event"
    },
    {
      "anonymous": false,
      "inputs": [
        {
          "indexed": true,
          "internalType": "address",
          "name": "from",
          "type": "address"
        },
        {
          "indexed": true,
          "internalType": "address",
          "name": "to",
          "type": "address"
        },
        {
          "indexed": false,
          "internalType": "uint256",
          "name": "amount",
          "type": "uint256"
        },
        {
          "indexed": false,
          "internalType": "uint256",
          "name": "fee",
          "type": "uint256"
        }
      ],
      "name": "Withdrawal",
      "type": "event"
    },
    {
      "inputs": [],
      "name": "FEE_PERCENTAGE",
      "outputs": [
        {
          "internalType": "uint256",
          "name": "",
          "type": "uint256"
        }
      ],
      "stateMutability": "view",
      "type": "function"
    },
    {
      "inputs": [],
      "name": "INITIAL_REWARD",
      "outputs": [
        {
          "internalType": "uint256",
          "name": "",
          "type": "uint256"
        }
      ],
      "stateMutability": "view",
      "type": "function"
    },
    {
      "inputs": [
        {
          "internalType": "address",
          "name": "owner",
          "type": "address"
        },
        {
          "internalType": "address",
          "name": "spender",
          "type": "address"
        }
      ],
      "name": "allowance",
      "outputs": [
        {
          "internalType": "uint256",
          "name": "",
          "type": "uint256"
        }
      ],
      "stateMutability": "view",
      "type": "function"
    },
    {
      "inputs": [
        {
          "internalType": "address",
          "name": "spender",
          "type": "address"
        },
        {
          "internalType": "uint256",
          "name": "amount",
          "type": "uint256"
        }
      ],
      "name": "approve",
      "outputs": [
        {
          "internalType": "bool",
          "name": "",
          "type": "bool"
        }
      ],
      "stateMutability": "nonpayable",
      "type": "function"
    },
    {
      "inputs": [
        {
          "internalType": "address",
          "name": "account",
          "type": "address"
        }
      ],
      "name": "balanceOf",
      "outputs": [
        {
          "internalType": "uint256",
          "name": "",
          "type": "uint256"
        }
      ],
      "stateMutability": "view",
      "type": "function"
    },
    {
      "inputs": [
        {
          "internalType": "uint256",
          "name": "amount",
          "type": "uint256"
        }
      ],
      "name": "burn",
      "outputs": [],
      "stateMutability": "nonpayable",
      "type": "function"
    },
    {
      "inputs": [
        {
          "internalType": "uint256",
          "name": "amount",
          "type": "uint256"
        }
      ],
      "name": "burnFromContract",
      "outputs": [],
      "stateMutability": "nonpayable",
      "type": "function"
    },
    {
      "inputs": [
        {
          "internalType": "address",
          "name": "to",
          "type": "address"
        }
      ],
      "name": "claimInitialReward",
      "outputs": [],
      "stateMutability": "nonpayable",
      "type": "function"
    },
    {
      "inputs": [
        {
          "internalType": "address",
          "name": "to",
          "type": "address"
        },
        {
          "internalType": "uint256",
          "name": "amount",
          "type": "uint256"
        }
      ],
      "name": "claimStaking",
      "outputs": [],
      "stateMutability": "nonpayable",
      "type": "function"
    },
    {
      "inputs": [],
      "name": "decimals",
      "outputs": [
        {
          "internalType": "uint8",
          "name": "",
          "type": "uint8"
        }
      ],
      "stateMutability": "view",
      "type": "function"
    },
    {
      "inputs": [
        {
          "internalType": "address",
          "name": "spender",
          "type": "address"
        },
        {
          "internalType": "uint256",
          "name": "subtractedValue",
          "type": "uint256"
        }
      ],
      "name": "decreaseAllowance",
      "outputs": [
        {
          "internalType": "bool",
          "name": "",
          "type": "bool"
        }
      ],
      "stateMutability": "nonpayable",
      "type": "function"
    },
    {
      "inputs": [
        {
          "internalType": "uint256",
          "name": "amount",
          "type": "uint256"
        }
      ],
      "name": "deposit",
      "outputs": [],
      "stateMutability": "nonpayable",
      "type": "function"
    },
    {
      "inputs": [
        {
          "internalType": "address",
          "name": "",
          "type": "address"
        }
      ],
      "name": "hasClaimedReward",
      "outputs": [
        {
          "internalType": "bool",
          "name": "",
          "type": "bool"
        }
      ],
      "stateMutability": "view",
      "type": "function"
    },
    {
      "inputs": [
        {
          "internalType": "address",
          "name": "spender",
          "type": "address"
        },
        {
          "internalType": "uint256",
          "name": "addedValue",
          "type": "uint256"
        }
      ],
      "name": "increaseAllowance",
      "outputs": [
        {
          "internalType": "bool",
          "name": "",
          "type": "bool"
        }
      ],
      "stateMutability": "nonpayable",
      "type": "function"
    },
    {
      "inputs": [
        {
          "internalType": "uint256",
          "name": "amount",
          "type": "uint256"
        }
      ],
      "name": "mint",
      "outputs": [],
      "stateMutability": "nonpayable",
      "type": "function"
    },
    {
      "inputs": [],
      "name": "name",
      "outputs": [
        {
          "internalType": "string",
          "name": "",
          "type": "string"
        }
      ],
      "stateMutability": "view",
      "type": "function"
    },
    {
      "inputs": [],
      "name": "owner",
      "outputs": [
        {
          "internalType": "address",
          "name": "",
          "type": "address"
        }
      ],
      "stateMutability": "view",
      "type": "function"
    },
    {
      "inputs": [
        {
          "internalType": "address",
          "name": "from",
          "type": "address"
        },
        {
          "internalType": "uint256",
          "name": "amount",
          "type": "uint256"
        }
      ],
      "name": "reduceBalance",
      "outputs": [],
      "stateMutability": "nonpayable",
      "type": "function"
    },
    {
      "inputs": [],
      "name": "renounceOwnership",
      "outputs": [],
      "stateMutability": "nonpayable",
      "type": "function"
    },
    {
      "inputs": [],
      "name": "symbol",
      "outputs": [
        {
          "internalType": "string",
          "name": "",
          "type": "string"
        }
      ],
      "stateMutability": "view",
      "type": "function"
    },
    {
      "inputs": [],
      "name": "totalSupply",
      "outputs": [
        {
          "internalType": "uint256",
          "name": "",
          "type": "uint256"
        }
      ],
      "stateMutability": "view",
      "type": "function"
    },
    {
      "inputs": [
        {
          "internalType": "address",
          "name": "to",
          "type": "address"
        },
        {
          "internalType": "uint256",
          "name": "amount",
          "type": "uint256"
        }
      ],
      "name": "transfer",
      "outputs": [
        {
          "internalType": "bool",
          "name": "",
          "type": "bool"
        }
      ],
      "stateMutability": "nonpayable",
      "type": "function"
    },
    {
      "inputs": [
        {
          "internalType": "address",
          "name": "from",
          "type": "address"
        },
        {
          "internalType": "address",
          "name": "to",
          "type": "address"
        },
        {
          "internalType": "uint256",
          "name": "amount",
          "type": "uint256"
        }
      ],
      "name": "transferFrom",
      "outputs": [
        {
          "internalType": "bool",
          "name": "",
          "type": "bool"
        }
      ],
      "stateMutability": "nonpayable",
      "type": "function"
    },
    {
      "inputs": [
        {
          "internalType": "address",
          "name": "newOwner",
          "type": "address"
        }
      ],
      "name": "transferOwnership",
      "outputs": [],
      "stateMutability": "nonpayable",
      "type": "function"
    },
    {
      "inputs": [
        {
          "internalType": "address",
          "name": "",
          "type": "address"
        }
      ],
      "name": "virtualBalance",
      "outputs": [
        {
          "internalType": "uint256",
          "name": "",
          "type": "uint256"
        }
      ],
      "stateMutability": "view",
      "type": "function"
    },
    {
      "inputs": [
        {
          "internalType": "address",
          "name": "from",
          "type": "address"
        },
        {
          "internalType": "uint256",
          "name": "amount",
          "type": "uint256"
        }
      ],
      "name": "virtualBurn",
      "outputs": [],
      "stateMutability": "nonpayable",
      "type": "function"
    },
    {
      "inputs": [
        {
          "internalType": "address",
          "name": "from",
          "type": "address"
        },
        {
          "internalType": "address",
          "name": "to",
          "type": "address"
        },
        {
          "internalType": "uint256",
          "name": "amount",
          "type": "uint256"
        }
      ],
      "name": "virtualTransfer",
      "outputs": [],
      "stateMutability": "nonpayable",
      "type": "function"
    },
    {
      "inputs": [
        {
          "internalType": "address",
          "name": "to",
          "type": "address"
        },
        {
          "internalType": "uint256",
          "name": "amount",
          "type": "uint256"
        }
      ],
      "name": "withdraw",
      "outputs": [],
      "stateMutability": "nonpayable",
      "type": "function"
    }
  ],
  "bytecode": "0x608060405234801561001057600080fd5b506040518060400160405280600c81526020017f466f7265737420546f6b656e00000000000000000000000000000000000000008152506040518060400160405280600681526020017f464f524553540000000000000000000000000000000000000000000000000000815250816003908161008c91906106bb565b50806004908161009c91906106bb565b5050506100bb6100b061022860201b60201c565b61023060201b60201c565b6100f2336100cd6102f660201b60201c565b600a6100d991906108fc565b620f42406100e79190610947565b6102ff60201b60201c565b6101006102f660201b60201c565b600a61010c91906108fc565b620f424061011a9190610947565b600760003373ffffffffffffffffffffffffffffffffffffffff1673ffffffffffffffffffffffffffffffffffffffff16815260200190815260200160002060008282546101689190610989565b925050819055506101a6306101816102f660201b60201c565b600a61018d91906108fc565b620f424061019b9190610947565b6102ff60201b60201c565b6101b46102f660201b60201c565b600a6101c091906108fc565b620f42406101ce9190610947565b600760003073ffffffffffffffffffffffffffffffffffffffff1673ffffffffffffffffffffffffffffffffffffffff168152602001908152602001600020600082825461021c9190610989565b92505081905550610a64565b600033905090565b6000600560009054906101000a900473ffffffffffffffffffffffffffffffffffffffff16905081600560006101000a81548173ffffffffffffffffffffffffffffffffffffffff021916908373ffffffffffffffffffffffffffffffffffffffff1602179055508173ffffffffffffffffffffffffffffffffffffffff168173ffffffffffffffffffffffffffffffffffffffff167f8be0079c531659141344cd1fd0a4f28419497f9722a3daafe3b4186f6b6457e060405160405180910390a35050565b60006012905090565b600073ffffffffffffffffffffffffffffffffffffffff168273ffffffffffffffffffffffffffffffffffffffff160361036e576040517f08c379a000000000000000000000000000000000000000000000000000000000815260040161036590610a1a565b60405180910390fd5b6103806000838361046160201b60201c565b80600260008282546103929190610989565b92505081905550806000808473ffffffffffffffffffffffffffffffffffffffff1673ffffffffffffffffffffffffffffffffffffffff168152602001908152602001600020600082825401925050819055508173ffffffffffffffffffffffffffffffffffffffff16600073ffffffffffffffffffffffffffffffffffffffff167fddf252ad1be2c89b69c2b068fc378daa952ba7f163c4a11628f55a4df523b3ef836040516104439190610a49565b60405180910390a361045d6000838361046660201b60201c565b5050565b505050565b505050565b600081519050919050565b7f4e487b7100000000000000000000000000000000000000000000000000000000600052604160045260246000fd5b7f4e487b7100000000000000000000000000000000000000000000000000000000600052602260045260246000fd5b600060028204905060018216806104ec57607f821691505b6020821081036104ff576104fe6104a5565b5b50919050565b60008190508160005260206000209050919050565b60006020601f8301049050919050565b600082821b905092915050565b6000600883026105677fffffffffffffffffffffffffffffffffffffffffffffffffffffffffffffffff8261052a565b610571868361052a565b95508019841693508086168417925050509392505050565b6000819050919050565b6000819050919050565b60006105b86105b36105ae84610589565b610593565b610589565b9050919050565b6000819050919050565b6105d28361059d565b6105e66105de826105bf565b848454610537565b825550505050565b600090565b6105fb6105ee565b6106068184846105c9565b505050565b5b8181101561062a5761061f6000826105f3565b60018101905061060c565b5050565b601f82111561066f5761064081610505565b6106498461051a565b81016020851015610658578190505b61066c6106648561051a565b83018261060b565b50505b505050565b600082821c905092915050565b600061069260001984600802610674565b1980831691505092915050565b60006106ab8383610681565b9150826002028217905092915050565b6106c48261046b565b67ffffffffffffffff8111156106dd576106dc610476565b5b6106e782546104d4565b6106f282828561062e565b600060209050601f8311600181146107255760008415610713578287015190505b61071d858261069f565b865550610785565b601f19841661073386610505565b60005b8281101561075b57848901518255600182019150602085019450602081019050610736565b868310156107785784890151610774601f891682610681565b8355505b6001600288020188555050505b505050505050565b7f4e487b7100000000000000000000000000000000000000000000000000000000600052601160045260246000fd5b60008160011c9050919050565b6000808291508390505b6001851115610813578086048111156107ef576107ee61078d565b5b60018516156107fe5780820291505b808102905061080c856107bc565b94506107d3565b94509492505050565b60008261082c57600190506108e8565b8161083a57600090506108e8565b8160018114610850576002811461085a57610889565b60019150506108e8565b60ff84111561086c5761086b61078d565b5b8360020a9150848211156108835761088261078d565b5b506108e8565b5060208310610133831016604e8410600b84101617156108be5782820a9050838111156108b9576108b861078d565b5b6108e8565b6108cb84848460016107c9565b925090508184048111156108e2576108e161078d565b5b81810290505b9392505050565b600060ff82169050919050565b600061090782610589565b9150610912836108ef565b925061093f7fffffffffffffffffffffffffffffffffffffffffffffffffffffffffffffffff848461081c565b905092915050565b600061095282610589565b915061095d83610589565b925082820261096b81610589565b915082820484148315176109825761098161078d565b5b5092915050565b600061099482610589565b915061099f83610589565b92508282019050808211156109b7576109b661078d565b5b92915050565b600082825260208201905092915050565b7f45524332303a206d696e7420746f20746865207a65726f206164647265737300600082015250565b6000610a04601f836109bd565b9150610a0f826109ce565b602082019050919050565b60006020820190508181036000830152610a33816109f7565b9050919050565b610a4381610589565b82525050565b6000602082019050610a5e6000830184610a3a565b92915050565b612abb80610a736000396000f3fe608060405234801561001057600080fd5b50600436106101c35760003560e01c806389e5ae20116100f9578063b472790611610097578063f2fde38b11610071578063f2fde38b14610504578063f3fef3a314610520578063f5c46e411461053c578063fc8186841461056c576101c3565b8063b47279061461049c578063b6b55f25146104b8578063dd62ed3e146104d4576101c3565b8063a0712d68116100d3578063a0712d68146103f0578063a074696a1461040c578063a457c2d71461043c578063a9059cbb1461046c576101c3565b806389e5ae20146103985780638da5cb5b146103b457806395d89b41146103d2576101c3565b806336bcf7d61161016657806345f342721161014057806345f342721461032657806370a0823114610342578063715018a61461037257806372a2b90b1461037c576101c3565b806336bcf7d6146102bc57806339509351146102da57806342966c681461030a576101c3565b806318160ddd116101a257806318160ddd146102345780631aa158d91461025257806323b872dd1461026e578063313ce5671461029e576101c3565b80620b46f8146101c857806306fdde03146101e6578063095ea7b314610204575b600080fd5b6101d0610588565b6040516101dd9190611c23565b60405180910390f35b6101ee61058d565b6040516101fb9190611cce565b60405180910390f35b61021e60048036038101906102199190611d7f565b61061f565b60405161022b9190611dda565b60405180910390f35b61023c610642565b6040516102499190611c23565b60405180910390f35b61026c60048036038101906102679190611df5565b61064c565b005b61028860048036038101906102839190611e22565b61079b565b6040516102959190611dda565b60405180910390f35b6102a66107ca565b6040516102b39190611e91565b60405180910390f35b6102c46107d3565b6040516102d19190611c23565b60405180910390f35b6102f460048036038101906102ef9190611d7f565b6107e0565b6040516103019190611dda565b60405180910390f35b610324600480360381019061031f9190611eac565b610817565b005b610340600480360381019061033b9190611d7f565b610824565b005b61035c60048036038101906103579190611df5565b6109ab565b6040516103699190611c23565b60405180910390f35b61037a6109f3565b005b61039660048036038101906103919190611d7f565b610a07565b005b6103b260048036038101906103ad9190611e22565b610aac565b005b6103bc610c4c565b6040516103c99190611ee8565b60405180910390f35b6103da610c76565b6040516103e79190611cce565b60405180910390f35b61040a60048036038101906104059190611eac565b610d08565b005b61042660048036038101906104219190611df5565b610d54565b6040516104339190611dda565b60405180910390f35b61045660048036038101906104519190611d7f565b610d74565b6040516104639190611dda565b60405180910390f35b61048660048036038101906104819190611d7f565b610deb565b6040516104939190611dda565b60405180910390f35b6104b660048036038101906104b19190611d7f565b610e0e565b005b6104d260048036038101906104cd9190611eac565b610eb3565b005b6104ee60048036038101906104e99190611f03565b610fad565b6040516104fb9190611c23565b60405180910390f35b61051e60048036038101906105199190611df5565b611034565b005b61053a60048036038101906105359190611d7f565b6110b7565b005b61055660048036038101906105519190611df5565b611299565b6040516105639190611c23565b60405180910390f35b61058660048036038101906105819190611eac565b6112b1565b005b600581565b60606003805461059c90611f72565b80601f01602080910402602001604051908101604052809291908181526020018280546105c890611f72565b80156106155780601f106105ea57610100808354040283529160200191610615565b820191906000526020600020905b8154815290600101906020018083116105f857829003601f168201915b5050505050905090565b60008061062a6112c6565b90506106378185856112ce565b600191505092915050565b6000600254905090565b610654611497565b600660008273ffffffffffffffffffffffffffffffffffffffff1673ffffffffffffffffffffffffffffffffffffffff16815260200190815260200160002060009054906101000a900460ff16156106e1576040517f08c379a00000000000000000000000000000000000000000000000000000000081526004016106d890611fef565b60405180910390fd5b6001600660008373ffffffffffffffffffffffffffffffffffffffff1673ffffffffffffffffffffffffffffffffffffffff16815260200190815260200160002060006101000a81548160ff0219169083151502179055506801158e460913d00000600760008373ffffffffffffffffffffffffffffffffffffffff1673ffffffffffffffffffffffffffffffffffffffff1681526020019081526020016000206000828254610791919061203e565b9250508190555050565b6000806107a66112c6565b90506107b3858285611515565b6107be8585856115a1565b60019150509392505050565b60006012905090565b6801158e460913d0000081565b6000806107eb6112c6565b905061080c8185856107fd8589610fad565b610807919061203e565b6112ce565b600191505092915050565b6108213382611817565b50565b61082c611497565b80600760008473ffffffffffffffffffffffffffffffffffffffff1673ffffffffffffffffffffffffffffffffffffffff1681526020019081526020016000205410156108ae576040517f08c379a00000000000000000000000000000000000000000000000000000000081526004016108a5906120be565b60405180910390fd5b806108b8306109ab565b10156108f9576040517f08c379a00000000000000000000000000000000000000000000000000000000081526004016108f090612150565b60405180910390fd5b80600760008473ffffffffffffffffffffffffffffffffffffffff1673ffffffffffffffffffffffffffffffffffffffff16815260200190815260200160002060008282546109489190612170565b925050819055506109593082611817565b8173ffffffffffffffffffffffffffffffffffffffff167f0b32e9141ed76c4ab29fe0649befae8daaa48fda512fc899cd12e9068c25f18f8260405161099f9190611c23565b60405180910390a25050565b60008060008373ffffffffffffffffffffffffffffffffffffffff1673ffffffffffffffffffffffffffffffffffffffff168152602001908152602001600020549050919050565b6109fb611497565b610a0560006119e4565b565b610a0f611497565b60008111610a52576040517f08c379a0000000000000000000000000000000000000000000000000000000008152600401610a49906121f0565b60405180910390fd5b80600760008473ffffffffffffffffffffffffffffffffffffffff1673ffffffffffffffffffffffffffffffffffffffff1681526020019081526020016000206000828254610aa1919061203e565b925050819055505050565b610ab4611497565b80600760008573ffffffffffffffffffffffffffffffffffffffff1673ffffffffffffffffffffffffffffffffffffffff168152602001908152602001600020541015610b36576040517f08c379a0000000000000000000000000000000000000000000000000000000008152600401610b2d906120be565b60405180910390fd5b80600760008573ffffffffffffffffffffffffffffffffffffffff1673ffffffffffffffffffffffffffffffffffffffff1681526020019081526020016000206000828254610b859190612170565b9250508190555080600760008473ffffffffffffffffffffffffffffffffffffffff1673ffffffffffffffffffffffffffffffffffffffff1681526020019081526020016000206000828254610bdb919061203e565b925050819055508173ffffffffffffffffffffffffffffffffffffffff168373ffffffffffffffffffffffffffffffffffffffff167f722fb1b64a0366ad0f6cab15a7cce14dd4e8ad290b24e9a8d896ed21b5436a6883604051610c3f9190611c23565b60405180910390a3505050565b6000600560009054906101000a900473ffffffffffffffffffffffffffffffffffffffff16905090565b606060048054610c8590611f72565b80601f0160208091040260200160405190810160405280929190818152602001828054610cb190611f72565b8015610cfe5780601f10610cd357610100808354040283529160200191610cfe565b820191906000526020600020905b815481529060010190602001808311610ce157829003601f168201915b5050505050905090565b610d10611497565b610d1a3082611aaa565b7f772f66a00a405709c30e7f18feadcc8f123b20c09c7260165d3eec36c9f2137281604051610d499190611c23565b60405180910390a150565b60066020528060005260406000206000915054906101000a900460ff1681565b600080610d7f6112c6565b90506000610d8d8286610fad565b905083811015610dd2576040517f08c379a0000000000000000000000000000000000000000000000000000000008152600401610dc990612282565b60405180910390fd5b610ddf82868684036112ce565b60019250505092915050565b600080610df66112c6565b9050610e038185856115a1565b600191505092915050565b610e16611497565b60008111610e59576040517f08c379a0000000000000000000000000000000000000000000000000000000008152600401610e50906121f0565b60405180910390fd5b80600760008473ffffffffffffffffffffffffffffffffffffffff1673ffffffffffffffffffffffffffffffffffffffff1681526020019081526020016000206000828254610ea89190612170565b925050819055505050565b610ebb611497565b60008111610efe576040517f08c379a0000000000000000000000000000000000000000000000000000000008152600401610ef5906122ee565b60405180910390fd5b80610f08336109ab565b1015610f49576040517f08c379a0000000000000000000000000000000000000000000000000000000008152600401610f409061235a565b60405180910390fd5b610f543330836115a1565b80600760003373ffffffffffffffffffffffffffffffffffffffff1673ffffffffffffffffffffffffffffffffffffffff1681526020019081526020016000206000828254610fa3919061203e565b9250508190555050565b6000600160008473ffffffffffffffffffffffffffffffffffffffff1673ffffffffffffffffffffffffffffffffffffffff16815260200190815260200160002060008373ffffffffffffffffffffffffffffffffffffffff1673ffffffffffffffffffffffffffffffffffffffff16815260200190815260200160002054905092915050565b61103c611497565b600073ffffffffffffffffffffffffffffffffffffffff168173ffffffffffffffffffffffffffffffffffffffff16036110ab576040517f08c379a00000000000000000000000000000000000000000000000000000000081526004016110a2906123ec565b60405180910390fd5b6110b4816119e4565b50565b6110bf611497565b80600760008473ffffffffffffffffffffffffffffffffffffffff1673ffffffffffffffffffffffffffffffffffffffff168152602001908152602001600020541015611141576040517f08c379a0000000000000000000000000000000000000000000000000000000008152600401611138906120be565b60405180910390fd5b8061114b306109ab565b101561118c576040517f08c379a000000000000000000000000000000000000000000000000000000000815260040161118390612458565b60405180910390fd5b6000606460058361119d9190612478565b6111a791906124e9565b9050600081836111b79190612170565b905082600760008673ffffffffffffffffffffffffffffffffffffffff1673ffffffffffffffffffffffffffffffffffffffff16815260200190815260200160002060008282546112089190612170565b9250508190555061121a3085836115a1565b61122c30611226610c4c565b846115a1565b8373ffffffffffffffffffffffffffffffffffffffff168473ffffffffffffffffffffffffffffffffffffffff167fc2b4a290c20fb28939d29f102514fbffd2b73c059ffba8b78250c94161d5fcc6838560405161128b92919061251a565b60405180910390a350505050565b60076020528060005260406000206000915090505481565b6112b9611497565b6112c33082611817565b50565b600033905090565b600073ffffffffffffffffffffffffffffffffffffffff168373ffffffffffffffffffffffffffffffffffffffff160361133d576040517f08c379a0000000000000000000000000000000000000000000000000000000008152600401611334906125b5565b60405180910390fd5b600073ffffffffffffffffffffffffffffffffffffffff168273ffffffffffffffffffffffffffffffffffffffff16036113ac576040517f08c379a00000000000000000000000000000000000000000000000000000000081526004016113a390612647565b60405180910390fd5b80600160008573ffffffffffffffffffffffffffffffffffffffff1673ffffffffffffffffffffffffffffffffffffffff16815260200190815260200160002060008473ffffffffffffffffffffffffffffffffffffffff1673ffffffffffffffffffffffffffffffffffffffff168152602001908152602001600020819055508173ffffffffffffffffffffffffffffffffffffffff168373ffffffffffffffffffffffffffffffffffffffff167f8c5be1e5ebec7d5bd14f71427d1e84f3dd0314c0f7b2291e5b200ac8c7c3b9258360405161148a9190611c23565b60405180910390a3505050565b61149f6112c6565b73ffffffffffffffffffffffffffffffffffffffff166114bd610c4c565b73ffffffffffffffffffffffffffffffffffffffff1614611513576040517f08c379a000000000000000000000000000000000000000000000000000000000815260040161150a906126b3565b60405180910390fd5b565b60006115218484610fad565b90507fffffffffffffffffffffffffffffffffffffffffffffffffffffffffffffffff811461159b578181101561158d576040517f08c379a00000000000000000000000000000000000000000000000000000000081526004016115849061271f565b60405180910390fd5b61159a84848484036112ce565b5b50505050565b600073ffffffffffffffffffffffffffffffffffffffff168373ffffffffffffffffffffffffffffffffffffffff1603611610576040517f08c379a0000000000000000000000000000000000000000000000000000000008152600401611607906127b1565b60405180910390fd5b600073ffffffffffffffffffffffffffffffffffffffff168273ffffffffffffffffffffffffffffffffffffffff160361167f576040517f08c379a000000000000000000000000000000000000000000000000000000000815260040161167690612843565b60405180910390fd5b61168a838383611c00565b60008060008573ffffffffffffffffffffffffffffffffffffffff1673ffffffffffffffffffffffffffffffffffffffff16815260200190815260200160002054905081811015611710576040517f08c379a0000000000000000000000000000000000000000000000000000000008152600401611707906128d5565b60405180910390fd5b8181036000808673ffffffffffffffffffffffffffffffffffffffff1673ffffffffffffffffffffffffffffffffffffffff16815260200190815260200160002081905550816000808573ffffffffffffffffffffffffffffffffffffffff1673ffffffffffffffffffffffffffffffffffffffff168152602001908152602001600020600082825401925050819055508273ffffffffffffffffffffffffffffffffffffffff168473ffffffffffffffffffffffffffffffffffffffff167fddf252ad1be2c89b69c2b068fc378daa952ba7f163c4a11628f55a4df523b3ef846040516117fe9190611c23565b60405180910390a3611811848484611c05565b50505050565b600073ffffffffffffffffffffffffffffffffffffffff168273ffffffffffffffffffffffffffffffffffffffff1603611886576040517f08c379a000000000000000000000000000000000000000000000000000000000815260040161187d90612967565b60405180910390fd5b61189282600083611c00565b60008060008473ffffffffffffffffffffffffffffffffffffffff1673ffffffffffffffffffffffffffffffffffffffff16815260200190815260200160002054905081811015611918576040517f08c379a000000000000000000000000000000000000000000000000000000000815260040161190f906129f9565b60405180910390fd5b8181036000808573ffffffffffffffffffffffffffffffffffffffff1673ffffffffffffffffffffffffffffffffffffffff1681526020019081526020016000208190555081600260008282540392505081905550600073ffffffffffffffffffffffffffffffffffffffff168373ffffffffffffffffffffffffffffffffffffffff167fddf252ad1be2c89b69c2b068fc378daa952ba7f163c4a11628f55a4df523b3ef846040516119cb9190611c23565b60405180910390a36119df83600084611c05565b505050565b6000600560009054906101000a900473ffffffffffffffffffffffffffffffffffffffff16905081600560006101000a81548173ffffffffffffffffffffffffffffffffffffffff021916908373ffffffffffffffffffffffffffffffffffffffff1602179055508173ffffffffffffffffffffffffffffffffffffffff168173ffffffffffffffffffffffffffffffffffffffff167f8be0079c531659141344cd1fd0a4f28419497f9722a3daafe3b4186f6b6457e060405160405180910390a35050565b600073ffffffffffffffffffffffffffffffffffffffff168273ffffffffffffffffffffffffffffffffffffffff1603611b19576040517f08c379a0000000000000000000000000000000000000000000000000000000008152600401611b1090612a65565b60405180910390fd5b611b2560008383611c00565b8060026000828254611b37919061203e565b92505081905550806000808473ffffffffffffffffffffffffffffffffffffffff1673ffffffffffffffffffffffffffffffffffffffff168152602001908152602001600020600082825401925050819055508173ffffffffffffffffffffffffffffffffffffffff16600073ffffffffffffffffffffffffffffffffffffffff167fddf252ad1be2c89b69c2b068fc378daa952ba7f163c4a11628f55a4df523b3ef83604051611be89190611c23565b60405180910390a3611bfc60008383611c05565b5050565b505050565b505050565b6000819050919050565b611c1d81611c0a565b82525050565b6000602082019050611c386000830184611c14565b92915050565b600081519050919050565b600082825260208201905092915050565b60005b83811015611c78578082015181840152602081019050611c5d565b60008484015250505050565b6000601f19601f8301169050919050565b6000611ca082611c3e565b611caa8185611c49565b9350611cba818560208601611c5a565b611cc381611c84565b840191505092915050565b60006020820190508181036000830152611ce88184611c95565b905092915050565b600080fd5b600073ffffffffffffffffffffffffffffffffffffffff82169050919050565b6000611d2082611cf5565b9050919050565b611d3081611d15565b8114611d3b57600080fd5b50565b600081359050611d4d81611d27565b92915050565b611d5c81611c0a565b8114611d6757600080fd5b50565b600081359050611d7981611d53565b92915050565b60008060408385031215611d9657611d95611cf0565b5b6000611da485828601611d3e565b9250506020611db585828601611d6a565b9150509250929050565b60008115159050919050565b611dd481611dbf565b82525050565b6000602082019050611def6000830184611dcb565b92915050565b600060208284031215611e0b57611e0a611cf0565b5b6000611e1984828501611d3e565b91505092915050565b600080600060608486031215611e3b57611e3a611cf0565b5b6000611e4986828701611d3e565b9350506020611e5a86828701611d3e565b9250506040611e6b86828701611d6a565b9150509250925092565b600060ff82169050919050565b611e8b81611e75565b82525050565b6000602082019050611ea66000830184611e82565b92915050565b600060208284031215611ec257611ec1611cf0565b5b6000611ed084828501611d6a565b91505092915050565b611ee281611d15565b82525050565b6000602082019050611efd6000830184611ed9565b92915050565b60008060408385031215611f1a57611f19611cf0565b5b6000611f2885828601611d3e565b9250506020611f3985828601611d3e565b9150509250929050565b7f4e487b7100000000000000000000000000000000000000000000000000000000600052602260045260246000fd5b60006002820490506001821680611f8a57607f821691505b602082108103611f9d57611f9c611f43565b5b50919050565b7f5961207265636c616d61737465207475207265636f6d70656e73610000000000600082015250565b6000611fd9601b83611c49565b9150611fe482611fa3565b602082019050919050565b6000602082019050818103600083015261200881611fcc565b9050919050565b7f4e487b7100000000000000000000000000000000000000000000000000000000600052601160045260246000fd5b600061204982611c0a565b915061205483611c0a565b925082820190508082111561206c5761206b61200f565b5b92915050565b7f53616c646f207669727475616c20696e737566696369656e7465000000000000600082015250565b60006120a8601a83611c49565b91506120b382612072565b602082019050919050565b600060208201905081810360008301526120d78161209b565b9050919050565b7f436f6e747261746f2073696e20737566696369656e74657320746f6b656e732060008201527f70617261207175656d6172000000000000000000000000000000000000000000602082015250565b600061213a602b83611c49565b9150612145826120de565b604082019050919050565b600060208201905081810360008301526121698161212d565b9050919050565b600061217b82611c0a565b915061218683611c0a565b925082820390508181111561219e5761219d61200f565b5b92915050565b7f416d6f756e74206d7573742062652067726561746572207468616e2030000000600082015250565b60006121da601d83611c49565b91506121e5826121a4565b602082019050919050565b60006020820190508181036000830152612209816121cd565b9050919050565b7f45524332303a2064656372656173656420616c6c6f77616e63652062656c6f7760008201527f207a65726f000000000000000000000000000000000000000000000000000000602082015250565b600061226c602583611c49565b915061227782612210565b604082019050919050565b6000602082019050818103600083015261229b8161225f565b9050919050565b7f43616e7469646164206465626520736572206d61796f72206120300000000000600082015250565b60006122d8601b83611c49565b91506122e3826122a2565b602082019050919050565b60006020820190508181036000830152612307816122cb565b9050919050565b7f53616c646f20696e737566696369656e74650000000000000000000000000000600082015250565b6000612344601283611c49565b915061234f8261230e565b602082019050919050565b6000602082019050818103600083015261237381612337565b9050919050565b7f4f776e61626c653a206e6577206f776e657220697320746865207a65726f206160008201527f6464726573730000000000000000000000000000000000000000000000000000602082015250565b60006123d6602683611c49565b91506123e18261237a565b604082019050919050565b60006020820190508181036000830152612405816123c9565b9050919050565b7f436f6e747261746f2073696e20737566696369656e74657320746f6b656e7300600082015250565b6000612442601f83611c49565b915061244d8261240c565b602082019050919050565b6000602082019050818103600083015261247181612435565b9050919050565b600061248382611c0a565b915061248e83611c0a565b925082820261249c81611c0a565b915082820484148315176124b3576124b261200f565b5b5092915050565b7f4e487b7100000000000000000000000000000000000000000000000000000000600052601260045260246000fd5b60006124f482611c0a565b91506124ff83611c0a565b92508261250f5761250e6124ba565b5b828204905092915050565b600060408201905061252f6000830185611c14565b61253c6020830184611c14565b9392505050565b7f45524332303a20617070726f76652066726f6d20746865207a65726f2061646460008201527f7265737300000000000000000000000000000000000000000000000000000000602082015250565b600061259f602483611c49565b91506125aa82612543565b604082019050919050565b600060208201905081810360008301526125ce81612592565b9050919050565b7f45524332303a20617070726f766520746f20746865207a65726f20616464726560008201527f7373000000000000000000000000000000000000000000000000000000000000602082015250565b6000612631602283611c49565b915061263c826125d5565b604082019050919050565b6000602082019050818103600083015261266081612624565b9050919050565b7f4f776e61626c653a2063616c6c6572206973206e6f7420746865206f776e6572600082015250565b600061269d602083611c49565b91506126a882612667565b602082019050919050565b600060208201905081810360008301526126cc81612690565b9050919050565b7f45524332303a20696e73756666696369656e7420616c6c6f77616e6365000000600082015250565b6000612709601d83611c49565b9150612714826126d3565b602082019050919050565b60006020820190508181036000830152612738816126fc565b9050919050565b7f45524332303a207472616e736665722066726f6d20746865207a65726f20616460008201527f6472657373000000000000000000000000000000000000000000000000000000602082015250565b600061279b602583611c49565b91506127a68261273f565b604082019050919050565b600060208201905081810360008301526127ca8161278e565b9050919050565b7f45524332303a207472616e7366657220746f20746865207a65726f206164647260008201527f6573730000000000000000000000000000000000000000000000000000000000602082015250565b600061282d602383611c49565b9150612838826127d1565b604082019050919050565b6000602082019050818103600083015261285c81612820565b9050919050565b7f45524332303a207472616e7366657220616d6f756e742065786365656473206260008201527f616c616e63650000000000000000000000000000000000000000000000000000602082015250565b60006128bf602683611c49565b91506128ca82612863565b604082019050919050565b600060208201905081810360008301526128ee816128b2565b9050919050565b7f45524332303a206275726e2066726f6d20746865207a65726f2061646472657360008201527f7300000000000000000000000000000000000000000000000000000000000000602082015250565b6000612951602183611c49565b915061295c826128f5565b604082019050919050565b6000602082019050818103600083015261298081612944565b9050919050565b7f45524332303a206275726e20616d6f756e7420657863656564732062616c616e60008201527f6365000000000000000000000000000000000000000000000000000000000000602082015250565b60006129e3602283611c49565b91506129ee82612987565b604082019050919050565b60006020820190508181036000830152612a12816129d6565b9050919050565b7f45524332303a206d696e7420746f20746865207a65726f206164647265737300600082015250565b6000612a4f601f83611c49565b9150612a5a82612a19565b602082019050919050565b60006020820190508181036000830152612a7e81612a42565b905091905056fea264697066735822122019299576034ff7529f2f9ed74fe25351fa589a88731ebb533d52816a881f840a64736f6c634300081c0033",
  "linkReferences": {},
  "deployedLinkReferences": {}
}