{
  "_format": "hh-sol-artifact-1",
  "contractName": "ForestNFT",
  "sourceName": "contracts/ForestNFT.sol",
  "abi": [
    {
      "inputs": [],
      "stateMutability": "nonpayable",
      "type": "constructor"
    },
    {
      "anonymous": false,
      "inputs": [
        {
          "indexed": true,
          "internalType": "address",
          "name": "owner",
          "type": "address"
        },
        {
          "indexed": true,
          "internalType": "address",
          "name": "approved",
          "type": "address"
        },
        {
          "indexed": true,
          "internalType": "uint256",
          "name": "tokenId",
          "type": "uint256"
        }
      ],
      "name": "Approval",
      "type": "event"
    },
    {
      "anonymous": false,
      "inputs": [
        {
          "indexed": true,
          "internalType": "address",
          "name": "owner",
          "type": "address"
        },
        {
          "indexed": true,
          "internalType": "address",
          "name": "operator",
          "type": "address"
        },
        {
          "indexed": false,
          "internalType": "bool",
          "name": "approved",
          "type": "bool"
        }
      ],
      "name": "ApprovalForAll",
      "type": "event"
    },
    {
      "anonymous": false,
      "inputs": [
        {
          "indexed": false,
          "internalType": "uint256",
          "name": "_fromTokenId",
          "type": "uint256"
        },
        {
          "indexed": false,
          "internalType": "uint256",
          "name": "_toTokenId",
          "type": "uint256"
        }
      ],
      "name": "BatchMetadataUpdate",
      "type": "event"
    },
    {
      "anonymous": false,
      "inputs": [
        {
          "indexed": false,
          "internalType": "uint256",
          "name": "_tokenId",
          "type": "uint256"
        }
      ],
      "name": "MetadataUpdate",
      "type": "event"
    },
    {
      "anonymous": false,
      "inputs": [
        {
          "indexed": true,
          "internalType": "address",
          "name": "previousOwner",
          "type": "address"
        },
        {
          "indexed": true,
          "internalType": "address",
          "name": "newOwner",
          "type": "address"
        }
      ],
      "name": "OwnershipTransferred",
      "type": "event"
    },
    {
      "anonymous": false,
      "inputs": [
        {
          "indexed": true,
          "internalType": "address",
          "name": "from",
          "type": "address"
        },
        {
          "indexed": true,
          "internalType": "address",
          "name": "to",
          "type": "address"
        },
        {
          "indexed": true,
          "internalType": "uint256",
          "name": "tokenId",
          "type": "uint256"
        }
      ],
      "name": "Transfer",
      "type": "event"
    },
    {
      "inputs": [],
      "name": "TREES_PER_PARCEL",
      "outputs": [
        {
          "internalType": "uint256",
          "name": "",
          "type": "uint256"
        }
      ],
      "stateMutability": "view",
      "type": "function"
    },
    {
      "inputs": [
        {
          "internalType": "address",
          "name": "contractAddress",
          "type": "address"
        }
      ],
      "name": "addAuthorizedContract",
      "outputs": [],
      "stateMutability": "nonpayable",
      "type": "function"
    },
    {
      "inputs": [
        {
          "internalType": "address",
          "name": "user",
          "type": "address"
        },
        {
          "internalType": "uint256",
          "name": "additionalParcels",
          "type": "uint256"
        }
      ],
      "name": "addParcels",
      "outputs": [],
      "stateMutability": "nonpayable",
      "type": "function"
    },
    {
      "inputs": [
        {
          "internalType": "address",
          "name": "to",
          "type": "address"
        },
        {
          "internalType": "uint256",
          "name": "tokenId",
          "type": "uint256"
        }
      ],
      "name": "approve",
      "outputs": [],
      "stateMutability": "nonpayable",
      "type": "function"
    },
    {
      "inputs": [
        {
          "internalType": "address",
          "name": "user",
          "type": "address"
        },
        {
          "internalType": "uint256",
          "name": "parcels",
          "type": "uint256"
        }
      ],
      "name": "assignParcels",
      "outputs": [],
      "stateMutability": "nonpayable",
      "type": "function"
    },
    {
      "inputs": [
        {
          "internalType": "address",
          "name": "",
          "type": "address"
        }
      ],
      "name": "authorizedContracts",
      "outputs": [
        {
          "internalType": "bool",
          "name": "",
          "type": "bool"
        }
      ],
      "stateMutability": "view",
      "type": "function"
    },
    {
      "inputs": [
        {
          "internalType": "address",
          "name": "owner",
          "type": "address"
        }
      ],
      "name": "balanceOf",
      "outputs": [
        {
          "internalType": "uint256",
          "name": "",
          "type": "uint256"
        }
      ],
      "stateMutability": "view",
      "type": "function"
    },
    {
      "inputs": [
        {
          "internalType": "address",
          "name": "user",
          "type": "address"
        }
      ],
      "name": "canPlantMoreTrees",
      "outputs": [
        {
          "internalType": "bool",
          "name": "",
          "type": "bool"
        }
      ],
      "stateMutability": "view",
      "type": "function"
    },
    {
      "inputs": [
        {
          "internalType": "uint256",
          "name": "tokenId",
          "type": "uint256"
        }
      ],
      "name": "getApproved",
      "outputs": [
        {
          "internalType": "address",
          "name": "",
          "type": "address"
        }
      ],
      "stateMutability": "view",
      "type": "function"
    },
    {
      "inputs": [
        {
          "internalType": "address",
          "name": "user",
          "type": "address"
        }
      ],
      "name": "getAvailableTreeSlots",
      "outputs": [
        {
          "internalType": "uint256",
          "name": "",
          "type": "uint256"
        }
      ],
      "stateMutability": "view",
      "type": "function"
    },
    {
      "inputs": [
        {
          "internalType": "address",
          "name": "user",
          "type": "address"
        },
        {
          "internalType": "enum ForestNFT.Rarity",
          "name": "rarity",
          "type": "uint8"
        }
      ],
      "name": "getNFTsByRarity",
      "outputs": [
        {
          "internalType": "uint256",
          "name": "",
          "type": "uint256"
        }
      ],
      "stateMutability": "view",
      "type": "function"
    },
    {
      "inputs": [
        {
          "internalType": "uint256",
          "name": "tokenId",
          "type": "uint256"
        }
      ],
      "name": "getTokenOwner",
      "outputs": [
        {
          "internalType": "address",
          "name": "",
          "type": "address"
        }
      ],
      "stateMutability": "view",
      "type": "function"
    },
    {
      "inputs": [
        {
          "internalType": "address",
          "name": "user",
          "type": "address"
        }
      ],
      "name": "getUserParcels",
      "outputs": [
        {
          "internalType": "uint256",
          "name": "",
          "type": "uint256"
        }
      ],
      "stateMutability": "view",
      "type": "function"
    },
    {
      "inputs": [
        {
          "internalType": "address",
          "name": "user",
          "type": "address"
        }
      ],
      "name": "getUserTokenCount",
      "outputs": [
        {
          "internalType": "uint256",
          "name": "",
          "type": "uint256"
        }
      ],
      "stateMutability": "view",
      "type": "function"
    },
    {
      "inputs": [
        {
          "internalType": "address",
          "name": "owner",
          "type": "address"
        },
        {
          "internalType": "address",
          "name": "operator",
          "type": "address"
        }
      ],
      "name": "isApprovedForAll",
      "outputs": [
        {
          "internalType": "bool",
          "name": "",
          "type": "bool"
        }
      ],
      "stateMutability": "view",
      "type": "function"
    },
    {
      "inputs": [
        {
          "internalType": "address",
          "name": "to",
          "type": "address"
        },
        {
          "internalType": "uint256",
          "name": "amountScaled",
          "type": "uint256"
        }
      ],
      "name": "mintTo",
      "outputs": [],
      "stateMutability": "nonpayable",
      "type": "function"
    },
    {
      "inputs": [],
      "name": "name",
      "outputs": [
        {
          "internalType": "string",
          "name": "",
          "type": "string"
        }
      ],
      "stateMutability": "view",
      "type": "function"
    },
    {
      "inputs": [],
      "name": "owner",
      "outputs": [
        {
          "internalType": "address",
          "name": "",
          "type": "address"
        }
      ],
      "stateMutability": "view",
      "type": "function"
    },
    {
      "inputs": [
        {
          "internalType": "uint256",
          "name": "tokenId",
          "type": "uint256"
        }
      ],
      "name": "ownerOf",
      "outputs": [
        {
          "internalType": "address",
          "name": "",
          "type": "address"
        }
      ],
      "stateMutability": "view",
      "type": "function"
    },
    {
      "inputs": [
        {
          "internalType": "address",
          "name": "contractAddress",
          "type": "address"
        }
      ],
      "name": "removeAuthorizedContract",
      "outputs": [],
      "stateMutability": "nonpayable",
      "type": "function"
    },
    {
      "inputs": [],
      "name": "renounceOwnership",
      "outputs": [],
      "stateMutability": "nonpayable",
      "type": "function"
    },
    {
      "inputs": [
        {
          "internalType": "address",
          "name": "from",
          "type": "address"
        },
        {
          "internalType": "address",
          "name": "to",
          "type": "address"
        },
        {
          "internalType": "uint256",
          "name": "tokenId",
          "type": "uint256"
        }
      ],
      "name": "safeTransferFrom",
      "outputs": [],
      "stateMutability": "nonpayable",
      "type": "function"
    },
    {
      "inputs": [
        {
          "internalType": "address",
          "name": "from",
          "type": "address"
        },
        {
          "internalType": "address",
          "name": "to",
          "type": "address"
        },
        {
          "internalType": "uint256",
          "name": "tokenId",
          "type": "uint256"
        },
        {
          "internalType": "bytes",
          "name": "data",
          "type": "bytes"
        }
      ],
      "name": "safeTransferFrom",
      "outputs": [],
      "stateMutability": "nonpayable",
      "type": "function"
    },
    {
      "inputs": [
        {
          "internalType": "address",
          "name": "operator",
          "type": "address"
        },
        {
          "internalType": "bool",
          "name": "approved",
          "type": "bool"
        }
      ],
      "name": "setApprovalForAll",
      "outputs": [],
      "stateMutability": "nonpayable",
      "type": "function"
    },
    {
      "inputs": [
        {
          "internalType": "bytes4",
          "name": "interfaceId",
          "type": "bytes4"
        }
      ],
      "name": "supportsInterface",
      "outputs": [
        {
          "internalType": "bool",
          "name": "",
          "type": "bool"
        }
      ],
      "stateMutability": "view",
      "type": "function"
    },
    {
      "inputs": [],
      "name": "symbol",
      "outputs": [
        {
          "internalType": "string",
          "name": "",
          "type": "string"
        }
      ],
      "stateMutability": "view",
      "type": "function"
    },
    {
      "inputs": [
        {
          "internalType": "uint256",
          "name": "",
          "type": "uint256"
        }
      ],
      "name": "tokenRarity",
      "outputs": [
        {
          "internalType": "enum ForestNFT.Rarity",
          "name": "",
          "type": "uint8"
        }
      ],
      "stateMutability": "view",
      "type": "function"
    },
    {
      "inputs": [
        {
          "internalType": "uint256",
          "name": "tokenId",
          "type": "uint256"
        }
      ],
      "name": "tokenURI",
      "outputs": [
        {
          "internalType": "string",
          "name": "",
          "type": "string"
        }
      ],
      "stateMutability": "view",
      "type": "function"
    },
    {
      "inputs": [
        {
          "internalType": "address",
          "name": "owner",
          "type": "address"
        }
      ],
      "name": "tokensOfOwner",
      "outputs": [
        {
          "internalType": "uint256[]",
          "name": "",
          "type": "uint256[]"
        }
      ],
      "stateMutability": "view",
      "type": "function"
    },
    {
      "inputs": [
        {
          "internalType": "address",
          "name": "from",
          "type": "address"
        },
        {
          "internalType": "address",
          "name": "to",
          "type": "address"
        },
        {
          "internalType": "uint256",
          "name": "tokenId",
          "type": "uint256"
        }
      ],
      "name": "transferFrom",
      "outputs": [],
      "stateMutability": "nonpayable",
      "type": "function"
    },
    {
      "inputs": [
        {
          "internalType": "address",
          "name": "newOwner",
          "type": "address"
        }
      ],
      "name": "transferOwnership",
      "outputs": [],
      "stateMutability": "nonpayable",
      "type": "function"
    },
    {
      "inputs": [
        {
          "internalType": "address",
          "name": "from",
          "type": "address"
        },
        {
          "internalType": "address",
          "name": "to",
          "type": "address"
        },
        {
          "internalType": "uint256",
          "name": "tokenId",
          "type": "uint256"
        }
      ],
      "name": "transferTokenBetweenUsers",
      "outputs": [],
      "stateMutability": "nonpayable",
      "type": "function"
    },
    {
      "inputs": [
        {
          "internalType": "address",
          "name": "",
          "type": "address"
        },
        {
          "internalType": "enum ForestNFT.Rarity",
          "name": "",
          "type": "uint8"
        }
      ],
      "name": "userNFTsByRarity",
      "outputs": [
        {
          "internalType": "uint256",
          "name": "",
          "type": "uint256"
        }
      ],
      "stateMutability": "view",
      "type": "function"
    },
    {
      "inputs": [
        {
          "internalType": "address",
          "name": "",
          "type": "address"
        }
      ],
      "name": "userParcels",
      "outputs": [
        {
          "internalType": "uint256",
          "name": "",
          "type": "uint256"
        }
      ],
      "stateMutability": "view",
      "type": "function"
    },
    {
      "inputs": [
        {
          "internalType": "address",
          "name": "to",
          "type": "address"
        },
        {
          "internalType": "uint256",
          "name": "tokenId",
          "type": "uint256"
        }
      ],
      "name": "withdraw",
      "outputs": [],
      "stateMutability": "nonpayable",
      "type": "function"
    },
    {
      "inputs": [
        {
          "internalType": "address",
          "name": "user",
          "type": "address"
        },
        {
          "internalType": "address",
          "name": "to",
          "type": "address"
        }
      ],
      "name": "withdrawAll",
      "outputs": [],
      "stateMutability": "nonpayable",
      "type": "function"
    },
    {
      "inputs": [
        {
          "internalType": "address",
          "name": "user",
          "type": "address"
        },
        {
          "internalType": "address",
          "name": "to",
          "type": "address"
        },
        {
          "internalType": "uint256[]",
          "name": "tokenIds",
          "type": "uint256[]"
        }
      ],
      "name": "withdrawMultiple",
      "outputs": [],
      "stateMutability": "nonpayable",
      "type": "function"
    }
  ],
  "bytecode": "0x608060405234801561001057600080fd5b506040518060400160405280600a81526020017f466f72657374204e4654000000000000000000000000000000000000000000008152506040518060400160405280600981526020017f464f524553544e46540000000000000000000000000000000000000000000000815250816000908161008c91906103de565b50806001908161009c91906103de565b5050506100bb6100b06100c060201b60201c565b6100c860201b60201c565b6104b0565b600033905090565b6000600760009054906101000a900473ffffffffffffffffffffffffffffffffffffffff16905081600760006101000a81548173ffffffffffffffffffffffffffffffffffffffff021916908373ffffffffffffffffffffffffffffffffffffffff1602179055508173ffffffffffffffffffffffffffffffffffffffff168173ffffffffffffffffffffffffffffffffffffffff167f8be0079c531659141344cd1fd0a4f28419497f9722a3daafe3b4186f6b6457e060405160405180910390a35050565b600081519050919050565b7f4e487b7100000000000000000000000000000000000000000000000000000000600052604160045260246000fd5b7f4e487b7100000000000000000000000000000000000000000000000000000000600052602260045260246000fd5b6000600282049050600182168061020f57607f821691505b602082108103610222576102216101c8565b5b50919050565b60008190508160005260206000209050919050565b60006020601f8301049050919050565b600082821b905092915050565b60006008830261028a7fffffffffffffffffffffffffffffffffffffffffffffffffffffffffffffffff8261024d565b610294868361024d565b95508019841693508086168417925050509392505050565b6000819050919050565b6000819050919050565b60006102db6102d66102d1846102ac565b6102b6565b6102ac565b9050919050565b6000819050919050565b6102f5836102c0565b610309610301826102e2565b84845461025a565b825550505050565b600090565b61031e610311565b6103298184846102ec565b505050565b5b8181101561034d57610342600082610316565b60018101905061032f565b5050565b601f8211156103925761036381610228565b61036c8461023d565b8101602085101561037b578190505b61038f6103878561023d565b83018261032e565b50505b505050565b600082821c905092915050565b60006103b560001984600802610397565b1980831691505092915050565b60006103ce83836103a4565b9150826002028217905092915050565b6103e78261018e565b67ffffffffffffffff811115610400576103ff610199565b5b61040a82546101f7565b610415828285610351565b600060209050601f8311600181146104485760008415610436578287015190505b61044085826103c2565b8655506104a8565b601f19841661045686610228565b60005b8281101561047e57848901518255600182019150602085019450602081019050610459565b8683101561049b5784890151610497601f8916826103a4565b8355505b6001600288020188555050505b505050505050565b6156ef806104bf6000396000f3fe608060405234801561001057600080fd5b50600436106102275760003560e01c806395d89b4111610130578063bd17d3ce116100b8578063e985e9c51161007c578063e985e9c5146106ce578063f2fde38b146106fe578063f3fef3a31461071a578063f859fa2514610736578063fb40bf5b1461076657610227565b8063bd17d3ce146105f2578063c258423714610622578063c87b56dd14610652578063d5b9221b14610682578063e6b165ed146106b257610227565b8063a867d19a116100ff578063a867d19a1461053e578063a8d99bf81461055a578063afb0a36914610576578063b88d4fde146105a6578063b8a6f402146105c257610227565b806395d89b41146104b857806398eaa4a7146104d6578063a22cb465146104f2578063a5cd761f1461050e57610227565b806342842e0e116101b357806370a082311161018257806370a0823114610412578063715018a6146104425780637613090f1461044c5780638462151c1461046a5780638da5cb5b1461049a57610227565b806342842e0e1461037a578063449a52f8146103965780636352211e146103b257806369f43aad146103e257610227565b8063095ea7b3116101fa578063095ea7b3146102da57806309cae2c8146102f65780630f05449c1461031257806318e05bbe1461032e57806323b872dd1461035e57610227565b806301ffc9a71461022c578063041634bf1461025c57806306fdde031461028c578063081812fc146102aa575b600080fd5b610246600480360381019061024191906138df565b610782565b6040516102539190613927565b60405180910390f35b610276600480360381019061027191906139a0565b6107e3565b60405161028391906139e6565b60405180910390f35b61029461082c565b6040516102a19190613a91565b60405180910390f35b6102c460048036038101906102bf9190613adf565b6108be565b6040516102d19190613b1b565b60405180910390f35b6102f460048036038101906102ef9190613b36565b610904565b005b610310600480360381019061030b9190613b76565b610a1b565b005b61032c60048036038101906103279190613bb6565b610d0f565b005b610348600480360381019061034391906139a0565b6110dc565b60405161035591906139e6565b60405180910390f35b61037860048036038101906103739190613bb6565b6110f4565b005b610394600480360381019061038f9190613bb6565b611154565b005b6103b060048036038101906103ab9190613b36565b611174565b005b6103cc60048036038101906103c79190613adf565b61138a565b6040516103d99190613b1b565b60405180910390f35b6103fc60048036038101906103f79190613c2e565b611410565b60405161040991906139e6565b60405180910390f35b61042c600480360381019061042791906139a0565b61148f565b60405161043991906139e6565b60405180910390f35b61044a611546565b005b61045461155a565b60405161046191906139e6565b60405180910390f35b610484600480360381019061047f91906139a0565b61155f565b6040516104919190613d2c565b60405180910390f35b6104a26115f6565b6040516104af9190613b1b565b60405180910390f35b6104c0611620565b6040516104cd9190613a91565b60405180910390f35b6104f060048036038101906104eb91906139a0565b6116b2565b005b61050c60048036038101906105079190613d7a565b611715565b005b61052860048036038101906105239190613adf565b61172b565b6040516105359190613b1b565b60405180910390f35b61055860048036038101906105539190613b36565b611768565b005b610574600480360381019061056f9190613b36565b61180d565b005b610590600480360381019061058b9190613adf565b6118a0565b60405161059d9190613e31565b60405180910390f35b6105c060048036038101906105bb9190613f81565b6118c0565b005b6105dc60048036038101906105d791906139a0565b611922565b6040516105e991906139e6565b60405180910390f35b61060c600480360381019061060791906139a0565b61196b565b6040516106199190613927565b60405180910390f35b61063c60048036038101906106379190613c2e565b6119d5565b60405161064991906139e6565b60405180910390f35b61066c60048036038101906106679190613adf565b6119fa565b6040516106799190613a91565b60405180910390f35b61069c600480360381019061069791906139a0565b611b0c565b6040516106a99190613927565b60405180910390f35b6106cc60048036038101906106c791906139a0565b611b2c565b005b6106e860048036038101906106e39190613b76565b611b8f565b6040516106f59190613927565b60405180910390f35b610718600480360381019061071391906139a0565b611c23565b005b610734600480360381019061072f9190613b36565b611ca6565b005b610750600480360381019061074b91906139a0565b611ec1565b60405161075d91906139e6565b60405180910390f35b610780600480360381019061077b9190614064565b611f47565b005b6000634906490660e01b7bffffffffffffffffffffffffffffffffffffffffffffffffffffffff1916827bffffffffffffffffffffffffffffffffffffffffffffffffffffffff191614806107dc57506107db826121ab565b5b9050919050565b6000600c60008373ffffffffffffffffffffffffffffffffffffffff1673ffffffffffffffffffffffffffffffffffffffff168152602001908152602001600020549050919050565b60606000805461083b90614107565b80601f016020809104026020016040519081016040528092919081815260200182805461086790614107565b80156108b45780601f10610889576101008083540402835291602001916108b4565b820191906000526020600020905b81548152906001019060200180831161089757829003601f168201915b5050505050905090565b60006108c98261228d565b6004600083815260200190815260200160002060009054906101000a900473ffffffffffffffffffffffffffffffffffffffff169050919050565b600061090f8261138a565b90508073ffffffffffffffffffffffffffffffffffffffff168373ffffffffffffffffffffffffffffffffffffffff160361097f576040517f08c379a0000000000000000000000000000000000000000000000000000000008152600401610976906141aa565b60405180910390fd5b8073ffffffffffffffffffffffffffffffffffffffff1661099e6122d8565b73ffffffffffffffffffffffffffffffffffffffff1614806109cd57506109cc816109c76122d8565b611b8f565b5b610a0c576040517f08c379a0000000000000000000000000000000000000000000000000000000008152600401610a039061423c565b60405180910390fd5b610a1683836122e0565b505050565b610a23612399565b600073ffffffffffffffffffffffffffffffffffffffff168173ffffffffffffffffffffffffffffffffffffffff1603610a92576040517f08c379a0000000000000000000000000000000000000000000000000000000008152600401610a89906142a8565b60405180910390fd5b6000600d60008473ffffffffffffffffffffffffffffffffffffffff1673ffffffffffffffffffffffffffffffffffffffff168152602001908152602001600020805480602002602001604051908101604052809291908181526020018280548015610b1d57602002820191906000526020600020905b815481526020019060010190808311610b09575b505050505090506000815111610b68576040517f08c379a0000000000000000000000000000000000000000000000000000000008152600401610b5f90614314565b60405180910390fd5b6000815167ffffffffffffffff811115610b8557610b84613e56565b5b604051908082528060200260200182016040528015610bb35781602001602082028036833780820191505090505b50905060005b8251811015610c0957828181518110610bd557610bd4614334565b5b6020026020010151828281518110610bf057610bef614334565b5b6020026020010181815250508080600101915050610bb9565b5060005b8151811015610d08576000828281518110610c2b57610c2a614334565b5b602002602001015190506000600a600083815260200190815260200160002060009054906101000a900460ff169050610c648783612417565b600b60008873ffffffffffffffffffffffffffffffffffffffff1673ffffffffffffffffffffffffffffffffffffffff1681526020019081526020016000206000826002811115610cb857610cb7613dba565b5b6002811115610cca57610cc9613dba565b5b81526020019081526020016000206000815480929190610ce990614392565b9190505550610cf9308784612670565b50508080600101915050610c0d565b5050505050565b610d176115f6565b73ffffffffffffffffffffffffffffffffffffffff163373ffffffffffffffffffffffffffffffffffffffff161480610d995750600960003373ffffffffffffffffffffffffffffffffffffffff1673ffffffffffffffffffffffffffffffffffffffff16815260200190815260200160002060009054906101000a900460ff165b610dd8576040517f08c379a0000000000000000000000000000000000000000000000000000000008152600401610dcf90614407565b60405180910390fd5b8273ffffffffffffffffffffffffffffffffffffffff16600e600083815260200190815260200160002060009054906101000a900473ffffffffffffffffffffffffffffffffffffffff1673ffffffffffffffffffffffffffffffffffffffff1614610e79576040517f08c379a0000000000000000000000000000000000000000000000000000000008152600401610e7090614499565b60405180910390fd5b600073ffffffffffffffffffffffffffffffffffffffff168273ffffffffffffffffffffffffffffffffffffffff1603610ee8576040517f08c379a0000000000000000000000000000000000000000000000000000000008152600401610edf90614505565b60405180910390fd5b6000610ef383611922565b905060006010600c60008673ffffffffffffffffffffffffffffffffffffffff1673ffffffffffffffffffffffffffffffffffffffff16815260200190815260200160002054610f439190614525565b9050808210610f87576040517f08c379a0000000000000000000000000000000000000000000000000000000008152600401610f7e906145d9565b60405180910390fd5b6000600a600085815260200190815260200160002060009054906101000a900460ff169050610fb68685612417565b600b60008773ffffffffffffffffffffffffffffffffffffffff1673ffffffffffffffffffffffffffffffffffffffff168152602001908152602001600020600082600281111561100a57611009613dba565b5b600281111561101c5761101b613dba565b5b8152602001908152602001600020600081548092919061103b90614392565b919050555061104a8585612969565b600b60008673ffffffffffffffffffffffffffffffffffffffff1673ffffffffffffffffffffffffffffffffffffffff168152602001908152602001600020600082600281111561109e5761109d613dba565b5b60028111156110b0576110af613dba565b5b815260200190815260200160002060008154809291906110cf906145f9565b9190505550505050505050565b600c6020528060005260406000206000915090505481565b6111056110ff6122d8565b82612ad4565b611144576040517f08c379a000000000000000000000000000000000000000000000000000000000815260040161113b906146b3565b60405180910390fd5b61114f838383612670565b505050565b61116f838383604051806020016040528060008152506118c0565b505050565b61117c612399565b600c811015801561118e575060418111155b6111cd576040517f08c379a00000000000000000000000000000000000000000000000000000000081526004016111c490614745565b60405180910390fd5b60006111d883611922565b905060006010600c60008673ffffffffffffffffffffffffffffffffffffffff1673ffffffffffffffffffffffffffffffffffffffff168152602001908152602001600020546112289190614525565b905080821061126c576040517f08c379a0000000000000000000000000000000000000000000000000000000008152600401611263906147d7565b60405180910390fd5b6112766008612b69565b60006112826008612b7f565b9050600061128f85612b8d565b905080600a600084815260200190815260200160002060006101000a81548160ff021916908360028111156112c7576112c6613dba565b5b021790555060006112d782612d10565b90506112e33084612dca565b6112ed8382612fe7565b6112f78784612969565b600b60008873ffffffffffffffffffffffffffffffffffffffff1673ffffffffffffffffffffffffffffffffffffffff168152602001908152602001600020600083600281111561134b5761134a613dba565b5b600281111561135d5761135c613dba565b5b8152602001908152602001600020600081548092919061137c906145f9565b919050555050505050505050565b6000806113968361308b565b9050600073ffffffffffffffffffffffffffffffffffffffff168173ffffffffffffffffffffffffffffffffffffffff1603611407576040517f08c379a00000000000000000000000000000000000000000000000000000000081526004016113fe90614843565b60405180910390fd5b80915050919050565b6000600b60008473ffffffffffffffffffffffffffffffffffffffff1673ffffffffffffffffffffffffffffffffffffffff168152602001908152602001600020600083600281111561146657611465613dba565b5b600281111561147857611477613dba565b5b815260200190815260200160002054905092915050565b60008073ffffffffffffffffffffffffffffffffffffffff168273ffffffffffffffffffffffffffffffffffffffff16036114ff576040517f08c379a00000000000000000000000000000000000000000000000000000000081526004016114f6906148d5565b60405180910390fd5b600360008373ffffffffffffffffffffffffffffffffffffffff1673ffffffffffffffffffffffffffffffffffffffff168152602001908152602001600020549050919050565b61154e612399565b61155860006130c8565b565b601081565b6060600d60008373ffffffffffffffffffffffffffffffffffffffff1673ffffffffffffffffffffffffffffffffffffffff1681526020019081526020016000208054806020026020016040519081016040528092919081815260200182805480156115ea57602002820191906000526020600020905b8154815260200190600101908083116115d6575b50505050509050919050565b6000600760009054906101000a900473ffffffffffffffffffffffffffffffffffffffff16905090565b60606001805461162f90614107565b80601f016020809104026020016040519081016040528092919081815260200182805461165b90614107565b80156116a85780601f1061167d576101008083540402835291602001916116a8565b820191906000526020600020905b81548152906001019060200180831161168b57829003601f168201915b5050505050905090565b6116ba612399565b6001600960008373ffffffffffffffffffffffffffffffffffffffff1673ffffffffffffffffffffffffffffffffffffffff16815260200190815260200160002060006101000a81548160ff02191690831515021790555050565b6117276117206122d8565b838361318e565b5050565b6000600e600083815260200190815260200160002060009054906101000a900473ffffffffffffffffffffffffffffffffffffffff169050919050565b611770612399565b600081116117b3576040517f08c379a00000000000000000000000000000000000000000000000000000000081526004016117aa90614967565b60405180910390fd5b80600c60008473ffffffffffffffffffffffffffffffffffffffff1673ffffffffffffffffffffffffffffffffffffffff16815260200190815260200160002060008282546118029190614987565b925050819055505050565b611815612399565b60008111611858576040517f08c379a000000000000000000000000000000000000000000000000000000000815260040161184f90614a07565b60405180910390fd5b80600c60008473ffffffffffffffffffffffffffffffffffffffff1673ffffffffffffffffffffffffffffffffffffffff168152602001908152602001600020819055505050565b600a6020528060005260406000206000915054906101000a900460ff1681565b6118d16118cb6122d8565b83612ad4565b611910576040517f08c379a0000000000000000000000000000000000000000000000000000000008152600401611907906146b3565b60405180910390fd5b61191c848484846132fa565b50505050565b6000600f60008373ffffffffffffffffffffffffffffffffffffffff1673ffffffffffffffffffffffffffffffffffffffff168152602001908152602001600020549050919050565b60008061197783611922565b905060006010600c60008673ffffffffffffffffffffffffffffffffffffffff1673ffffffffffffffffffffffffffffffffffffffff168152602001908152602001600020546119c79190614525565b905080821092505050919050565b600b602052816000526040600020602052806000526040600020600091509150505481565b6060611a058261228d565b6000600660008481526020019081526020016000208054611a2590614107565b80601f0160208091040260200160405190810160405280929190818152602001828054611a5190614107565b8015611a9e5780601f10611a7357610100808354040283529160200191611a9e565b820191906000526020600020905b815481529060010190602001808311611a8157829003601f168201915b505050505090506000611aaf613356565b90506000815103611ac4578192505050611b07565b600082511115611af9578082604051602001611ae1929190614a63565b60405160208183030381529060405292505050611b07565b611b028461336d565b925050505b919050565b60096020528060005260406000206000915054906101000a900460ff1681565b611b34612399565b6000600960008373ffffffffffffffffffffffffffffffffffffffff1673ffffffffffffffffffffffffffffffffffffffff16815260200190815260200160002060006101000a81548160ff02191690831515021790555050565b6000600560008473ffffffffffffffffffffffffffffffffffffffff1673ffffffffffffffffffffffffffffffffffffffff16815260200190815260200160002060008373ffffffffffffffffffffffffffffffffffffffff1673ffffffffffffffffffffffffffffffffffffffff16815260200190815260200160002060009054906101000a900460ff16905092915050565b611c2b612399565b600073ffffffffffffffffffffffffffffffffffffffff168173ffffffffffffffffffffffffffffffffffffffff1603611c9a576040517f08c379a0000000000000000000000000000000000000000000000000000000008152600401611c9190614af9565b60405180910390fd5b611ca3816130c8565b50565b611cae612399565b600073ffffffffffffffffffffffffffffffffffffffff16600e600083815260200190815260200160002060009054906101000a900473ffffffffffffffffffffffffffffffffffffffff1673ffffffffffffffffffffffffffffffffffffffff1603611d50576040517f08c379a0000000000000000000000000000000000000000000000000000000008152600401611d4790614b65565b60405180910390fd5b600073ffffffffffffffffffffffffffffffffffffffff168273ffffffffffffffffffffffffffffffffffffffff1603611dbf576040517f08c379a0000000000000000000000000000000000000000000000000000000008152600401611db6906142a8565b60405180910390fd5b6000600e600083815260200190815260200160002060009054906101000a900473ffffffffffffffffffffffffffffffffffffffff1690506000600a600084815260200190815260200160002060009054906101000a900460ff169050611e268284612417565b600b60008373ffffffffffffffffffffffffffffffffffffffff1673ffffffffffffffffffffffffffffffffffffffff1681526020019081526020016000206000826002811115611e7a57611e79613dba565b5b6002811115611e8c57611e8b613dba565b5b81526020019081526020016000206000815480929190611eab90614392565b9190505550611ebb308585612670565b50505050565b600080611ecd83611922565b905060006010600c60008673ffffffffffffffffffffffffffffffffffffffff1673ffffffffffffffffffffffffffffffffffffffff16815260200190815260200160002054611f1d9190614525565b9050808210611f3157600092505050611f42565b8181611f3d9190614b85565b925050505b919050565b611f4f612399565b600073ffffffffffffffffffffffffffffffffffffffff168373ffffffffffffffffffffffffffffffffffffffff1603611fbe576040517f08c379a0000000000000000000000000000000000000000000000000000000008152600401611fb5906142a8565b60405180910390fd5b60008282905011612004576040517f08c379a0000000000000000000000000000000000000000000000000000000008152600401611ffb90614c05565b60405180910390fd5b60005b828290508110156121a457600083838381811061202757612026614334565b5b9050602002013590508573ffffffffffffffffffffffffffffffffffffffff16600e600083815260200190815260200160002060009054906101000a900473ffffffffffffffffffffffffffffffffffffffff1673ffffffffffffffffffffffffffffffffffffffff16146120d1576040517f08c379a00000000000000000000000000000000000000000000000000000000081526004016120c890614c71565b60405180910390fd5b6000600a600083815260200190815260200160002060009054906101000a900460ff1690506121008783612417565b600b60008873ffffffffffffffffffffffffffffffffffffffff1673ffffffffffffffffffffffffffffffffffffffff168152602001908152602001600020600082600281111561215457612153613dba565b5b600281111561216657612165613dba565b5b8152602001908152602001600020600081548092919061218590614392565b9190505550612195308784612670565b50508080600101915050612007565b5050505050565b60007f80ac58cd000000000000000000000000000000000000000000000000000000007bffffffffffffffffffffffffffffffffffffffffffffffffffffffff1916827bffffffffffffffffffffffffffffffffffffffffffffffffffffffff1916148061227657507f5b5e139f000000000000000000000000000000000000000000000000000000007bffffffffffffffffffffffffffffffffffffffffffffffffffffffff1916827bffffffffffffffffffffffffffffffffffffffffffffffffffffffff1916145b806122865750612285826133d5565b5b9050919050565b6122968161343f565b6122d5576040517f08c379a00000000000000000000000000000000000000000000000000000000081526004016122cc90614843565b60405180910390fd5b50565b600033905090565b816004600083815260200190815260200160002060006101000a81548173ffffffffffffffffffffffffffffffffffffffff021916908373ffffffffffffffffffffffffffffffffffffffff160217905550808273ffffffffffffffffffffffffffffffffffffffff166123538361138a565b73ffffffffffffffffffffffffffffffffffffffff167f8c5be1e5ebec7d5bd14f71427d1e84f3dd0314c0f7b2291e5b200ac8c7c3b92560405160405180910390a45050565b6123a16122d8565b73ffffffffffffffffffffffffffffffffffffffff166123bf6115f6565b73ffffffffffffffffffffffffffffffffffffffff1614612415576040517f08c379a000000000000000000000000000000000000000000000000000000000815260040161240c90614cdd565b60405180910390fd5b565b60006001600d60008573ffffffffffffffffffffffffffffffffffffffff1673ffffffffffffffffffffffffffffffffffffffff168152602001908152602001600020805490506124689190614b85565b9050600060106000848152602001908152602001600020549050818114612563576000600d60008673ffffffffffffffffffffffffffffffffffffffff1673ffffffffffffffffffffffffffffffffffffffff16815260200190815260200160002083815481106124dc576124db614334565b5b9060005260206000200154905080600d60008773ffffffffffffffffffffffffffffffffffffffff1673ffffffffffffffffffffffffffffffffffffffff168152602001908152602001600020838154811061253b5761253a614334565b5b9060005260206000200181905550816010600083815260200190815260200160002081905550505b600d60008573ffffffffffffffffffffffffffffffffffffffff1673ffffffffffffffffffffffffffffffffffffffff1681526020019081526020016000208054806125b2576125b1614cfd565b5b600190038181906000526020600020016000905590556010600084815260200190815260200160002060009055600f60008573ffffffffffffffffffffffffffffffffffffffff1673ffffffffffffffffffffffffffffffffffffffff168152602001908152602001600020600081548092919061262f90614392565b9190505550600e600084815260200190815260200160002060006101000a81549073ffffffffffffffffffffffffffffffffffffffff021916905550505050565b8273ffffffffffffffffffffffffffffffffffffffff166126908261138a565b73ffffffffffffffffffffffffffffffffffffffff16146126e6576040517f08c379a00000000000000000000000000000000000000000000000000000000081526004016126dd90614d9e565b60405180910390fd5b600073ffffffffffffffffffffffffffffffffffffffff168273ffffffffffffffffffffffffffffffffffffffff1603612755576040517f08c379a000000000000000000000000000000000000000000000000000000000815260040161274c90614e30565b60405180910390fd5b6127628383836001613480565b8273ffffffffffffffffffffffffffffffffffffffff166127828261138a565b73ffffffffffffffffffffffffffffffffffffffff16146127d8576040517f08c379a00000000000000000000000000000000000000000000000000000000081526004016127cf90614d9e565b60405180910390fd5b6004600082815260200190815260200160002060006101000a81549073ffffffffffffffffffffffffffffffffffffffff02191690556001600360008573ffffffffffffffffffffffffffffffffffffffff1673ffffffffffffffffffffffffffffffffffffffff168152602001908152602001600020600082825403925050819055506001600360008473ffffffffffffffffffffffffffffffffffffffff1673ffffffffffffffffffffffffffffffffffffffff16815260200190815260200160002060008282540192505081905550816002600083815260200190815260200160002060006101000a81548173ffffffffffffffffffffffffffffffffffffffff021916908373ffffffffffffffffffffffffffffffffffffffff160217905550808273ffffffffffffffffffffffffffffffffffffffff168473ffffffffffffffffffffffffffffffffffffffff167fddf252ad1be2c89b69c2b068fc378daa952ba7f163c4a11628f55a4df523b3ef60405160405180910390a46129648383836001613486565b505050565b81600e600083815260200190815260200160002060006101000a81548173ffffffffffffffffffffffffffffffffffffffff021916908373ffffffffffffffffffffffffffffffffffffffff160217905550600d60008373ffffffffffffffffffffffffffffffffffffffff1673ffffffffffffffffffffffffffffffffffffffff168152602001908152602001600020805490506010600083815260200190815260200160002081905550600d60008373ffffffffffffffffffffffffffffffffffffffff1673ffffffffffffffffffffffffffffffffffffffff168152602001908152602001600020819080600181540180825580915050600190039060005260206000200160009091909190915055600f60008373ffffffffffffffffffffffffffffffffffffffff1673ffffffffffffffffffffffffffffffffffffffff1681526020019081526020016000206000815480929190612acb906145f9565b91905055505050565b600080612ae08361138a565b90508073ffffffffffffffffffffffffffffffffffffffff168473ffffffffffffffffffffffffffffffffffffffff161480612b225750612b218185611b8f565b5b80612b6057508373ffffffffffffffffffffffffffffffffffffffff16612b48846108be565b73ffffffffffffffffffffffffffffffffffffffff16145b91505092915050565b6001816000016000828254019250508190555050565b600081600001549050919050565b600080600f6035601e600c86612ba39190614b85565b612bad9190614525565b612bb79190614e89565b612bc19190614ef3565b90506000603c90506000601990506000600f905060008484612be39190614ef3565b90506000600286612bf49190614e89565b84612bff9190614f36565b90506000600287612c109190614e89565b84612c1b9190614f36565b90506000612c288461348c565b90506000612c358461348c565b90506000612c428461348c565b90506000818385612c539190614987565b612c5d9190614987565b905060008103612c7857603c935060199250600f9150606490505b600081424433604051602001612c9093929190614fe3565b6040516020818303038152906040528051906020012060001c612cb39190615020565b905082811015612cd25760029c50505050505050505050505050612d0b565b8383612cde9190614987565b811015612cfa5760019c50505050505050505050505050612d0b565b60009c505050505050505050505050505b919050565b6060600280811115612d2557612d24613dba565b5b826002811115612d3857612d37613dba565b5b03612d5d5760405180606001604052806035815260200161561b603591399050612dc5565b60016002811115612d7157612d70613dba565b5b826002811115612d8457612d83613dba565b5b03612da957604051806060016040528060358152602001615650603591399050612dc5565b6040518060600160405280603581526020016156856035913990505b919050565b600073ffffffffffffffffffffffffffffffffffffffff168273ffffffffffffffffffffffffffffffffffffffff1603612e39576040517f08c379a0000000000000000000000000000000000000000000000000000000008152600401612e309061509d565b60405180910390fd5b612e428161343f565b15612e82576040517f08c379a0000000000000000000000000000000000000000000000000000000008152600401612e7990615109565b60405180910390fd5b612e90600083836001613480565b612e998161343f565b15612ed9576040517f08c379a0000000000000000000000000000000000000000000000000000000008152600401612ed090615109565b60405180910390fd5b6001600360008473ffffffffffffffffffffffffffffffffffffffff1673ffffffffffffffffffffffffffffffffffffffff16815260200190815260200160002060008282540192505081905550816002600083815260200190815260200160002060006101000a81548173ffffffffffffffffffffffffffffffffffffffff021916908373ffffffffffffffffffffffffffffffffffffffff160217905550808273ffffffffffffffffffffffffffffffffffffffff16600073ffffffffffffffffffffffffffffffffffffffff167fddf252ad1be2c89b69c2b068fc378daa952ba7f163c4a11628f55a4df523b3ef60405160405180910390a4612fe3600083836001613486565b5050565b612ff08261343f565b61302f576040517f08c379a00000000000000000000000000000000000000000000000000000000081526004016130269061519b565b60405180910390fd5b8060066000848152602001908152602001600020908161304f9190615367565b507ff8e1a15aba9398e019f0b49df1a4fde98ee17ae345cb5f6b5e2c27f5033e8ce78260405161307f91906139e6565b60405180910390a15050565b60006002600083815260200190815260200160002060009054906101000a900473ffffffffffffffffffffffffffffffffffffffff169050919050565b6000600760009054906101000a900473ffffffffffffffffffffffffffffffffffffffff16905081600760006101000a81548173ffffffffffffffffffffffffffffffffffffffff021916908373ffffffffffffffffffffffffffffffffffffffff1602179055508173ffffffffffffffffffffffffffffffffffffffff168173ffffffffffffffffffffffffffffffffffffffff167f8be0079c531659141344cd1fd0a4f28419497f9722a3daafe3b4186f6b6457e060405160405180910390a35050565b8173ffffffffffffffffffffffffffffffffffffffff168373ffffffffffffffffffffffffffffffffffffffff16036131fc576040517f08c379a00000000000000000000000000000000000000000000000000000000081526004016131f390615485565b60405180910390fd5b80600560008573ffffffffffffffffffffffffffffffffffffffff1673ffffffffffffffffffffffffffffffffffffffff16815260200190815260200160002060008473ffffffffffffffffffffffffffffffffffffffff1673ffffffffffffffffffffffffffffffffffffffff16815260200190815260200160002060006101000a81548160ff0219169083151502179055508173ffffffffffffffffffffffffffffffffffffffff168373ffffffffffffffffffffffffffffffffffffffff167f17307eab39ab6107e8899845ad3d59bd9653f200f220920489ca2b5937696c31836040516132ed9190613927565b60405180910390a3505050565b613305848484612670565b613311848484846134a8565b613350576040517f08c379a000000000000000000000000000000000000000000000000000000000815260040161334790615517565b60405180910390fd5b50505050565b606060405180602001604052806000815250905090565b60606133788261228d565b6000613382613356565b905060008151116133a257604051806020016040528060008152506133cd565b806133ac8461362f565b6040516020016133bd929190614a63565b6040516020818303038152906040525b915050919050565b60007f01ffc9a7000000000000000000000000000000000000000000000000000000007bffffffffffffffffffffffffffffffffffffffffffffffffffffffff1916827bffffffffffffffffffffffffffffffffffffffffffffffffffffffff1916149050919050565b60008073ffffffffffffffffffffffffffffffffffffffff166134618361308b565b73ffffffffffffffffffffffffffffffffffffffff1614159050919050565b50505050565b50505050565b60008082121561349f57600090506134a3565b8190505b919050565b60006134c98473ffffffffffffffffffffffffffffffffffffffff166136fd565b15613622578373ffffffffffffffffffffffffffffffffffffffff1663150b7a026134f26122d8565b8786866040518563ffffffff1660e01b8152600401613514949392919061558c565b6020604051808303816000875af192505050801561355057506040513d601f19601f8201168201806040525081019061354d91906155ed565b60015b6135d2573d8060008114613580576040519150601f19603f3d011682016040523d82523d6000602084013e613585565b606091505b5060008151036135ca576040517f08c379a00000000000000000000000000000000000000000000000000000000081526004016135c190615517565b60405180910390fd5b805181602001fd5b63150b7a0260e01b7bffffffffffffffffffffffffffffffffffffffffffffffffffffffff1916817bffffffffffffffffffffffffffffffffffffffffffffffffffffffff191614915050613627565b600190505b949350505050565b60606000600161363e84613720565b01905060008167ffffffffffffffff81111561365d5761365c613e56565b5b6040519080825280601f01601f19166020018201604052801561368f5781602001600182028036833780820191505090505b509050600082602001820190505b6001156136f2578080600190039150507f3031323334353637383961626364656600000000000000000000000000000000600a86061a8153600a85816136e6576136e5614e5a565b5b0494506000850361369d575b819350505050919050565b6000808273ffffffffffffffffffffffffffffffffffffffff163b119050919050565b600080600090507a184f03e93ff9f4daa797ed6e38ed64bf6a1f010000000000000000831061377e577a184f03e93ff9f4daa797ed6e38ed64bf6a1f010000000000000000838161377457613773614e5a565b5b0492506040810190505b6d04ee2d6d415b85acef810000000083106137bb576d04ee2d6d415b85acef810000000083816137b1576137b0614e5a565b5b0492506020810190505b662386f26fc1000083106137ea57662386f26fc1000083816137e0576137df614e5a565b5b0492506010810190505b6305f5e1008310613813576305f5e100838161380957613808614e5a565b5b0492506008810190505b612710831061383857612710838161382e5761382d614e5a565b5b0492506004810190505b6064831061385b576064838161385157613850614e5a565b5b0492506002810190505b600a831061386a576001810190505b80915050919050565b6000604051905090565b600080fd5b600080fd5b60007fffffffff0000000000000000000000000000000000000000000000000000000082169050919050565b6138bc81613887565b81146138c757600080fd5b50565b6000813590506138d9816138b3565b92915050565b6000602082840312156138f5576138f461387d565b5b6000613903848285016138ca565b91505092915050565b60008115159050919050565b6139218161390c565b82525050565b600060208201905061393c6000830184613918565b92915050565b600073ffffffffffffffffffffffffffffffffffffffff82169050919050565b600061396d82613942565b9050919050565b61397d81613962565b811461398857600080fd5b50565b60008135905061399a81613974565b92915050565b6000602082840312156139b6576139b561387d565b5b60006139c48482850161398b565b91505092915050565b6000819050919050565b6139e0816139cd565b82525050565b60006020820190506139fb60008301846139d7565b92915050565b600081519050919050565b600082825260208201905092915050565b60005b83811015613a3b578082015181840152602081019050613a20565b60008484015250505050565b6000601f19601f8301169050919050565b6000613a6382613a01565b613a6d8185613a0c565b9350613a7d818560208601613a1d565b613a8681613a47565b840191505092915050565b60006020820190508181036000830152613aab8184613a58565b905092915050565b613abc816139cd565b8114613ac757600080fd5b50565b600081359050613ad981613ab3565b92915050565b600060208284031215613af557613af461387d565b5b6000613b0384828501613aca565b91505092915050565b613b1581613962565b82525050565b6000602082019050613b306000830184613b0c565b92915050565b60008060408385031215613b4d57613b4c61387d565b5b6000613b5b8582860161398b565b9250506020613b6c85828601613aca565b9150509250929050565b60008060408385031215613b8d57613b8c61387d565b5b6000613b9b8582860161398b565b9250506020613bac8582860161398b565b9150509250929050565b600080600060608486031215613bcf57613bce61387d565b5b6000613bdd8682870161398b565b9350506020613bee8682870161398b565b9250506040613bff86828701613aca565b9150509250925092565b60038110613c1657600080fd5b50565b600081359050613c2881613c09565b92915050565b60008060408385031215613c4557613c4461387d565b5b6000613c538582860161398b565b9250506020613c6485828601613c19565b9150509250929050565b600081519050919050565b600082825260208201905092915050565b6000819050602082019050919050565b613ca3816139cd565b82525050565b6000613cb58383613c9a565b60208301905092915050565b6000602082019050919050565b6000613cd982613c6e565b613ce38185613c79565b9350613cee83613c8a565b8060005b83811015613d1f578151613d068882613ca9565b9750613d1183613cc1565b925050600181019050613cf2565b5085935050505092915050565b60006020820190508181036000830152613d468184613cce565b905092915050565b613d578161390c565b8114613d6257600080fd5b50565b600081359050613d7481613d4e565b92915050565b60008060408385031215613d9157613d9061387d565b5b6000613d9f8582860161398b565b9250506020613db085828601613d65565b9150509250929050565b7f4e487b7100000000000000000000000000000000000000000000000000000000600052602160045260246000fd5b60038110613dfa57613df9613dba565b5b50565b6000819050613e0b82613de9565b919050565b6000613e1b82613dfd565b9050919050565b613e2b81613e10565b82525050565b6000602082019050613e466000830184613e22565b92915050565b600080fd5b600080fd5b7f4e487b7100000000000000000000000000000000000000000000000000000000600052604160045260246000fd5b613e8e82613a47565b810181811067ffffffffffffffff82111715613ead57613eac613e56565b5b80604052505050565b6000613ec0613873565b9050613ecc8282613e85565b919050565b600067ffffffffffffffff821115613eec57613eeb613e56565b5b613ef582613a47565b9050602081019050919050565b82818337600083830152505050565b6000613f24613f1f84613ed1565b613eb6565b905082815260208101848484011115613f4057613f3f613e51565b5b613f4b848285613f02565b509392505050565b600082601f830112613f6857613f67613e4c565b5b8135613f78848260208601613f11565b91505092915050565b60008060008060808587031215613f9b57613f9a61387d565b5b6000613fa98782880161398b565b9450506020613fba8782880161398b565b9350506040613fcb87828801613aca565b925050606085013567ffffffffffffffff811115613fec57613feb613882565b5b613ff887828801613f53565b91505092959194509250565b600080fd5b600080fd5b60008083601f84011261402457614023613e4c565b5b8235905067ffffffffffffffff81111561404157614040614004565b5b60208301915083602082028301111561405d5761405c614009565b5b9250929050565b6000806000806060858703121561407e5761407d61387d565b5b600061408c8782880161398b565b945050602061409d8782880161398b565b935050604085013567ffffffffffffffff8111156140be576140bd613882565b5b6140ca8782880161400e565b925092505092959194509250565b7f4e487b7100000000000000000000000000000000000000000000000000000000600052602260045260246000fd5b6000600282049050600182168061411f57607f821691505b602082108103614132576141316140d8565b5b50919050565b7f4552433732313a20617070726f76616c20746f2063757272656e74206f776e6560008201527f7200000000000000000000000000000000000000000000000000000000000000602082015250565b6000614194602183613a0c565b915061419f82614138565b604082019050919050565b600060208201905081810360008301526141c381614187565b9050919050565b7f4552433732313a20617070726f76652063616c6c6572206973206e6f7420746f60008201527f6b656e206f776e6572206f7220617070726f76656420666f7220616c6c000000602082015250565b6000614226603d83613a0c565b9150614231826141ca565b604082019050919050565b6000602082019050818103600083015261425581614219565b9050919050565b7f43616e6e6f7420776974686472617720746f207a65726f206164647265737300600082015250565b6000614292601f83613a0c565b915061429d8261425c565b602082019050919050565b600060208201905081810360008301526142c181614285565b9050919050565b7f5573657220686173206e6f20746f6b656e730000000000000000000000000000600082015250565b60006142fe601283613a0c565b9150614309826142c8565b602082019050919050565b6000602082019050818103600083015261432d816142f1565b9050919050565b7f4e487b7100000000000000000000000000000000000000000000000000000000600052603260045260246000fd5b7f4e487b7100000000000000000000000000000000000000000000000000000000600052601160045260246000fd5b600061439d826139cd565b9150600082036143b0576143af614363565b5b600182039050919050565b7f4e6f7420617574686f72697a6564000000000000000000000000000000000000600082015250565b60006143f1600e83613a0c565b91506143fc826143bb565b602082019050919050565b60006020820190508181036000830152614420816143e4565b9050919050565b7f546f6b656e20646f6573206e6f742062656c6f6e6720746f2066726f6d20616460008201527f6472657373000000000000000000000000000000000000000000000000000000602082015250565b6000614483602583613a0c565b915061448e82614427565b604082019050919050565b600060208201905081810360008301526144b281614476565b9050919050565b7f43616e6e6f74207472616e7366657220746f207a65726f206164647265737300600082015250565b60006144ef601f83613a0c565b91506144fa826144b9565b602082019050919050565b6000602082019050818103600083015261451e816144e2565b9050919050565b6000614530826139cd565b915061453b836139cd565b9250828202614549816139cd565b915082820484148315176145605761455f614363565b5b5092915050565b7f44657374696e6174696f6e207573657220646f6573206e6f742068617665206560008201527f6e6f7567682070617263656c7300000000000000000000000000000000000000602082015250565b60006145c3602d83613a0c565b91506145ce82614567565b604082019050919050565b600060208201905081810360008301526145f2816145b6565b9050919050565b6000614604826139cd565b91507fffffffffffffffffffffffffffffffffffffffffffffffffffffffffffffffff820361463657614635614363565b5b600182019050919050565b7f4552433732313a2063616c6c6572206973206e6f7420746f6b656e206f776e6560008201527f72206f7220617070726f76656400000000000000000000000000000000000000602082015250565b600061469d602d83613a0c565b91506146a882614641565b604082019050919050565b600060208201905081810360008301526146cc81614690565b9050919050565b7f416d6f756e74206d757374206265206265747765656e20312e3220616e64203660008201527f2e3520746f6b656e7320287363616c6564206279203130290000000000000000602082015250565b600061472f603883613a0c565b915061473a826146d3565b604082019050919050565b6000602082019050818103600083015261475e81614722565b9050919050565b7f4e6f7420656e6f7567682070617263656c7320746f206d696e74206d6f72652060008201527f7472656573000000000000000000000000000000000000000000000000000000602082015250565b60006147c1602583613a0c565b91506147cc82614765565b604082019050919050565b600060208201905081810360008301526147f0816147b4565b9050919050565b7f4552433732313a20696e76616c696420746f6b656e2049440000000000000000600082015250565b600061482d601883613a0c565b9150614838826147f7565b602082019050919050565b6000602082019050818103600083015261485c81614820565b9050919050565b7f4552433732313a2061646472657373207a65726f206973206e6f74206120766160008201527f6c6964206f776e65720000000000000000000000000000000000000000000000602082015250565b60006148bf602983613a0c565b91506148ca82614863565b604082019050919050565b600060208201905081810360008301526148ee816148b2565b9050919050565b7f4164646974696f6e616c2070617263656c73206d75737420626520677265617460008201527f6572207468616e20300000000000000000000000000000000000000000000000602082015250565b6000614951602983613a0c565b915061495c826148f5565b604082019050919050565b6000602082019050818103600083015261498081614944565b9050919050565b6000614992826139cd565b915061499d836139cd565b92508282019050808211156149b5576149b4614363565b5b92915050565b7f50617263656c73206d7573742062652067726561746572207468616e20300000600082015250565b60006149f1601e83613a0c565b91506149fc826149bb565b602082019050919050565b60006020820190508181036000830152614a20816149e4565b9050919050565b600081905092915050565b6000614a3d82613a01565b614a478185614a27565b9350614a57818560208601613a1d565b80840191505092915050565b6000614a6f8285614a32565b9150614a7b8284614a32565b91508190509392505050565b7f4f776e61626c653a206e6577206f776e657220697320746865207a65726f206160008201527f6464726573730000000000000000000000000000000000000000000000000000602082015250565b6000614ae3602683613a0c565b9150614aee82614a87565b604082019050919050565b60006020820190508181036000830152614b1281614ad6565b9050919050565b7f546f6b656e20646f6573206e6f74206578697374000000000000000000000000600082015250565b6000614b4f601483613a0c565b9150614b5a82614b19565b602082019050919050565b60006020820190508181036000830152614b7e81614b42565b9050919050565b6000614b90826139cd565b9150614b9b836139cd565b9250828203905081811115614bb357614bb2614363565b5b92915050565b7f4e6f20746f6b656e732073706563696669656400000000000000000000000000600082015250565b6000614bef601383613a0c565b9150614bfa82614bb9565b602082019050919050565b60006020820190508181036000830152614c1e81614be2565b9050919050565b7f546f6b656e20646f6573206e6f742062656c6f6e6720746f2075736572000000600082015250565b6000614c5b601d83613a0c565b9150614c6682614c25565b602082019050919050565b60006020820190508181036000830152614c8a81614c4e565b9050919050565b7f4f776e61626c653a2063616c6c6572206973206e6f7420746865206f776e6572600082015250565b6000614cc7602083613a0c565b9150614cd282614c91565b602082019050919050565b60006020820190508181036000830152614cf681614cba565b9050919050565b7f4e487b7100000000000000000000000000000000000000000000000000000000600052603160045260246000fd5b7f4552433732313a207472616e736665722066726f6d20696e636f72726563742060008201527f6f776e6572000000000000000000000000000000000000000000000000000000602082015250565b6000614d88602583613a0c565b9150614d9382614d2c565b604082019050919050565b60006020820190508181036000830152614db781614d7b565b9050919050565b7f4552433732313a207472616e7366657220746f20746865207a65726f2061646460008201527f7265737300000000000000000000000000000000000000000000000000000000602082015250565b6000614e1a602483613a0c565b9150614e2582614dbe565b604082019050919050565b60006020820190508181036000830152614e4981614e0d565b9050919050565b6000819050919050565b7f4e487b7100000000000000000000000000000000000000000000000000000000600052601260045260246000fd5b6000614e9482614e50565b9150614e9f83614e50565b925082614eaf57614eae614e5a565b5b600160000383147f800000000000000000000000000000000000000000000000000000000000000083141615614ee857614ee7614363565b5b828205905092915050565b6000614efe82614e50565b9150614f0983614e50565b9250828203905081811260008412168282136000851215161715614f3057614f2f614363565b5b92915050565b6000614f4182614e50565b9150614f4c83614e50565b925082820190508281121560008312168382126000841215161715614f7457614f73614363565b5b92915050565b6000819050919050565b614f95614f90826139cd565b614f7a565b82525050565b60008160601b9050919050565b6000614fb382614f9b565b9050919050565b6000614fc582614fa8565b9050919050565b614fdd614fd882613962565b614fba565b82525050565b6000614fef8286614f84565b602082019150614fff8285614f84565b60208201915061500f8284614fcc565b601482019150819050949350505050565b600061502b826139cd565b9150615036836139cd565b92508261504657615045614e5a565b5b828206905092915050565b7f4552433732313a206d696e7420746f20746865207a65726f2061646472657373600082015250565b6000615087602083613a0c565b915061509282615051565b602082019050919050565b600060208201905081810360008301526150b68161507a565b9050919050565b7f4552433732313a20746f6b656e20616c7265616479206d696e74656400000000600082015250565b60006150f3601c83613a0c565b91506150fe826150bd565b602082019050919050565b60006020820190508181036000830152615122816150e6565b9050919050565b7f45524337323155524953746f726167653a2055524920736574206f66206e6f6e60008201527f6578697374656e7420746f6b656e000000000000000000000000000000000000602082015250565b6000615185602e83613a0c565b915061519082615129565b604082019050919050565b600060208201905081810360008301526151b481615178565b9050919050565b60008190508160005260206000209050919050565b60006020601f8301049050919050565b600082821b905092915050565b60006008830261521d7fffffffffffffffffffffffffffffffffffffffffffffffffffffffffffffffff826151e0565b61522786836151e0565b95508019841693508086168417925050509392505050565b6000819050919050565b600061526461525f61525a846139cd565b61523f565b6139cd565b9050919050565b6000819050919050565b61527e83615249565b61529261528a8261526b565b8484546151ed565b825550505050565b600090565b6152a761529a565b6152b2818484615275565b505050565b5b818110156152d6576152cb60008261529f565b6001810190506152b8565b5050565b601f82111561531b576152ec816151bb565b6152f5846151d0565b81016020851015615304578190505b615318615310856151d0565b8301826152b7565b50505b505050565b600082821c905092915050565b600061533e60001984600802615320565b1980831691505092915050565b6000615357838361532d565b9150826002028217905092915050565b61537082613a01565b67ffffffffffffffff81111561538957615388613e56565b5b6153938254614107565b61539e8282856152da565b600060209050601f8311600181146153d157600084156153bf578287015190505b6153c9858261534b565b865550615431565b601f1984166153df866151bb565b60005b82811015615407578489015182556001820191506020850194506020810190506153e2565b868310156154245784890151615420601f89168261532d565b8355505b6001600288020188555050505b505050505050565b7f4552433732313a20617070726f766520746f2063616c6c657200000000000000600082015250565b600061546f601983613a0c565b915061547a82615439565b602082019050919050565b6000602082019050818103600083015261549e81615462565b9050919050565b7f4552433732313a207472616e7366657220746f206e6f6e20455243373231526560008201527f63656976657220696d706c656d656e7465720000000000000000000000000000602082015250565b6000615501603283613a0c565b915061550c826154a5565b604082019050919050565b60006020820190508181036000830152615530816154f4565b9050919050565b600081519050919050565b600082825260208201905092915050565b600061555e82615537565b6155688185615542565b9350615578818560208601613a1d565b61558181613a47565b840191505092915050565b60006080820190506155a16000830187613b0c565b6155ae6020830186613b0c565b6155bb60408301856139d7565b81810360608301526155cd8184615553565b905095945050505050565b6000815190506155e7816138b3565b92915050565b6000602082840312156156035761560261387d565b5b6000615611848285016155d8565b9150509291505056fe697066733a2f2f516d6270327035324166426e7173315641796444447650646461566a6e317a7566754775536679384a35734c4763697066733a2f2f516d55526d6d4c346e6245576b3546513739716e416f7a694e75524d50436f5664437563646f5839503246515857697066733a2f2f516d4e6136677a68656b45674548316f6f76375561356a505470394650776658355741325834346b6b7377684467a2646970667358221220e72680e69327eea128079c4a2438f6c61789c5baae5d0c203173617c07d5bd0b64736f6c634300081c0033",
  "linkReferences": {},
  "deployedLinkReferences": {}
}