{
  "_format": "hh-sol-artifact-1",
  "contractName": "Marketplace",
  "sourceName": "contracts/Marketplace.sol",
  "abi": [
    {
      "inputs": [
        {
          "internalType": "address",
          "name": "_forestNFT",
          "type": "address"
        },
        {
          "internalType": "address",
          "name": "_forestToken",
          "type": "address"
        }
      ],
      "stateMutability": "nonpayable",
      "type": "constructor"
    },
    {
      "anonymous": false,
      "inputs": [
        {
          "indexed": false,
          "internalType": "uint256",
          "name": "newFee",
          "type": "uint256"
        }
      ],
      "name": "MarketplaceFeeUpdated",
      "type": "event"
    },
    {
      "anonymous": false,
      "inputs": [
        {
          "indexed": true,
          "internalType": "uint256",
          "name": "tokenId",
          "type": "uint256"
        },
        {
          "indexed": true,
          "internalType": "address",
          "name": "seller",
          "type": "address"
        },
        {
          "indexed": false,
          "internalType": "uint256",
          "name": "price",
          "type": "uint256"
        },
        {
          "indexed": false,
          "internalType": "uint256",
          "name": "timestamp",
          "type": "uint256"
        }
      ],
      "name": "NFTListed",
      "type": "event"
    },
    {
      "anonymous": false,
      "inputs": [
        {
          "indexed": true,
          "internalType": "uint256",
          "name": "tokenId",
          "type": "uint256"
        },
        {
          "indexed": true,
          "internalType": "address",
          "name": "seller",
          "type": "address"
        },
        {
          "indexed": true,
          "internalType": "address",
          "name": "buyer",
          "type": "address"
        },
        {
          "indexed": false,
          "internalType": "uint256",
          "name": "price",
          "type": "uint256"
        },
        {
          "indexed": false,
          "internalType": "uint256",
          "name": "fee",
          "type": "uint256"
        },
        {
          "indexed": false,
          "internalType": "uint256",
          "name": "timestamp",
          "type": "uint256"
        }
      ],
      "name": "NFTSold",
      "type": "event"
    },
    {
      "anonymous": false,
      "inputs": [
        {
          "indexed": true,
          "internalType": "uint256",
          "name": "tokenId",
          "type": "uint256"
        },
        {
          "indexed": true,
          "internalType": "address",
          "name": "seller",
          "type": "address"
        },
        {
          "indexed": false,
          "internalType": "uint256",
          "name": "timestamp",
          "type": "uint256"
        }
      ],
      "name": "NFTUnlisted",
      "type": "event"
    },
    {
      "anonymous": false,
      "inputs": [
        {
          "indexed": true,
          "internalType": "address",
          "name": "previousOwner",
          "type": "address"
        },
        {
          "indexed": true,
          "internalType": "address",
          "name": "newOwner",
          "type": "address"
        }
      ],
      "name": "OwnershipTransferred",
      "type": "event"
    },
    {
      "inputs": [
        {
          "internalType": "uint256",
          "name": "",
          "type": "uint256"
        }
      ],
      "name": "activeListingIndex",
      "outputs": [
        {
          "internalType": "uint256",
          "name": "",
          "type": "uint256"
        }
      ],
      "stateMutability": "view",
      "type": "function"
    },
    {
      "inputs": [
        {
          "internalType": "uint256",
          "name": "",
          "type": "uint256"
        }
      ],
      "name": "activeListings",
      "outputs": [
        {
          "internalType": "uint256",
          "name": "",
          "type": "uint256"
        }
      ],
      "stateMutability": "view",
      "type": "function"
    },
    {
      "inputs": [
        {
          "internalType": "address",
          "name": "buyer",
          "type": "address"
        },
        {
          "internalType": "uint256",
          "name": "tokenId",
          "type": "uint256"
        }
      ],
      "name": "buyNFT",
      "outputs": [],
      "stateMutability": "nonpayable",
      "type": "function"
    },
    {
      "inputs": [
        {
          "internalType": "address",
          "name": "user",
          "type": "address"
        },
        {
          "internalType": "uint256",
          "name": "tokenId",
          "type": "uint256"
        }
      ],
      "name": "canBuyNFT",
      "outputs": [
        {
          "internalType": "bool",
          "name": "",
          "type": "bool"
        }
      ],
      "stateMutability": "view",
      "type": "function"
    },
    {
      "inputs": [],
      "name": "forestNFT",
      "outputs": [
        {
          "internalType": "contract ForestNFT",
          "name": "",
          "type": "address"
        }
      ],
      "stateMutability": "view",
      "type": "function"
    },
    {
      "inputs": [],
      "name": "forestToken",
      "outputs": [
        {
          "internalType": "contract ForestToken",
          "name": "",
          "type": "address"
        }
      ],
      "stateMutability": "view",
      "type": "function"
    },
    {
      "inputs": [],
      "name": "getActiveListings",
      "outputs": [
        {
          "internalType": "uint256[]",
          "name": "",
          "type": "uint256[]"
        }
      ],
      "stateMutability": "view",
      "type": "function"
    },
    {
      "inputs": [
        {
          "internalType": "uint256",
          "name": "offset",
          "type": "uint256"
        },
        {
          "internalType": "uint256",
          "name": "limit",
          "type": "uint256"
        }
      ],
      "name": "getActiveListingsWithDetails",
      "outputs": [
        {
          "components": [
            {
              "internalType": "uint256",
              "name": "tokenId",
              "type": "uint256"
            },
            {
              "internalType": "address",
              "name": "seller",
              "type": "address"
            },
            {
              "internalType": "uint256",
              "name": "price",
              "type": "uint256"
            },
            {
              "internalType": "bool",
              "name": "isActive",
              "type": "bool"
            },
            {
              "internalType": "uint256",
              "name": "listedAt",
              "type": "uint256"
            }
          ],
          "internalType": "struct Marketplace.Listing[]",
          "name": "",
          "type": "tuple[]"
        }
      ],
      "stateMutability": "view",
      "type": "function"
    },
    {
      "inputs": [
        {
          "internalType": "uint256",
          "name": "tokenId",
          "type": "uint256"
        }
      ],
      "name": "getListing",
      "outputs": [
        {
          "components": [
            {
              "internalType": "uint256",
              "name": "tokenId",
              "type": "uint256"
            },
            {
              "internalType": "address",
              "name": "seller",
              "type": "address"
            },
            {
              "internalType": "uint256",
              "name": "price",
              "type": "uint256"
            },
            {
              "internalType": "bool",
              "name": "isActive",
              "type": "bool"
            },
            {
              "internalType": "uint256",
              "name": "listedAt",
              "type": "uint256"
            }
          ],
          "internalType": "struct Marketplace.Listing",
          "name": "",
          "type": "tuple"
        }
      ],
      "stateMutability": "view",
      "type": "function"
    },
    {
      "inputs": [],
      "name": "getMarketplaceStats",
      "outputs": [
        {
          "internalType": "uint256",
          "name": "totalActiveListings",
          "type": "uint256"
        },
        {
          "internalType": "uint256",
          "name": "",
          "type": "uint256"
        },
        {
          "internalType": "uint256",
          "name": "currentFee",
          "type": "uint256"
        }
      ],
      "stateMutability": "view",
      "type": "function"
    },
    {
      "inputs": [
        {
          "internalType": "uint256",
          "name": "tokenId",
          "type": "uint256"
        }
      ],
      "name": "getNFTDetails",
      "outputs": [
        {
          "internalType": "address",
          "name": "owner",
          "type": "address"
        },
        {
          "internalType": "enum ForestNFT.Rarity",
          "name": "rarity",
          "type": "uint8"
        },
        {
          "internalType": "string",
          "name": "tokenURI",
          "type": "string"
        },
        {
          "internalType": "bool",
          "name": "isListed",
          "type": "bool"
        },
        {
          "internalType": "uint256",
          "name": "price",
          "type": "uint256"
        }
      ],
      "stateMutability": "view",
      "type": "function"
    },
    {
      "inputs": [
        {
          "internalType": "address",
          "name": "user",
          "type": "address"
        }
      ],
      "name": "getUserListings",
      "outputs": [
        {
          "internalType": "uint256[]",
          "name": "",
          "type": "uint256[]"
        }
      ],
      "stateMutability": "view",
      "type": "function"
    },
    {
      "inputs": [
        {
          "internalType": "address",
          "name": "user",
          "type": "address"
        }
      ],
      "name": "getUserNFTsWithListingStatus",
      "outputs": [
        {
          "internalType": "uint256[]",
          "name": "tokenIds",
          "type": "uint256[]"
        },
        {
          "internalType": "bool[]",
          "name": "isListedArray",
          "type": "bool[]"
        },
        {
          "internalType": "uint256[]",
          "name": "prices",
          "type": "uint256[]"
        }
      ],
      "stateMutability": "view",
      "type": "function"
    },
    {
      "inputs": [
        {
          "internalType": "address",
          "name": "seller",
          "type": "address"
        },
        {
          "internalType": "uint256",
          "name": "tokenId",
          "type": "uint256"
        },
        {
          "internalType": "uint256",
          "name": "price",
          "type": "uint256"
        }
      ],
      "name": "listNFT",
      "outputs": [],
      "stateMutability": "nonpayable",
      "type": "function"
    },
    {
      "inputs": [
        {
          "internalType": "uint256",
          "name": "",
          "type": "uint256"
        }
      ],
      "name": "listingIndex",
      "outputs": [
        {
          "internalType": "uint256",
          "name": "",
          "type": "uint256"
        }
      ],
      "stateMutability": "view",
      "type": "function"
    },
    {
      "inputs": [
        {
          "internalType": "uint256",
          "name": "",
          "type": "uint256"
        }
      ],
      "name": "listings",
      "outputs": [
        {
          "internalType": "uint256",
          "name": "tokenId",
          "type": "uint256"
        },
        {
          "internalType": "address",
          "name": "seller",
          "type": "address"
        },
        {
          "internalType": "uint256",
          "name": "price",
          "type": "uint256"
        },
        {
          "internalType": "bool",
          "name": "isActive",
          "type": "bool"
        },
        {
          "internalType": "uint256",
          "name": "listedAt",
          "type": "uint256"
        }
      ],
      "stateMutability": "view",
      "type": "function"
    },
    {
      "inputs": [],
      "name": "marketplaceFee",
      "outputs": [
        {
          "internalType": "uint256",
          "name": "",
          "type": "uint256"
        }
      ],
      "stateMutability": "view",
      "type": "function"
    },
    {
      "inputs": [],
      "name": "owner",
      "outputs": [
        {
          "internalType": "address",
          "name": "",
          "type": "address"
        }
      ],
      "stateMutability": "view",
      "type": "function"
    },
    {
      "inputs": [
        {
          "internalType": "uint256",
          "name": "tokenId",
          "type": "uint256"
        }
      ],
      "name": "removeInvalidListing",
      "outputs": [],
      "stateMutability": "nonpayable",
      "type": "function"
    },
    {
      "inputs": [],
      "name": "renounceOwnership",
      "outputs": [],
      "stateMutability": "nonpayable",
      "type": "function"
    },
    {
      "inputs": [
        {
          "internalType": "uint256",
          "name": "_fee",
          "type": "uint256"
        }
      ],
      "name": "setMarketplaceFee",
      "outputs": [],
      "stateMutability": "nonpayable",
      "type": "function"
    },
    {
      "inputs": [
        {
          "internalType": "address",
          "name": "newOwner",
          "type": "address"
        }
      ],
      "name": "transferOwnership",
      "outputs": [],
      "stateMutability": "nonpayable",
      "type": "function"
    },
    {
      "inputs": [
        {
          "internalType": "address",
          "name": "seller",
          "type": "address"
        },
        {
          "internalType": "uint256",
          "name": "tokenId",
          "type": "uint256"
        }
      ],
      "name": "unlistNFT",
      "outputs": [],
      "stateMutability": "nonpayable",
      "type": "function"
    },
    {
      "inputs": [
        {
          "internalType": "address",
          "name": "_forestNFT",
          "type": "address"
        }
      ],
      "name": "updateForestNFTContract",
      "outputs": [],
      "stateMutability": "nonpayable",
      "type": "function"
    },
    {
      "inputs": [
        {
          "internalType": "address",
          "name": "_forestToken",
          "type": "address"
        }
      ],
      "name": "updateForestTokenContract",
      "outputs": [],
      "stateMutability": "nonpayable",
      "type": "function"
    },
    {
      "inputs": [
        {
          "internalType": "address",
          "name": "seller",
          "type": "address"
        },
        {
          "internalType": "uint256",
          "name": "tokenId",
          "type": "uint256"
        },
        {
          "internalType": "uint256",
          "name": "newPrice",
          "type": "uint256"
        }
      ],
      "name": "updateListingPrice",
      "outputs": [],
      "stateMutability": "nonpayable",
      "type": "function"
    },
    {
      "inputs": [
        {
          "internalType": "address",
          "name": "",
          "type": "address"
        },
        {
          "internalType": "uint256",
          "name": "",
          "type": "uint256"
        }
      ],
      "name": "userListings",
      "outputs": [
        {
          "internalType": "uint256",
          "name": "",
          "type": "uint256"
        }
      ],
      "stateMutability": "view",
      "type": "function"
    }
  ],
  "bytecode": "0x6080604052600560045534801561001557600080fd5b50604051613b9d380380613b9d83398181016040528101906100379190610212565b6100536100486100e360201b60201c565b6100eb60201b60201c565b6001808190555081600260006101000a81548173ffffffffffffffffffffffffffffffffffffffff021916908373ffffffffffffffffffffffffffffffffffffffff16021790555080600360006101000a81548173ffffffffffffffffffffffffffffffffffffffff021916908373ffffffffffffffffffffffffffffffffffffffff1602179055505050610252565b600033905090565b60008060009054906101000a900473ffffffffffffffffffffffffffffffffffffffff169050816000806101000a81548173ffffffffffffffffffffffffffffffffffffffff021916908373ffffffffffffffffffffffffffffffffffffffff1602179055508173ffffffffffffffffffffffffffffffffffffffff168173ffffffffffffffffffffffffffffffffffffffff167f8be0079c531659141344cd1fd0a4f28419497f9722a3daafe3b4186f6b6457e060405160405180910390a35050565b600080fd5b600073ffffffffffffffffffffffffffffffffffffffff82169050919050565b60006101df826101b4565b9050919050565b6101ef816101d4565b81146101fa57600080fd5b50565b60008151905061020c816101e6565b92915050565b60008060408385031215610229576102286101af565b5b6000610237858286016101fd565b9250506020610248858286016101fd565b9150509250929050565b61393c806102616000396000f3fe608060405234801561001057600080fd5b50600436106101a95760003560e01c806387c35bc0116100f9578063bb154db611610097578063eb18a9d811610071578063eb18a9d8146104ec578063ed688b3e1461051c578063f2fde38b1461054c578063f7232f6714610568576101a9565b8063bb154db61461046a578063de74e57b14610488578063e2b4d3c8146104bc576101a9565b80639407ea98116100d35780639407ea98146103e657806395de1de614610402578063a82ba76f14610432578063ad05f1b41461044e576101a9565b806387c35bc01461038e5780638c6585c9146103ac5780638da5cb5b146103c8576101a9565b806364bbd7e1116101665780637fc27efd116101405780637fc27efd146102ee578063812d966a1461030a57806382260f351461032a57806386cfa7d31461035e576101a9565b806364bbd7e1146102aa5780636a166964146102c6578063715018a6146102e4576101a9565b806309124885146101ae578063107a274a146101cc57806328444867146101fc5780634382b3ef146102185780635f6bd74b1461024a57806361cf48631461027a575b600080fd5b6101b6610584565b6040516101c391906126b9565b60405180910390f35b6101e660048036038101906101e1919061271e565b6105aa565b6040516101f391906127fe565b60405180910390f35b61021660048036038101906102119190612845565b610666565b005b610232600480360381019061022d9190612845565b6106b2565b604051610241939291906129d0565b60405180910390f35b610264600480360381019061025f919061271e565b610954565b6040516102719190612a2b565b60405180910390f35b610294600480360381019061028f919061271e565b61096c565b6040516102a19190612a2b565b60405180910390f35b6102c460048036038101906102bf919061271e565b610990565b005b6102ce610b12565b6040516102db9190612a2b565b60405180910390f35b6102ec610b18565b005b61030860048036038101906103039190612a46565b610b2c565b005b610312610cad565b60405161032193929190612a86565b60405180910390f35b610344600480360381019061033f919061271e565b610cc4565b604051610355959493929190612be2565b60405180910390f35b61037860048036038101906103739190612a46565b610f00565b6040516103859190612a2b565b60405180910390f35b610396610f31565b6040516103a39190612c3c565b60405180910390f35b6103c660048036038101906103c19190612845565b610f89565b005b6103d0610fd5565b6040516103dd9190612c5e565b60405180910390f35b61040060048036038101906103fb919061271e565b610ffe565b005b61041c6004803603810190610417919061271e565b61108b565b6040516104299190612a2b565b60405180910390f35b61044c60048036038101906104479190612a46565b6110a3565b005b61046860048036038101906104639190612c79565b6115af565b005b6104726119cc565b60405161047f9190612ced565b60405180910390f35b6104a2600480360381019061049d919061271e565b6119f2565b6040516104b3959493929190612d08565b60405180910390f35b6104d660048036038101906104d19190612a46565b611a55565b6040516104e39190612d5b565b60405180910390f35b61050660048036038101906105019190612845565b611c09565b6040516105139190612c3c565b60405180910390f35b61053660048036038101906105319190612d76565b611ca0565b6040516105439190612ecd565b60405180910390f35b61056660048036038101906105619190612845565b611eb2565b005b610582600480360381019061057d9190612c79565b611f35565b005b600260009054906101000a900473ffffffffffffffffffffffffffffffffffffffff1681565b6105b26125f3565b600560008381526020019081526020016000206040518060a0016040529081600082015481526020016001820160009054906101000a900473ffffffffffffffffffffffffffffffffffffffff1673ffffffffffffffffffffffffffffffffffffffff1673ffffffffffffffffffffffffffffffffffffffff168152602001600282015481526020016003820160009054906101000a900460ff161515151581526020016004820154815250509050919050565b61066e6120fe565b80600260006101000a81548173ffffffffffffffffffffffffffffffffffffffff021916908373ffffffffffffffffffffffffffffffffffffffff16021790555050565b60608060606000600260009054906101000a900473ffffffffffffffffffffffffffffffffffffffff1673ffffffffffffffffffffffffffffffffffffffff16638462151c866040518263ffffffff1660e01b81526004016107149190612c5e565b600060405180830381865afa158015610731573d6000803e3d6000fd5b505050506040513d6000823e3d601f19601f8201168201806040525081019061075a919061304c565b90506000815190508067ffffffffffffffff81111561077c5761077b612ef4565b5b6040519080825280602002602001820160405280156107aa5781602001602082028036833780820191505090505b5094508067ffffffffffffffff8111156107c7576107c6612ef4565b5b6040519080825280602002602001820160405280156107f55781602001602082028036833780820191505090505b5093508067ffffffffffffffff81111561081257610811612ef4565b5b6040519080825280602002602001820160405280156108405781602001602082028036833780820191505090505b50925060005b8181101561094a57600083828151811061086357610862613095565b5b602002602001015190508087838151811061088157610880613095565b5b6020026020010181815250506005600082815260200190815260200160002060030160009054906101000a900460ff168683815181106108c4576108c3613095565b5b6020026020010190151590811515815250506005600082815260200190815260200160002060030160009054906101000a900460ff1661090557600061091d565b60056000828152602001908152602001600020600201545b8583815181106109305761092f613095565b5b602002602001018181525050508080600101915050610846565b5050509193909250565b60076020528060005260406000206000915090505481565b6008818154811061097c57600080fd5b906000526020600020016000915090505481565b6109986120fe565b6005600082815260200190815260200160002060030160009054906101000a900460ff166109fb576040517f08c379a00000000000000000000000000000000000000000000000000000000081526004016109f290613110565b60405180910390fd5b6000600260009054906101000a900473ffffffffffffffffffffffffffffffffffffffff1673ffffffffffffffffffffffffffffffffffffffff1663a5cd761f836040518263ffffffff1660e01b8152600401610a589190612a2b565b602060405180830381865afa158015610a75573d6000803e3d6000fd5b505050506040513d601f19601f82011682018060405250810190610a999190613145565b90506005600083815260200190815260200160002060010160009054906101000a900473ffffffffffffffffffffffffffffffffffffffff1673ffffffffffffffffffffffffffffffffffffffff168173ffffffffffffffffffffffffffffffffffffffff1614610b0e57610b0d8261217c565b5b5050565b60045481565b610b206120fe565b610b2a60006124cf565b565b610b346120fe565b610b3c612593565b81818173ffffffffffffffffffffffffffffffffffffffff166005600083815260200190815260200160002060010160009054906101000a900473ffffffffffffffffffffffffffffffffffffffff1673ffffffffffffffffffffffffffffffffffffffff1614610be2576040517f08c379a0000000000000000000000000000000000000000000000000000000008152600401610bd9906131be565b60405180910390fd5b826005600082815260200190815260200160002060030160009054906101000a900460ff16610c46576040517f08c379a0000000000000000000000000000000000000000000000000000000008152600401610c3d90613110565b60405180910390fd5b610c4f8461217c565b8473ffffffffffffffffffffffffffffffffffffffff16847f8f9014d579827ba6d1ba45a0d8d28471abf148118236b84eea5df0406035894842604051610c969190612a2b565b60405180910390a3505050610ca96125e2565b5050565b600080600060088054905092506004549050909192565b6000806060600080600260009054906101000a900473ffffffffffffffffffffffffffffffffffffffff1673ffffffffffffffffffffffffffffffffffffffff1663a5cd761f876040518263ffffffff1660e01b8152600401610d279190612a2b565b602060405180830381865afa158015610d44573d6000803e3d6000fd5b505050506040513d601f19601f82011682018060405250810190610d689190613145565b9450600260009054906101000a900473ffffffffffffffffffffffffffffffffffffffff1673ffffffffffffffffffffffffffffffffffffffff1663afb0a369876040518263ffffffff1660e01b8152600401610dc59190612a2b565b602060405180830381865afa158015610de2573d6000803e3d6000fd5b505050506040513d601f19601f82011682018060405250810190610e069190613203565b9350600260009054906101000a900473ffffffffffffffffffffffffffffffffffffffff1673ffffffffffffffffffffffffffffffffffffffff1663c87b56dd876040518263ffffffff1660e01b8152600401610e639190612a2b565b600060405180830381865afa158015610e80573d6000803e3d6000fd5b505050506040513d6000823e3d601f19601f82011682018060405250810190610ea991906132d6565b92506005600087815260200190815260200160002060030160009054906101000a900460ff16915081610edd576000610ef5565b60056000878152602001908152602001600020600201545b905091939590929450565b60066020528160005260406000208181548110610f1c57600080fd5b90600052602060002001600091509150505481565b60606008805480602002602001604051908101604052809291908181526020018280548015610f7f57602002820191906000526020600020905b815481526020019060010190808311610f6b575b5050505050905090565b610f916120fe565b80600360006101000a81548173ffffffffffffffffffffffffffffffffffffffff021916908373ffffffffffffffffffffffffffffffffffffffff16021790555050565b60008060009054906101000a900473ffffffffffffffffffffffffffffffffffffffff16905090565b6110066120fe565b600a81111561104a576040517f08c379a00000000000000000000000000000000000000000000000000000000081526004016110419061336b565b60405180910390fd5b806004819055507fe18aa129833f655a8166b6185277fee7a53f67e46fd32329bc2fc2ac21274d55816040516110809190612a2b565b60405180910390a150565b60096020528060005260406000206000915090505481565b6110ab6120fe565b6110b3612593565b806005600082815260200190815260200160002060030160009054906101000a900460ff16611117576040517f08c379a000000000000000000000000000000000000000000000000000000000815260040161110e90613110565b60405180910390fd5b6000600560008481526020019081526020016000206040518060a0016040529081600082015481526020016001820160009054906101000a900473ffffffffffffffffffffffffffffffffffffffff1673ffffffffffffffffffffffffffffffffffffffff1673ffffffffffffffffffffffffffffffffffffffff168152602001600282015481526020016003820160009054906101000a900460ff1615151515815260200160048201548152505090508373ffffffffffffffffffffffffffffffffffffffff16816020015173ffffffffffffffffffffffffffffffffffffffff160361123a576040517f08c379a0000000000000000000000000000000000000000000000000000000008152600401611231906133d7565b60405180910390fd5b6000600360009054906101000a900473ffffffffffffffffffffffffffffffffffffffff1673ffffffffffffffffffffffffffffffffffffffff1663f5c46e41866040518263ffffffff1660e01b81526004016112979190612c5e565b602060405180830381865afa1580156112b4573d6000803e3d6000fd5b505050506040513d601f19601f820116820180604052508101906112d891906133f7565b90508160400151811015611321576040517f08c379a000000000000000000000000000000000000000000000000000000000815260040161131890613470565b60405180910390fd5b60006064600454846040015161133791906134bf565b6113419190613530565b905060008184604001516113559190613561565b9050600360009054906101000a900473ffffffffffffffffffffffffffffffffffffffff1673ffffffffffffffffffffffffffffffffffffffff166389e5ae20888660200151846040518463ffffffff1660e01b81526004016113ba93929190613595565b600060405180830381600087803b1580156113d457600080fd5b505af11580156113e8573d6000803e3d6000fd5b50505050600082111561148e57600360009054906101000a900473ffffffffffffffffffffffffffffffffffffffff1673ffffffffffffffffffffffffffffffffffffffff166389e5ae208861143c610fd5565b856040518463ffffffff1660e01b815260040161145b93929190613595565b600060405180830381600087803b15801561147557600080fd5b505af1158015611489573d6000803e3d6000fd5b505050505b600260009054906101000a900473ffffffffffffffffffffffffffffffffffffffff1673ffffffffffffffffffffffffffffffffffffffff16630f05449c856020015189896040518463ffffffff1660e01b81526004016114f193929190613595565b600060405180830381600087803b15801561150b57600080fd5b505af115801561151f573d6000803e3d6000fd5b5050505061152c8661217c565b8673ffffffffffffffffffffffffffffffffffffffff16846020015173ffffffffffffffffffffffffffffffffffffffff16877fe429b79bc0da8809ab9cb14bcb079af569cad6810169a98f161f26942324f5c48760400151864260405161159693929190612a86565b60405180910390a450505050506115ab6125e2565b5050565b6115b76120fe565b6115bf612593565b60008111611602576040517f08c379a00000000000000000000000000000000000000000000000000000000081526004016115f990613618565b60405180910390fd5b6005600083815260200190815260200160002060030160009054906101000a900460ff1615611666576040517f08c379a000000000000000000000000000000000000000000000000000000000815260040161165d90613684565b60405180910390fd5b6000600260009054906101000a900473ffffffffffffffffffffffffffffffffffffffff1673ffffffffffffffffffffffffffffffffffffffff1663a5cd761f846040518263ffffffff1660e01b81526004016116c39190612a2b565b602060405180830381865afa1580156116e0573d6000803e3d6000fd5b505050506040513d601f19601f820116820180604052508101906117049190613145565b90508373ffffffffffffffffffffffffffffffffffffffff168173ffffffffffffffffffffffffffffffffffffffff1614611774576040517f08c379a000000000000000000000000000000000000000000000000000000000815260040161176b906136f0565b60405180910390fd5b6040518060a001604052808481526020018573ffffffffffffffffffffffffffffffffffffffff16815260200183815260200160011515815260200142815250600560008581526020019081526020016000206000820151816000015560208201518160010160006101000a81548173ffffffffffffffffffffffffffffffffffffffff021916908373ffffffffffffffffffffffffffffffffffffffff1602179055506040820151816002015560608201518160030160006101000a81548160ff02191690831515021790555060808201518160040155905050600660008573ffffffffffffffffffffffffffffffffffffffff1673ffffffffffffffffffffffffffffffffffffffff1681526020019081526020016000208390806001815401808255809150506001900390600052602060002001600090919091909150556001600660008673ffffffffffffffffffffffffffffffffffffffff1673ffffffffffffffffffffffffffffffffffffffff168152602001908152602001600020805490506119049190613561565b6007600085815260200190815260200160002081905550600883908060018154018082558091505060019003906000526020600020016000909190919091505560016008805490506119569190613561565b60096000858152602001908152602001600020819055508373ffffffffffffffffffffffffffffffffffffffff16837f36e94395fafcb0d2a9bcfcdd5cef807ab52a1f4382906992ebdc18de5f1472c484426040516119b6929190613710565b60405180910390a3506119c76125e2565b505050565b600360009054906101000a900473ffffffffffffffffffffffffffffffffffffffff1681565b60056020528060005260406000206000915090508060000154908060010160009054906101000a900473ffffffffffffffffffffffffffffffffffffffff16908060020154908060030160009054906101000a900460ff16908060040154905085565b600080600560008481526020019081526020016000206040518060a0016040529081600082015481526020016001820160009054906101000a900473ffffffffffffffffffffffffffffffffffffffff1673ffffffffffffffffffffffffffffffffffffffff1673ffffffffffffffffffffffffffffffffffffffff168152602001600282015481526020016003820160009054906101000a900460ff16151515158152602001600482015481525050905080606001511580611b4757508373ffffffffffffffffffffffffffffffffffffffff16816020015173ffffffffffffffffffffffffffffffffffffffff16145b15611b56576000915050611c03565b6000600360009054906101000a900473ffffffffffffffffffffffffffffffffffffffff1673ffffffffffffffffffffffffffffffffffffffff1663f5c46e41866040518263ffffffff1660e01b8152600401611bb39190612c5e565b602060405180830381865afa158015611bd0573d6000803e3d6000fd5b505050506040513d601f19601f82011682018060405250810190611bf491906133f7565b90508160400151811015925050505b92915050565b6060600660008373ffffffffffffffffffffffffffffffffffffffff1673ffffffffffffffffffffffffffffffffffffffff168152602001908152602001600020805480602002602001604051908101604052809291908181526020018280548015611c9457602002820191906000526020600020905b815481526020019060010190808311611c80575b50505050509050919050565b606060006008805490509050808410611d1057600067ffffffffffffffff811115611cce57611ccd612ef4565b5b604051908082528060200260200182016040528015611d0757816020015b611cf46125f3565b815260200190600190039081611cec5790505b50915050611eac565b60008385611d1e9190613739565b905081811115611d2c578190505b60008582611d3a9190613561565b67ffffffffffffffff811115611d5357611d52612ef4565b5b604051908082528060200260200182016040528015611d8c57816020015b611d796125f3565b815260200190600190039081611d715790505b50905060008690505b82811015611ea457600060088281548110611db357611db2613095565b5b90600052602060002001549050600560008281526020019081526020016000206040518060a0016040529081600082015481526020016001820160009054906101000a900473ffffffffffffffffffffffffffffffffffffffff1673ffffffffffffffffffffffffffffffffffffffff1673ffffffffffffffffffffffffffffffffffffffff168152602001600282015481526020016003820160009054906101000a900460ff16151515158152602001600482015481525050838984611e7a9190613561565b81518110611e8b57611e8a613095565b5b6020026020010181905250508080600101915050611d95565b508093505050505b92915050565b611eba6120fe565b600073ffffffffffffffffffffffffffffffffffffffff168173ffffffffffffffffffffffffffffffffffffffff1603611f29576040517f08c379a0000000000000000000000000000000000000000000000000000000008152600401611f20906137df565b60405180910390fd5b611f32816124cf565b50565b611f3d6120fe565b82828173ffffffffffffffffffffffffffffffffffffffff166005600083815260200190815260200160002060010160009054906101000a900473ffffffffffffffffffffffffffffffffffffffff1673ffffffffffffffffffffffffffffffffffffffff1614611fe3576040517f08c379a0000000000000000000000000000000000000000000000000000000008152600401611fda906131be565b60405180910390fd5b836005600082815260200190815260200160002060030160009054906101000a900460ff16612047576040517f08c379a000000000000000000000000000000000000000000000000000000000815260040161203e90613110565b60405180910390fd5b6000841161208a576040517f08c379a000000000000000000000000000000000000000000000000000000000815260040161208190613618565b60405180910390fd5b8360056000878152602001908152602001600020600201819055508573ffffffffffffffffffffffffffffffffffffffff16857f36e94395fafcb0d2a9bcfcdd5cef807ab52a1f4382906992ebdc18de5f1472c486426040516120ee929190613710565b60405180910390a3505050505050565b6121066125eb565b73ffffffffffffffffffffffffffffffffffffffff16612124610fd5565b73ffffffffffffffffffffffffffffffffffffffff161461217a576040517f08c379a00000000000000000000000000000000000000000000000000000000081526004016121719061384b565b60405180910390fd5b565b60006005600083815260200190815260200160002090508060030160009054906101000a900460ff166121e4576040517f08c379a00000000000000000000000000000000000000000000000000000000081526004016121db90613110565b60405180910390fd5b60008160030160006101000a81548160ff02191690831515021790555060008160010160009054906101000a900473ffffffffffffffffffffffffffffffffffffffff16905060006007600085815260200190815260200160002054905060006001600660008573ffffffffffffffffffffffffffffffffffffffff1673ffffffffffffffffffffffffffffffffffffffff168152602001908152602001600020805490506122939190613561565b9050808214612376576000600660008573ffffffffffffffffffffffffffffffffffffffff1673ffffffffffffffffffffffffffffffffffffffff16815260200190815260200160002082815481106122ef576122ee613095565b5b9060005260206000200154905080600660008673ffffffffffffffffffffffffffffffffffffffff1673ffffffffffffffffffffffffffffffffffffffff168152602001908152602001600020848154811061234e5761234d613095565b5b9060005260206000200181905550826007600083815260200190815260200160002081905550505b600660008473ffffffffffffffffffffffffffffffffffffffff1673ffffffffffffffffffffffffffffffffffffffff1681526020019081526020016000208054806123c5576123c461386b565b5b6001900381819060005260206000200160009055905560076000868152602001908152602001600020600090556000600960008781526020019081526020016000205490506000600160088054905061241e9190613561565b90508082146124875760006008828154811061243d5761243c613095565b5b90600052602060002001549050806008848154811061245f5761245e613095565b5b9060005260206000200181905550826009600083815260200190815260200160002081905550505b60088054806124995761249861386b565b5b60019003818190600052602060002001600090559055600960008881526020019081526020016000206000905550505050505050565b60008060009054906101000a900473ffffffffffffffffffffffffffffffffffffffff169050816000806101000a81548173ffffffffffffffffffffffffffffffffffffffff021916908373ffffffffffffffffffffffffffffffffffffffff1602179055508173ffffffffffffffffffffffffffffffffffffffff168173ffffffffffffffffffffffffffffffffffffffff167f8be0079c531659141344cd1fd0a4f28419497f9722a3daafe3b4186f6b6457e060405160405180910390a35050565b6002600154036125d8576040517f08c379a00000000000000000000000000000000000000000000000000000000081526004016125cf906138e6565b60405180910390fd5b6002600181905550565b60018081905550565b600033905090565b6040518060a0016040528060008152602001600073ffffffffffffffffffffffffffffffffffffffff16815260200160008152602001600015158152602001600081525090565b600073ffffffffffffffffffffffffffffffffffffffff82169050919050565b6000819050919050565b600061267f61267a6126758461263a565b61265a565b61263a565b9050919050565b600061269182612664565b9050919050565b60006126a382612686565b9050919050565b6126b381612698565b82525050565b60006020820190506126ce60008301846126aa565b92915050565b6000604051905090565b600080fd5b600080fd5b6000819050919050565b6126fb816126e8565b811461270657600080fd5b50565b600081359050612718816126f2565b92915050565b600060208284031215612734576127336126de565b5b600061274284828501612709565b91505092915050565b612754816126e8565b82525050565b60006127658261263a565b9050919050565b6127758161275a565b82525050565b60008115159050919050565b6127908161277b565b82525050565b60a0820160008201516127ac600085018261274b565b5060208201516127bf602085018261276c565b5060408201516127d2604085018261274b565b5060608201516127e56060850182612787565b5060808201516127f8608085018261274b565b50505050565b600060a0820190506128136000830184612796565b92915050565b6128228161275a565b811461282d57600080fd5b50565b60008135905061283f81612819565b92915050565b60006020828403121561285b5761285a6126de565b5b600061286984828501612830565b91505092915050565b600081519050919050565b600082825260208201905092915050565b6000819050602082019050919050565b60006128aa838361274b565b60208301905092915050565b6000602082019050919050565b60006128ce82612872565b6128d8818561287d565b93506128e38361288e565b8060005b838110156129145781516128fb888261289e565b9750612906836128b6565b9250506001810190506128e7565b5085935050505092915050565b600081519050919050565b600082825260208201905092915050565b6000819050602082019050919050565b60006129598383612787565b60208301905092915050565b6000602082019050919050565b600061297d82612921565b612987818561292c565b93506129928361293d565b8060005b838110156129c35781516129aa888261294d565b97506129b583612965565b925050600181019050612996565b5085935050505092915050565b600060608201905081810360008301526129ea81866128c3565b905081810360208301526129fe8185612972565b90508181036040830152612a1281846128c3565b9050949350505050565b612a25816126e8565b82525050565b6000602082019050612a406000830184612a1c565b92915050565b60008060408385031215612a5d57612a5c6126de565b5b6000612a6b85828601612830565b9250506020612a7c85828601612709565b9150509250929050565b6000606082019050612a9b6000830186612a1c565b612aa86020830185612a1c565b612ab56040830184612a1c565b949350505050565b612ac68161275a565b82525050565b7f4e487b7100000000000000000000000000000000000000000000000000000000600052602160045260246000fd5b60038110612b0c57612b0b612acc565b5b50565b6000819050612b1d82612afb565b919050565b6000612b2d82612b0f565b9050919050565b612b3d81612b22565b82525050565b600081519050919050565b600082825260208201905092915050565b60005b83811015612b7d578082015181840152602081019050612b62565b60008484015250505050565b6000601f19601f8301169050919050565b6000612ba582612b43565b612baf8185612b4e565b9350612bbf818560208601612b5f565b612bc881612b89565b840191505092915050565b612bdc8161277b565b82525050565b600060a082019050612bf76000830188612abd565b612c046020830187612b34565b8181036040830152612c168186612b9a565b9050612c256060830185612bd3565b612c326080830184612a1c565b9695505050505050565b60006020820190508181036000830152612c5681846128c3565b905092915050565b6000602082019050612c736000830184612abd565b92915050565b600080600060608486031215612c9257612c916126de565b5b6000612ca086828701612830565b9350506020612cb186828701612709565b9250506040612cc286828701612709565b9150509250925092565b6000612cd782612686565b9050919050565b612ce781612ccc565b82525050565b6000602082019050612d026000830184612cde565b92915050565b600060a082019050612d1d6000830188612a1c565b612d2a6020830187612abd565b612d376040830186612a1c565b612d446060830185612bd3565b612d516080830184612a1c565b9695505050505050565b6000602082019050612d706000830184612bd3565b92915050565b60008060408385031215612d8d57612d8c6126de565b5b6000612d9b85828601612709565b9250506020612dac85828601612709565b9150509250929050565b600081519050919050565b600082825260208201905092915050565b6000819050602082019050919050565b60a082016000820151612df8600085018261274b565b506020820151612e0b602085018261276c565b506040820151612e1e604085018261274b565b506060820151612e316060850182612787565b506080820151612e44608085018261274b565b50505050565b6000612e568383612de2565b60a08301905092915050565b6000602082019050919050565b6000612e7a82612db6565b612e848185612dc1565b9350612e8f83612dd2565b8060005b83811015612ec0578151612ea78882612e4a565b9750612eb283612e62565b925050600181019050612e93565b5085935050505092915050565b60006020820190508181036000830152612ee78184612e6f565b905092915050565b600080fd5b7f4e487b7100000000000000000000000000000000000000000000000000000000600052604160045260246000fd5b612f2c82612b89565b810181811067ffffffffffffffff82111715612f4b57612f4a612ef4565b5b80604052505050565b6000612f5e6126d4565b9050612f6a8282612f23565b919050565b600067ffffffffffffffff821115612f8a57612f89612ef4565b5b602082029050602081019050919050565b600080fd5b600081519050612faf816126f2565b92915050565b6000612fc8612fc384612f6f565b612f54565b90508083825260208201905060208402830185811115612feb57612fea612f9b565b5b835b8181101561301457806130008882612fa0565b845260208401935050602081019050612fed565b5050509392505050565b600082601f83011261303357613032612eef565b5b8151613043848260208601612fb5565b91505092915050565b600060208284031215613062576130616126de565b5b600082015167ffffffffffffffff8111156130805761307f6126e3565b5b61308c8482850161301e565b91505092915050565b7f4e487b7100000000000000000000000000000000000000000000000000000000600052603260045260246000fd5b7f4c697374696e67206e6f74206163746976650000000000000000000000000000600082015250565b60006130fa601283612b4e565b9150613105826130c4565b602082019050919050565b60006020820190508181036000830152613129816130ed565b9050919050565b60008151905061313f81612819565b92915050565b60006020828403121561315b5761315a6126de565b5b600061316984828501613130565b91505092915050565b7f4e6f74207468652073656c6c6572000000000000000000000000000000000000600082015250565b60006131a8600e83612b4e565b91506131b382613172565b602082019050919050565b600060208201905081810360008301526131d78161319b565b9050919050565b600381106131eb57600080fd5b50565b6000815190506131fd816131de565b92915050565b600060208284031215613219576132186126de565b5b6000613227848285016131ee565b91505092915050565b600080fd5b600067ffffffffffffffff8211156132505761324f612ef4565b5b61325982612b89565b9050602081019050919050565b600061327961327484613235565b612f54565b90508281526020810184848401111561329557613294613230565b5b6132a0848285612b5f565b509392505050565b600082601f8301126132bd576132bc612eef565b5b81516132cd848260208601613266565b91505092915050565b6000602082840312156132ec576132eb6126de565b5b600082015167ffffffffffffffff81111561330a576133096126e3565b5b613316848285016132a8565b91505092915050565b7f4665652063616e6e6f7420657863656564203130250000000000000000000000600082015250565b6000613355601583612b4e565b91506133608261331f565b602082019050919050565b6000602082019050818103600083015261338481613348565b9050919050565b7f43616e6e6f742062757920796f7572206f776e204e4654000000000000000000600082015250565b60006133c1601783612b4e565b91506133cc8261338b565b602082019050919050565b600060208201905081810360008301526133f0816133b4565b9050919050565b60006020828403121561340d5761340c6126de565b5b600061341b84828501612fa0565b91505092915050565b7f496e73756666696369656e7420746f6b656e2062616c616e6365000000000000600082015250565b600061345a601a83612b4e565b915061346582613424565b602082019050919050565b600060208201905081810360008301526134898161344d565b9050919050565b7f4e487b7100000000000000000000000000000000000000000000000000000000600052601160045260246000fd5b60006134ca826126e8565b91506134d5836126e8565b92508282026134e3816126e8565b915082820484148315176134fa576134f9613490565b5b5092915050565b7f4e487b7100000000000000000000000000000000000000000000000000000000600052601260045260246000fd5b600061353b826126e8565b9150613546836126e8565b92508261355657613555613501565b5b828204905092915050565b600061356c826126e8565b9150613577836126e8565b925082820390508181111561358f5761358e613490565b5b92915050565b60006060820190506135aa6000830186612abd565b6135b76020830185612abd565b6135c46040830184612a1c565b949350505050565b7f5072696365206d7573742062652067726561746572207468616e203000000000600082015250565b6000613602601c83612b4e565b915061360d826135cc565b602082019050919050565b60006020820190508181036000830152613631816135f5565b9050919050565b7f4e465420616c7265616479206c69737465640000000000000000000000000000600082015250565b600061366e601283612b4e565b915061367982613638565b602082019050919050565b6000602082019050818103600083015261369d81613661565b9050919050565b7f53656c6c657220646f65736e2774206f776e2074686973204e46540000000000600082015250565b60006136da601b83612b4e565b91506136e5826136a4565b602082019050919050565b60006020820190508181036000830152613709816136cd565b9050919050565b60006040820190506137256000830185612a1c565b6137326020830184612a1c565b9392505050565b6000613744826126e8565b915061374f836126e8565b925082820190508082111561376757613766613490565b5b92915050565b7f4f776e61626c653a206e6577206f776e657220697320746865207a65726f206160008201527f6464726573730000000000000000000000000000000000000000000000000000602082015250565b60006137c9602683612b4e565b91506137d48261376d565b604082019050919050565b600060208201905081810360008301526137f8816137bc565b9050919050565b7f4f776e61626c653a2063616c6c6572206973206e6f7420746865206f776e6572600082015250565b6000613835602083612b4e565b9150613840826137ff565b602082019050919050565b6000602082019050818103600083015261386481613828565b9050919050565b7f4e487b7100000000000000000000000000000000000000000000000000000000600052603160045260246000fd5b7f5265656e7472616e637947756172643a207265656e7472616e742063616c6c00600082015250565b60006138d0601f83612b4e565b91506138db8261389a565b602082019050919050565b600060208201905081810360008301526138ff816138c3565b905091905056fea2646970667358221220af2555e006cfdc843164217644227ffa86e529d52ed1c9a82ed24f022c682abe64736f6c634300081c0033",
  "linkReferences": {},
  "deployedLinkReferences": {}
}