{
  "_format": "hh-sol-artifact-1",
  "contractName": "UserRegistry",
  "sourceName": "contracts/User.sol",
  "abi": [
    {
      "anonymous": false,
      "inputs": [
        {
          "indexed": true,
          "internalType": "address",
          "name": "user",
          "type": "address"
        },
        {
          "indexed": true,
          "internalType": "address",
          "name": "friend",
          "type": "address"
        },
        {
          "indexed": false,
          "internalType": "uint256",
          "name": "timestamp",
          "type": "uint256"
        }
      ],
      "name": "FriendAdded",
      "type": "event"
    },
    {
      "anonymous": false,
      "inputs": [
        {
          "indexed": true,
          "internalType": "address",
          "name": "user",
          "type": "address"
        },
        {
          "indexed": true,
          "internalType": "address",
          "name": "friend",
          "type": "address"
        },
        {
          "indexed": false,
          "internalType": "uint256",
          "name": "timestamp",
          "type": "uint256"
        }
      ],
      "name": "FriendRemoved",
      "type": "event"
    },
    {
      "anonymous": false,
      "inputs": [
        {
          "indexed": true,
          "internalType": "address",
          "name": "from",
          "type": "address"
        },
        {
          "indexed": true,
          "internalType": "address",
          "name": "to",
          "type": "address"
        },
        {
          "indexed": false,
          "internalType": "uint256",
          "name": "timestamp",
          "type": "uint256"
        }
      ],
      "name": "FriendRequestAccepted",
      "type": "event"
    },
    {
      "anonymous": false,
      "inputs": [
        {
          "indexed": true,
          "internalType": "address",
          "name": "from",
          "type": "address"
        },
        {
          "indexed": true,
          "internalType": "address",
          "name": "to",
          "type": "address"
        },
        {
          "indexed": false,
          "internalType": "uint256",
          "name": "timestamp",
          "type": "uint256"
        }
      ],
      "name": "FriendRequestCancelled",
      "type": "event"
    },
    {
      "anonymous": false,
      "inputs": [
        {
          "indexed": true,
          "internalType": "address",
          "name": "from",
          "type": "address"
        },
        {
          "indexed": true,
          "internalType": "address",
          "name": "to",
          "type": "address"
        },
        {
          "indexed": false,
          "internalType": "uint256",
          "name": "timestamp",
          "type": "uint256"
        }
      ],
      "name": "FriendRequestSent",
      "type": "event"
    },
    {
      "anonymous": false,
      "inputs": [
        {
          "indexed": true,
          "internalType": "address",
          "name": "userAddress",
          "type": "address"
        },
        {
          "indexed": false,
          "internalType": "string",
          "name": "oldName",
          "type": "string"
        },
        {
          "indexed": false,
          "internalType": "string",
          "name": "newName",
          "type": "string"
        },
        {
          "indexed": false,
          "internalType": "uint256",
          "name": "timestamp",
          "type": "uint256"
        }
      ],
      "name": "NameChanged",
      "type": "event"
    },
    {
      "anonymous": false,
      "inputs": [
        {
          "indexed": false,
          "internalType": "string",
          "name": "name",
          "type": "string"
        },
        {
          "indexed": true,
          "internalType": "address",
          "name": "userAddress",
          "type": "address"
        }
      ],
      "name": "NameTaken",
      "type": "event"
    },
    {
      "anonymous": false,
      "inputs": [
        {
          "indexed": true,
          "internalType": "address",
          "name": "previousOwner",
          "type": "address"
        },
        {
          "indexed": true,
          "internalType": "address",
          "name": "newOwner",
          "type": "address"
        }
      ],
      "name": "OwnershipTransferred",
      "type": "event"
    },
    {
      "anonymous": false,
      "inputs": [
        {
          "indexed": true,
          "internalType": "address",
          "name": "userAddress",
          "type": "address"
        },
        {
          "indexed": false,
          "internalType": "string",
          "name": "name",
          "type": "string"
        },
        {
          "indexed": false,
          "internalType": "uint256",
          "name": "timestamp",
          "type": "uint256"
        }
      ],
      "name": "UserRegistered",
      "type": "event"
    },
    {
      "inputs": [
        {
          "internalType": "address",
          "name": "_from",
          "type": "address"
        }
      ],
      "name": "acceptFriendRequest",
      "outputs": [],
      "stateMutability": "nonpayable",
      "type": "function"
    },
    {
      "inputs": [
        {
          "internalType": "address",
          "name": "_from",
          "type": "address"
        },
        {
          "internalType": "address",
          "name": "_to",
          "type": "address"
        }
      ],
      "name": "acceptFriendRequestAdmin",
      "outputs": [],
      "stateMutability": "nonpayable",
      "type": "function"
    },
    {
      "inputs": [
        {
          "internalType": "uint256",
          "name": "",
          "type": "uint256"
        }
      ],
      "name": "allUsers",
      "outputs": [
        {
          "internalType": "address",
          "name": "",
          "type": "address"
        }
      ],
      "stateMutability": "view",
      "type": "function"
    },
    {
      "inputs": [
        {
          "internalType": "address",
          "name": "_user1",
          "type": "address"
        },
        {
          "internalType": "address",
          "name": "_user2",
          "type": "address"
        }
      ],
      "name": "areFriends",
      "outputs": [
        {
          "internalType": "bool",
          "name": "",
          "type": "bool"
        }
      ],
      "stateMutability": "view",
      "type": "function"
    },
    {
      "inputs": [
        {
          "internalType": "address",
          "name": "_to",
          "type": "address"
        }
      ],
      "name": "cancelFriendRequest",
      "outputs": [],
      "stateMutability": "nonpayable",
      "type": "function"
    },
    {
      "inputs": [
        {
          "internalType": "address",
          "name": "_from",
          "type": "address"
        },
        {
          "internalType": "address",
          "name": "_to",
          "type": "address"
        }
      ],
      "name": "cancelFriendRequestAdmin",
      "outputs": [],
      "stateMutability": "nonpayable",
      "type": "function"
    },
    {
      "inputs": [
        {
          "internalType": "string",
          "name": "_newName",
          "type": "string"
        }
      ],
      "name": "changeName",
      "outputs": [],
      "stateMutability": "nonpayable",
      "type": "function"
    },
    {
      "inputs": [
        {
          "internalType": "address",
          "name": "_userAddress",
          "type": "address"
        },
        {
          "internalType": "string",
          "name": "_newName",
          "type": "string"
        }
      ],
      "name": "changeNameAdmin",
      "outputs": [],
      "stateMutability": "nonpayable",
      "type": "function"
    },
    {
      "inputs": [],
      "name": "forestToken",
      "outputs": [
        {
          "internalType": "contract IForestToken",
          "name": "",
          "type": "address"
        }
      ],
      "stateMutability": "view",
      "type": "function"
    },
    {
      "inputs": [
        {
          "internalType": "address",
          "name": "",
          "type": "address"
        },
        {
          "internalType": "address",
          "name": "",
          "type": "address"
        }
      ],
      "name": "friendRequests",
      "outputs": [
        {
          "internalType": "bool",
          "name": "",
          "type": "bool"
        }
      ],
      "stateMutability": "view",
      "type": "function"
    },
    {
      "inputs": [
        {
          "internalType": "string",
          "name": "_name",
          "type": "string"
        }
      ],
      "name": "getAddressByName",
      "outputs": [
        {
          "internalType": "address",
          "name": "",
          "type": "address"
        }
      ],
      "stateMutability": "view",
      "type": "function"
    },
    {
      "inputs": [],
      "name": "getAllUsers",
      "outputs": [
        {
          "internalType": "address[]",
          "name": "",
          "type": "address[]"
        }
      ],
      "stateMutability": "view",
      "type": "function"
    },
    {
      "inputs": [
        {
          "internalType": "address",
          "name": "_userAddress",
          "type": "address"
        }
      ],
      "name": "getFriendCount",
      "outputs": [
        {
          "internalType": "uint256",
          "name": "",
          "type": "uint256"
        }
      ],
      "stateMutability": "view",
      "type": "function"
    },
    {
      "inputs": [
        {
          "internalType": "address",
          "name": "_userAddress",
          "type": "address"
        }
      ],
      "name": "getFriends",
      "outputs": [
        {
          "internalType": "address[]",
          "name": "",
          "type": "address[]"
        }
      ],
      "stateMutability": "view",
      "type": "function"
    },
    {
      "inputs": [],
      "name": "getTotalUsers",
      "outputs": [
        {
          "internalType": "uint256",
          "name": "",
          "type": "uint256"
        }
      ],
      "stateMutability": "view",
      "type": "function"
    },
    {
      "inputs": [
        {
          "internalType": "address",
          "name": "_userAddress",
          "type": "address"
        }
      ],
      "name": "getUserInfo",
      "outputs": [
        {
          "internalType": "string",
          "name": "name",
          "type": "string"
        },
        {
          "internalType": "address",
          "name": "userAddress",
          "type": "address"
        },
        {
          "internalType": "bool",
          "name": "exists",
          "type": "bool"
        },
        {
          "internalType": "address[]",
          "name": "friends",
          "type": "address[]"
        },
        {
          "internalType": "uint256",
          "name": "createdAt",
          "type": "uint256"
        }
      ],
      "stateMutability": "view",
      "type": "function"
    },
    {
      "inputs": [
        {
          "internalType": "string",
          "name": "_name",
          "type": "string"
        }
      ],
      "name": "isNameAvailable",
      "outputs": [
        {
          "internalType": "bool",
          "name": "",
          "type": "bool"
        }
      ],
      "stateMutability": "view",
      "type": "function"
    },
    {
      "inputs": [
        {
          "internalType": "address",
          "name": "_userAddress",
          "type": "address"
        }
      ],
      "name": "isUserRegistered",
      "outputs": [
        {
          "internalType": "bool",
          "name": "",
          "type": "bool"
        }
      ],
      "stateMutability": "view",
      "type": "function"
    },
    {
      "inputs": [
        {
          "internalType": "string",
          "name": "",
          "type": "string"
        }
      ],
      "name": "nameToAddress",
      "outputs": [
        {
          "internalType": "address",
          "name": "",
          "type": "address"
        }
      ],
      "stateMutability": "view",
      "type": "function"
    },
    {
      "inputs": [],
      "name": "owner",
      "outputs": [
        {
          "internalType": "address",
          "name": "",
          "type": "address"
        }
      ],
      "stateMutability": "view",
      "type": "function"
    },
    {
      "inputs": [
        {
          "internalType": "string",
          "name": "_name",
          "type": "string"
        }
      ],
      "name": "registerUser",
      "outputs": [],
      "stateMutability": "nonpayable",
      "type": "function"
    },
    {
      "inputs": [
        {
          "internalType": "address",
          "name": "_from",
          "type": "address"
        },
        {
          "internalType": "string",
          "name": "_name",
          "type": "string"
        }
      ],
      "name": "registerUserAdmin",
      "outputs": [],
      "stateMutability": "nonpayable",
      "type": "function"
    },
    {
      "inputs": [
        {
          "internalType": "address",
          "name": "_friendAddress",
          "type": "address"
        }
      ],
      "name": "removeFriend",
      "outputs": [],
      "stateMutability": "nonpayable",
      "type": "function"
    },
    {
      "inputs": [
        {
          "internalType": "address",
          "name": "_from",
          "type": "address"
        },
        {
          "internalType": "address",
          "name": "_friendAddress",
          "type": "address"
        }
      ],
      "name": "removeFriendAdmin",
      "outputs": [],
      "stateMutability": "nonpayable",
      "type": "function"
    },
    {
      "inputs": [],
      "name": "renounceOwnership",
      "outputs": [],
      "stateMutability": "nonpayable",
      "type": "function"
    },
    {
      "inputs": [
        {
          "internalType": "address",
          "name": "_to",
          "type": "address"
        }
      ],
      "name": "sendFriendRequest",
      "outputs": [],
      "stateMutability": "nonpayable",
      "type": "function"
    },
    {
      "inputs": [
        {
          "internalType": "address",
          "name": "_from",
          "type": "address"
        },
        {
          "internalType": "address",
          "name": "_to",
          "type": "address"
        }
      ],
      "name": "sendFriendRequestAdmin",
      "outputs": [],
      "stateMutability": "nonpayable",
      "type": "function"
    },
    {
      "inputs": [
        {
          "internalType": "address",
          "name": "_forestTokenAddress",
          "type": "address"
        }
      ],
      "name": "setForestTokenAddress",
      "outputs": [],
      "stateMutability": "nonpayable",
      "type": "function"
    },
    {
      "inputs": [
        {
          "internalType": "address",
          "name": "newOwner",
          "type": "address"
        }
      ],
      "name": "transferOwnership",
      "outputs": [],
      "stateMutability": "nonpayable",
      "type": "function"
    },
    {
      "inputs": [
        {
          "internalType": "address",
          "name": "",
          "type": "address"
        }
      ],
      "name": "users",
      "outputs": [
        {
          "internalType": "string",
          "name": "name",
          "type": "string"
        },
        {
          "internalType": "address",
          "name": "userAddress",
          "type": "address"
        },
        {
          "internalType": "bool",
          "name": "exists",
          "type": "bool"
        },
        {
          "internalType": "uint256",
          "name": "createdAt",
          "type": "uint256"
        }
      ],
      "stateMutability": "view",
      "type": "function"
    }
  ],
  "bytecode": "0x608060405234801561001057600080fd5b5061002d61002261003260201b60201c565b61003a60201b60201c565b6100fe565b600033905090565b60008060009054906101000a900473ffffffffffffffffffffffffffffffffffffffff169050816000806101000a81548173ffffffffffffffffffffffffffffffffffffffff021916908373ffffffffffffffffffffffffffffffffffffffff1602179055508173ffffffffffffffffffffffffffffffffffffffff168173ffffffffffffffffffffffffffffffffffffffff167f8be0079c531659141344cd1fd0a4f28419497f9722a3daafe3b4186f6b6457e060405160405180910390a35050565b615b688061010d6000396000f3fe608060405234801561001057600080fd5b50600436106101da5760003560e01c8063837b770a11610104578063a2bdedf4116100a2578063c797c0a811610071578063c797c0a81461058e578063e2842d79146105aa578063f2fde38b146105c8578063f54f2cf6146105e4576101da565b8063a2bdedf4146104f1578063a87430ba14610521578063a9f5646614610554578063bb154db614610570576101da565b80638da5cb5b116100de5780638da5cb5b1461046957806396615fbf146104875780639a65ddec146104a35780639be572f6146104d3576101da565b8063837b770a146103ed5780638a1c43ea146104095780638cf44d2114610439576101da565b80635353a2d81161017c578063704f1b941161014b578063704f1b941461037b578063715018a61461039757806380cee8a5146103a15780638110a800146103bd576101da565b80635353a2d8146102cb5780635cbb7caa146102e75780636386c1c71461031757806366b282531461034b576101da565b80632ee340af116101b85780632ee340af1461025b5780633296ea10146102775780634969d18a146102935780634ec41eca146102af576101da565b806307c55d50146101df57806308d88aad146101fb578063163f75221461022b575b600080fd5b6101f960048036038101906101f491906149cf565b610600565b005b61021560048036038101906102109190614b55565b6108e8565b6040516102229190614bad565b60405180910390f35b61024560048036038101906102409190614bc8565b610931565b6040516102529190614c10565b60405180910390f35b61027560048036038101906102709190614c2b565b61098a565b005b610291600480360381019061028c91906149cf565b610d31565b005b6102ad60048036038101906102a891906149cf565b61115e565b005b6102c960048036038101906102c49190614c2b565b6118e2565b005b6102e560048036038101906102e09190614b55565b611df7565b005b61030160048036038101906102fc9190614bc8565b612303565b60405161030e9190614d45565b60405180910390f35b610331600480360381019061032c9190614bc8565b612464565b604051610342959493929190614dff565b60405180910390f35b61036560048036038101906103609190614bc8565b61261b565b6040516103729190614e60565b60405180910390f35b61039560048036038101906103909190614b55565b6126fb565b005b61039f612a99565b005b6103bb60048036038101906103b69190614bc8565b612aad565b005b6103d760048036038101906103d291906149cf565b612ed2565b6040516103e49190614c10565b60405180910390f35b61040760048036038101906104029190614bc8565b612f69565b005b610423600480360381019061041e91906149cf565b61338d565b6040516104309190614c10565b60405180910390f35b610453600480360381019061044e9190614b55565b6133bc565b6040516104609190614c10565b60405180910390f35b610471613432565b60405161047e9190614bad565b60405180910390f35b6104a1600480360381019061049c9190614bc8565b61345b565b005b6104bd60048036038101906104b89190614b55565b61373a565b6040516104ca9190614bad565b60405180910390f35b6104db613782565b6040516104e89190614e60565b60405180910390f35b61050b60048036038101906105069190614ea7565b61378f565b6040516105189190614bad565b60405180910390f35b61053b60048036038101906105369190614bc8565b6137ce565b60405161054b9493929190614ed4565b60405180910390f35b61056e60048036038101906105699190614bc8565b6138b3565b005b610578613f9d565b6040516105859190614f7f565b60405180910390f35b6105a860048036038101906105a391906149cf565b613fc3565b005b6105b26146b6565b6040516105bf9190614d45565b60405180910390f35b6105e260048036038101906105dd9190614bc8565b614744565b005b6105fe60048036038101906105f99190614bc8565b6147c7565b005b610608614813565b81600160008273ffffffffffffffffffffffffffffffffffffffff1673ffffffffffffffffffffffffffffffffffffffff16815260200190815260200160002060010160149054906101000a900460ff16610698576040517f08c379a000000000000000000000000000000000000000000000000000000000815260040161068f90614fe6565b60405180910390fd5b81600160008273ffffffffffffffffffffffffffffffffffffffff1673ffffffffffffffffffffffffffffffffffffffff16815260200190815260200160002060010160149054906101000a900460ff16610728576040517f08c379a000000000000000000000000000000000000000000000000000000000815260040161071f90614fe6565b60405180910390fd5b600460008573ffffffffffffffffffffffffffffffffffffffff1673ffffffffffffffffffffffffffffffffffffffff16815260200190815260200160002060008473ffffffffffffffffffffffffffffffffffffffff1673ffffffffffffffffffffffffffffffffffffffff16815260200190815260200160002060009054906101000a900460ff166107f1576040517f08c379a00000000000000000000000000000000000000000000000000000000081526004016107e890615078565b60405180910390fd5b600460008573ffffffffffffffffffffffffffffffffffffffff1673ffffffffffffffffffffffffffffffffffffffff16815260200190815260200160002060008473ffffffffffffffffffffffffffffffffffffffff1673ffffffffffffffffffffffffffffffffffffffff16815260200190815260200160002060006101000a81549060ff02191690558273ffffffffffffffffffffffffffffffffffffffff168473ffffffffffffffffffffffffffffffffffffffff167fd5e059ffb7c226d698e6f27158810cda19daa1daa265d3e372f00abf8567f72d426040516108da9190614e60565b60405180910390a350505050565b6002818051602081018201805184825260208301602085012081835280955050505050506000915054906101000a900473ffffffffffffffffffffffffffffffffffffffff1681565b6000600160008373ffffffffffffffffffffffffffffffffffffffff1673ffffffffffffffffffffffffffffffffffffffff16815260200190815260200160002060010160149054906101000a900460ff169050919050565b610992614813565b81600160008273ffffffffffffffffffffffffffffffffffffffff1673ffffffffffffffffffffffffffffffffffffffff16815260200190815260200160002060010160149054906101000a900460ff1615610a23576040517f08c379a0000000000000000000000000000000000000000000000000000000008152600401610a1a906150e4565b60405180910390fd5b81600073ffffffffffffffffffffffffffffffffffffffff16600282604051610a4c9190615140565b908152602001604051809103902060009054906101000a900473ffffffffffffffffffffffffffffffffffffffff1673ffffffffffffffffffffffffffffffffffffffff1614610ad1576040517f08c379a0000000000000000000000000000000000000000000000000000000008152600401610ac8906151a3565b60405180910390fd5b826000815111610b16576040517f08c379a0000000000000000000000000000000000000000000000000000000008152600401610b0d9061520f565b60405180910390fd5b603281511115610b5b576040517f08c379a0000000000000000000000000000000000000000000000000000000008152600401610b529061527b565b60405180910390fd5b6000600160008773ffffffffffffffffffffffffffffffffffffffff1673ffffffffffffffffffffffffffffffffffffffff168152602001908152602001600020905084816000019081610baf919061549d565b50858160010160006101000a81548173ffffffffffffffffffffffffffffffffffffffff021916908373ffffffffffffffffffffffffffffffffffffffff16021790555060018160010160146101000a81548160ff02191690831515021790555042816004018190555085600286604051610c2a9190615140565b908152602001604051809103902060006101000a81548173ffffffffffffffffffffffffffffffffffffffff021916908373ffffffffffffffffffffffffffffffffffffffff1602179055506003869080600181540180825580915050600190039060005260206000200160009091909190916101000a81548173ffffffffffffffffffffffffffffffffffffffff021916908373ffffffffffffffffffffffffffffffffffffffff1602179055508573ffffffffffffffffffffffffffffffffffffffff167f89105a1c6a3c2fbd471255c66a31ccab604af5697f67d7e2e9a0028c5e4dbd918642604051610d2192919061556f565b60405180910390a2505050505050565b610d39614813565b81600160008273ffffffffffffffffffffffffffffffffffffffff1673ffffffffffffffffffffffffffffffffffffffff16815260200190815260200160002060010160149054906101000a900460ff16610dc9576040517f08c379a0000000000000000000000000000000000000000000000000000000008152600401610dc090614fe6565b60405180910390fd5b81600160008273ffffffffffffffffffffffffffffffffffffffff1673ffffffffffffffffffffffffffffffffffffffff16815260200190815260200160002060010160149054906101000a900460ff16610e59576040517f08c379a0000000000000000000000000000000000000000000000000000000008152600401610e5090614fe6565b60405180910390fd5b8273ffffffffffffffffffffffffffffffffffffffff168473ffffffffffffffffffffffffffffffffffffffff1603610ec7576040517f08c379a0000000000000000000000000000000000000000000000000000000008152600401610ebe90615611565b60405180910390fd5b600160008573ffffffffffffffffffffffffffffffffffffffff1673ffffffffffffffffffffffffffffffffffffffff16815260200190815260200160002060030160008473ffffffffffffffffffffffffffffffffffffffff1673ffffffffffffffffffffffffffffffffffffffff16815260200190815260200160002060009054906101000a900460ff1615610f94576040517f08c379a0000000000000000000000000000000000000000000000000000000008152600401610f8b9061567d565b60405180910390fd5b600460008573ffffffffffffffffffffffffffffffffffffffff1673ffffffffffffffffffffffffffffffffffffffff16815260200190815260200160002060008473ffffffffffffffffffffffffffffffffffffffff1673ffffffffffffffffffffffffffffffffffffffff16815260200190815260200160002060009054906101000a900460ff161561105e576040517f08c379a00000000000000000000000000000000000000000000000000000000081526004016110559061570f565b60405180910390fd5b6001600460008673ffffffffffffffffffffffffffffffffffffffff1673ffffffffffffffffffffffffffffffffffffffff16815260200190815260200160002060008573ffffffffffffffffffffffffffffffffffffffff1673ffffffffffffffffffffffffffffffffffffffff16815260200190815260200160002060006101000a81548160ff0219169083151502179055508273ffffffffffffffffffffffffffffffffffffffff168473ffffffffffffffffffffffffffffffffffffffff167fc674dc10458b51dbf879e578e49eda21dc2e722c2790719dba64f006243dc8d0426040516111509190614e60565b60405180910390a350505050565b611166614813565b81600160008273ffffffffffffffffffffffffffffffffffffffff1673ffffffffffffffffffffffffffffffffffffffff16815260200190815260200160002060010160149054906101000a900460ff166111f6576040517f08c379a00000000000000000000000000000000000000000000000000000000081526004016111ed90614fe6565b60405180910390fd5b81600160008273ffffffffffffffffffffffffffffffffffffffff1673ffffffffffffffffffffffffffffffffffffffff16815260200190815260200160002060010160149054906101000a900460ff16611286576040517f08c379a000000000000000000000000000000000000000000000000000000000815260040161127d90614fe6565b60405180910390fd5b600160008573ffffffffffffffffffffffffffffffffffffffff1673ffffffffffffffffffffffffffffffffffffffff16815260200190815260200160002060030160008473ffffffffffffffffffffffffffffffffffffffff1673ffffffffffffffffffffffffffffffffffffffff16815260200190815260200160002060009054906101000a900460ff16611352576040517f08c379a00000000000000000000000000000000000000000000000000000000081526004016113499061577b565b60405180910390fd5b6000600160008673ffffffffffffffffffffffffffffffffffffffff1673ffffffffffffffffffffffffffffffffffffffff168152602001908152602001600020600201905060005b8180549050811015611518578473ffffffffffffffffffffffffffffffffffffffff168282815481106113d1576113d061579b565b5b9060005260206000200160009054906101000a900473ffffffffffffffffffffffffffffffffffffffff1673ffffffffffffffffffffffffffffffffffffffff160361150b57816001838054905061142991906157f9565b8154811061143a5761143961579b565b5b9060005260206000200160009054906101000a900473ffffffffffffffffffffffffffffffffffffffff168282815481106114785761147761579b565b5b9060005260206000200160006101000a81548173ffffffffffffffffffffffffffffffffffffffff021916908373ffffffffffffffffffffffffffffffffffffffff160217905550818054806114d1576114d061582d565b5b6001900381819060005260206000200160006101000a81549073ffffffffffffffffffffffffffffffffffffffff02191690559055611518565b808060010191505061139b565b506000600160008773ffffffffffffffffffffffffffffffffffffffff1673ffffffffffffffffffffffffffffffffffffffff16815260200190815260200160002060030160008673ffffffffffffffffffffffffffffffffffffffff1673ffffffffffffffffffffffffffffffffffffffff16815260200190815260200160002060006101000a81548160ff0219169083151502179055506000600160008673ffffffffffffffffffffffffffffffffffffffff1673ffffffffffffffffffffffffffffffffffffffff168152602001908152602001600020600201905060005b8180549050811015611777578673ffffffffffffffffffffffffffffffffffffffff168282815481106116305761162f61579b565b5b9060005260206000200160009054906101000a900473ffffffffffffffffffffffffffffffffffffffff1673ffffffffffffffffffffffffffffffffffffffff160361176a57816001838054905061168891906157f9565b815481106116995761169861579b565b5b9060005260206000200160009054906101000a900473ffffffffffffffffffffffffffffffffffffffff168282815481106116d7576116d661579b565b5b9060005260206000200160006101000a81548173ffffffffffffffffffffffffffffffffffffffff021916908373ffffffffffffffffffffffffffffffffffffffff160217905550818054806117305761172f61582d565b5b6001900381819060005260206000200160006101000a81549073ffffffffffffffffffffffffffffffffffffffff02191690559055611777565b80806001019150506115fa565b506000600160008773ffffffffffffffffffffffffffffffffffffffff1673ffffffffffffffffffffffffffffffffffffffff16815260200190815260200160002060030160008873ffffffffffffffffffffffffffffffffffffffff1673ffffffffffffffffffffffffffffffffffffffff16815260200190815260200160002060006101000a81548160ff0219169083151502179055508473ffffffffffffffffffffffffffffffffffffffff168673ffffffffffffffffffffffffffffffffffffffff167f969004a2b12b94321909d327bc9dc2a4fb7372ba3df22c77c30edcb6c1e6106a4260405161186d9190614e60565b60405180910390a38573ffffffffffffffffffffffffffffffffffffffff168573ffffffffffffffffffffffffffffffffffffffff167f969004a2b12b94321909d327bc9dc2a4fb7372ba3df22c77c30edcb6c1e6106a426040516118d29190614e60565b60405180910390a3505050505050565b6118ea614813565b81600160008273ffffffffffffffffffffffffffffffffffffffff1673ffffffffffffffffffffffffffffffffffffffff16815260200190815260200160002060010160149054906101000a900460ff1661197a576040517f08c379a000000000000000000000000000000000000000000000000000000000815260040161197190614fe6565b60405180910390fd5b81600073ffffffffffffffffffffffffffffffffffffffff166002826040516119a39190615140565b908152602001604051809103902060009054906101000a900473ffffffffffffffffffffffffffffffffffffffff1673ffffffffffffffffffffffffffffffffffffffff1614611a28576040517f08c379a0000000000000000000000000000000000000000000000000000000008152600401611a1f906151a3565b60405180910390fd5b826000815111611a6d576040517f08c379a0000000000000000000000000000000000000000000000000000000008152600401611a649061520f565b60405180910390fd5b603281511115611ab2576040517f08c379a0000000000000000000000000000000000000000000000000000000008152600401611aa99061527b565b60405180910390fd5b600073ffffffffffffffffffffffffffffffffffffffff16600560009054906101000a900473ffffffffffffffffffffffffffffffffffffffff1673ffffffffffffffffffffffffffffffffffffffff1603611b43576040517f08c379a0000000000000000000000000000000000000000000000000000000008152600401611b3a906158a8565b60405180910390fd5b6000600160008773ffffffffffffffffffffffffffffffffffffffff1673ffffffffffffffffffffffffffffffffffffffff1681526020019081526020016000206000018054611b92906152ca565b80601f0160208091040260200160405190810160405280929190818152602001828054611bbe906152ca565b8015611c0b5780601f10611be057610100808354040283529160200191611c0b565b820191906000526020600020905b815481529060010190602001808311611bee57829003601f168201915b505050505090506000678ac7230489e800009050600560009054906101000a900473ffffffffffffffffffffffffffffffffffffffff1673ffffffffffffffffffffffffffffffffffffffff166345f3427288836040518363ffffffff1660e01b8152600401611c7c9291906158c8565b600060405180830381600087803b158015611c9657600080fd5b505af1158015611caa573d6000803e3d6000fd5b50505050600282604051611cbe9190615140565b908152602001604051809103902060006101000a81549073ffffffffffffffffffffffffffffffffffffffff021916905585600160008973ffffffffffffffffffffffffffffffffffffffff1673ffffffffffffffffffffffffffffffffffffffff1681526020019081526020016000206000019081611d3e919061549d565b5086600287604051611d509190615140565b908152602001604051809103902060006101000a81548173ffffffffffffffffffffffffffffffffffffffff021916908373ffffffffffffffffffffffffffffffffffffffff1602179055508673ffffffffffffffffffffffffffffffffffffffff167ff213349dece06413513eeb2c59f7a9faa83fa3e299d7243e9159c2e077656a62838842604051611de6939291906158f1565b60405180910390a250505050505050565b33600160008273ffffffffffffffffffffffffffffffffffffffff1673ffffffffffffffffffffffffffffffffffffffff16815260200190815260200160002060010160149054906101000a900460ff16611e87576040517f08c379a0000000000000000000000000000000000000000000000000000000008152600401611e7e90614fe6565b60405180910390fd5b81600073ffffffffffffffffffffffffffffffffffffffff16600282604051611eb09190615140565b908152602001604051809103902060009054906101000a900473ffffffffffffffffffffffffffffffffffffffff1673ffffffffffffffffffffffffffffffffffffffff1614611f35576040517f08c379a0000000000000000000000000000000000000000000000000000000008152600401611f2c906151a3565b60405180910390fd5b826000815111611f7a576040517f08c379a0000000000000000000000000000000000000000000000000000000008152600401611f719061520f565b60405180910390fd5b603281511115611fbf576040517f08c379a0000000000000000000000000000000000000000000000000000000008152600401611fb69061527b565b60405180910390fd5b600073ffffffffffffffffffffffffffffffffffffffff16600560009054906101000a900473ffffffffffffffffffffffffffffffffffffffff1673ffffffffffffffffffffffffffffffffffffffff1603612050576040517f08c379a0000000000000000000000000000000000000000000000000000000008152600401612047906158a8565b60405180910390fd5b6000600160003373ffffffffffffffffffffffffffffffffffffffff1673ffffffffffffffffffffffffffffffffffffffff168152602001908152602001600020600001805461209f906152ca565b80601f01602080910402602001604051908101604052809291908181526020018280546120cb906152ca565b80156121185780601f106120ed57610100808354040283529160200191612118565b820191906000526020600020905b8154815290600101906020018083116120fb57829003601f168201915b505050505090506000678ac7230489e800009050600560009054906101000a900473ffffffffffffffffffffffffffffffffffffffff1673ffffffffffffffffffffffffffffffffffffffff166345f3427233836040518363ffffffff1660e01b81526004016121899291906158c8565b600060405180830381600087803b1580156121a357600080fd5b505af11580156121b7573d6000803e3d6000fd5b505050506002826040516121cb9190615140565b908152602001604051809103902060006101000a81549073ffffffffffffffffffffffffffffffffffffffff021916905585600160003373ffffffffffffffffffffffffffffffffffffffff1673ffffffffffffffffffffffffffffffffffffffff168152602001908152602001600020600001908161224b919061549d565b503360028760405161225d9190615140565b908152602001604051809103902060006101000a81548173ffffffffffffffffffffffffffffffffffffffff021916908373ffffffffffffffffffffffffffffffffffffffff1602179055503373ffffffffffffffffffffffffffffffffffffffff167ff213349dece06413513eeb2c59f7a9faa83fa3e299d7243e9159c2e077656a628388426040516122f3939291906158f1565b60405180910390a2505050505050565b606081600160008273ffffffffffffffffffffffffffffffffffffffff1673ffffffffffffffffffffffffffffffffffffffff16815260200190815260200160002060010160149054906101000a900460ff16612395576040517f08c379a000000000000000000000000000000000000000000000000000000000815260040161238c90614fe6565b60405180910390fd5b600160008473ffffffffffffffffffffffffffffffffffffffff1673ffffffffffffffffffffffffffffffffffffffff16815260200190815260200160002060020180548060200260200160405190810160405280929190818152602001828054801561245757602002820191906000526020600020905b8160009054906101000a900473ffffffffffffffffffffffffffffffffffffffff1673ffffffffffffffffffffffffffffffffffffffff168152602001906001019080831161240d575b5050505050915050919050565b60606000806060600080600160008873ffffffffffffffffffffffffffffffffffffffff1673ffffffffffffffffffffffffffffffffffffffff1681526020019081526020016000209050806000018160010160009054906101000a900473ffffffffffffffffffffffffffffffffffffffff168260010160149054906101000a900460ff168360020184600401548480546124ff906152ca565b80601f016020809104026020016040519081016040528092919081815260200182805461252b906152ca565b80156125785780601f1061254d57610100808354040283529160200191612578565b820191906000526020600020905b81548152906001019060200180831161255b57829003601f168201915b505050505094508180548060200260200160405190810160405280929190818152602001828054801561260057602002820191906000526020600020905b8160009054906101000a900473ffffffffffffffffffffffffffffffffffffffff1673ffffffffffffffffffffffffffffffffffffffff16815260200190600101908083116125b6575b50505050509150955095509550955095505091939590929450565b600081600160008273ffffffffffffffffffffffffffffffffffffffff1673ffffffffffffffffffffffffffffffffffffffff16815260200190815260200160002060010160149054906101000a900460ff166126ad576040517f08c379a00000000000000000000000000000000000000000000000000000000081526004016126a490614fe6565b60405180910390fd5b600160008473ffffffffffffffffffffffffffffffffffffffff1673ffffffffffffffffffffffffffffffffffffffff16815260200190815260200160002060020180549050915050919050565b33600160008273ffffffffffffffffffffffffffffffffffffffff1673ffffffffffffffffffffffffffffffffffffffff16815260200190815260200160002060010160149054906101000a900460ff161561278c576040517f08c379a0000000000000000000000000000000000000000000000000000000008152600401612783906150e4565b60405180910390fd5b81600073ffffffffffffffffffffffffffffffffffffffff166002826040516127b59190615140565b908152602001604051809103902060009054906101000a900473ffffffffffffffffffffffffffffffffffffffff1673ffffffffffffffffffffffffffffffffffffffff161461283a576040517f08c379a0000000000000000000000000000000000000000000000000000000008152600401612831906151a3565b60405180910390fd5b82600081511161287f576040517f08c379a00000000000000000000000000000000000000000000000000000000081526004016128769061520f565b60405180910390fd5b6032815111156128c4576040517f08c379a00000000000000000000000000000000000000000000000000000000081526004016128bb9061527b565b60405180910390fd5b6000600160003373ffffffffffffffffffffffffffffffffffffffff1673ffffffffffffffffffffffffffffffffffffffff168152602001908152602001600020905084816000019081612918919061549d565b50338160010160006101000a81548173ffffffffffffffffffffffffffffffffffffffff021916908373ffffffffffffffffffffffffffffffffffffffff16021790555060018160010160146101000a81548160ff021916908315150217905550428160040181905550336002866040516129939190615140565b908152602001604051809103902060006101000a81548173ffffffffffffffffffffffffffffffffffffffff021916908373ffffffffffffffffffffffffffffffffffffffff1602179055506003339080600181540180825580915050600190039060005260206000200160009091909190916101000a81548173ffffffffffffffffffffffffffffffffffffffff021916908373ffffffffffffffffffffffffffffffffffffffff1602179055503373ffffffffffffffffffffffffffffffffffffffff167f89105a1c6a3c2fbd471255c66a31ccab604af5697f67d7e2e9a0028c5e4dbd918642604051612a8a92919061556f565b60405180910390a25050505050565b612aa1614813565b612aab6000614891565b565b33600160008273ffffffffffffffffffffffffffffffffffffffff1673ffffffffffffffffffffffffffffffffffffffff16815260200190815260200160002060010160149054906101000a900460ff16612b3d576040517f08c379a0000000000000000000000000000000000000000000000000000000008152600401612b3490614fe6565b60405180910390fd5b600160003373ffffffffffffffffffffffffffffffffffffffff1673ffffffffffffffffffffffffffffffffffffffff16815260200190815260200160002060030160008373ffffffffffffffffffffffffffffffffffffffff1673ffffffffffffffffffffffffffffffffffffffff16815260200190815260200160002060009054906101000a900460ff16612c09576040517f08c379a0000000000000000000000000000000000000000000000000000000008152600401612c009061577b565b60405180910390fd5b6000600160003373ffffffffffffffffffffffffffffffffffffffff1673ffffffffffffffffffffffffffffffffffffffff168152602001908152602001600020600201905060005b8180549050811015612dcf578373ffffffffffffffffffffffffffffffffffffffff16828281548110612c8857612c8761579b565b5b9060005260206000200160009054906101000a900473ffffffffffffffffffffffffffffffffffffffff1673ffffffffffffffffffffffffffffffffffffffff1603612dc2578160018380549050612ce091906157f9565b81548110612cf157612cf061579b565b5b9060005260206000200160009054906101000a900473ffffffffffffffffffffffffffffffffffffffff16828281548110612d2f57612d2e61579b565b5b9060005260206000200160006101000a81548173ffffffffffffffffffffffffffffffffffffffff021916908373ffffffffffffffffffffffffffffffffffffffff16021790555081805480612d8857612d8761582d565b5b6001900381819060005260206000200160006101000a81549073ffffffffffffffffffffffffffffffffffffffff02191690559055612dcf565b8080600101915050612c52565b506000600160003373ffffffffffffffffffffffffffffffffffffffff1673ffffffffffffffffffffffffffffffffffffffff16815260200190815260200160002060030160008573ffffffffffffffffffffffffffffffffffffffff1673ffffffffffffffffffffffffffffffffffffffff16815260200190815260200160002060006101000a81548160ff0219169083151502179055508273ffffffffffffffffffffffffffffffffffffffff163373ffffffffffffffffffffffffffffffffffffffff167f969004a2b12b94321909d327bc9dc2a4fb7372ba3df22c77c30edcb6c1e6106a42604051612ec59190614e60565b60405180910390a3505050565b6000600160008473ffffffffffffffffffffffffffffffffffffffff1673ffffffffffffffffffffffffffffffffffffffff16815260200190815260200160002060030160008373ffffffffffffffffffffffffffffffffffffffff1673ffffffffffffffffffffffffffffffffffffffff16815260200190815260200160002060009054906101000a900460ff16905092915050565b33600160008273ffffffffffffffffffffffffffffffffffffffff1673ffffffffffffffffffffffffffffffffffffffff16815260200190815260200160002060010160149054906101000a900460ff16612ff9576040517f08c379a0000000000000000000000000000000000000000000000000000000008152600401612ff090614fe6565b60405180910390fd5b81600160008273ffffffffffffffffffffffffffffffffffffffff1673ffffffffffffffffffffffffffffffffffffffff16815260200190815260200160002060010160149054906101000a900460ff16613089576040517f08c379a000000000000000000000000000000000000000000000000000000000815260040161308090614fe6565b60405180910390fd5b8273ffffffffffffffffffffffffffffffffffffffff163373ffffffffffffffffffffffffffffffffffffffff16036130f7576040517f08c379a00000000000000000000000000000000000000000000000000000000081526004016130ee90615611565b60405180910390fd5b600160003373ffffffffffffffffffffffffffffffffffffffff1673ffffffffffffffffffffffffffffffffffffffff16815260200190815260200160002060030160008473ffffffffffffffffffffffffffffffffffffffff1673ffffffffffffffffffffffffffffffffffffffff16815260200190815260200160002060009054906101000a900460ff16156131c4576040517f08c379a00000000000000000000000000000000000000000000000000000000081526004016131bb9061567d565b60405180910390fd5b600460003373ffffffffffffffffffffffffffffffffffffffff1673ffffffffffffffffffffffffffffffffffffffff16815260200190815260200160002060008473ffffffffffffffffffffffffffffffffffffffff1673ffffffffffffffffffffffffffffffffffffffff16815260200190815260200160002060009054906101000a900460ff161561328e576040517f08c379a00000000000000000000000000000000000000000000000000000000081526004016132859061570f565b60405180910390fd5b6001600460003373ffffffffffffffffffffffffffffffffffffffff1673ffffffffffffffffffffffffffffffffffffffff16815260200190815260200160002060008573ffffffffffffffffffffffffffffffffffffffff1673ffffffffffffffffffffffffffffffffffffffff16815260200190815260200160002060006101000a81548160ff0219169083151502179055508273ffffffffffffffffffffffffffffffffffffffff163373ffffffffffffffffffffffffffffffffffffffff167fc674dc10458b51dbf879e578e49eda21dc2e722c2790719dba64f006243dc8d0426040516133809190614e60565b60405180910390a3505050565b60046020528160005260406000206020528060005260406000206000915091509054906101000a900460ff1681565b60008073ffffffffffffffffffffffffffffffffffffffff166002836040516133e59190615140565b908152602001604051809103902060009054906101000a900473ffffffffffffffffffffffffffffffffffffffff1673ffffffffffffffffffffffffffffffffffffffff16149050919050565b60008060009054906101000a900473ffffffffffffffffffffffffffffffffffffffff16905090565b33600160008273ffffffffffffffffffffffffffffffffffffffff1673ffffffffffffffffffffffffffffffffffffffff16815260200190815260200160002060010160149054906101000a900460ff166134eb576040517f08c379a00000000000000000000000000000000000000000000000000000000081526004016134e290614fe6565b60405180910390fd5b81600160008273ffffffffffffffffffffffffffffffffffffffff1673ffffffffffffffffffffffffffffffffffffffff16815260200190815260200160002060010160149054906101000a900460ff1661357b576040517f08c379a000000000000000000000000000000000000000000000000000000000815260040161357290614fe6565b60405180910390fd5b600460003373ffffffffffffffffffffffffffffffffffffffff1673ffffffffffffffffffffffffffffffffffffffff16815260200190815260200160002060008473ffffffffffffffffffffffffffffffffffffffff1673ffffffffffffffffffffffffffffffffffffffff16815260200190815260200160002060009054906101000a900460ff16613644576040517f08c379a000000000000000000000000000000000000000000000000000000000815260040161363b906159a8565b60405180910390fd5b600460003373ffffffffffffffffffffffffffffffffffffffff1673ffffffffffffffffffffffffffffffffffffffff16815260200190815260200160002060008473ffffffffffffffffffffffffffffffffffffffff1673ffffffffffffffffffffffffffffffffffffffff16815260200190815260200160002060006101000a81549060ff02191690558273ffffffffffffffffffffffffffffffffffffffff163373ffffffffffffffffffffffffffffffffffffffff167fd5e059ffb7c226d698e6f27158810cda19daa1daa265d3e372f00abf8567f72d4260405161372d9190614e60565b60405180910390a3505050565b600060028260405161374c9190615140565b908152602001604051809103902060009054906101000a900473ffffffffffffffffffffffffffffffffffffffff169050919050565b6000600380549050905090565b6003818154811061379f57600080fd5b906000526020600020016000915054906101000a900473ffffffffffffffffffffffffffffffffffffffff1681565b60016020528060005260406000206000915090508060000180546137f1906152ca565b80601f016020809104026020016040519081016040528092919081815260200182805461381d906152ca565b801561386a5780601f1061383f5761010080835404028352916020019161386a565b820191906000526020600020905b81548152906001019060200180831161384d57829003601f168201915b5050505050908060010160009054906101000a900473ffffffffffffffffffffffffffffffffffffffff16908060010160149054906101000a900460ff16908060040154905084565b33600160008273ffffffffffffffffffffffffffffffffffffffff1673ffffffffffffffffffffffffffffffffffffffff16815260200190815260200160002060010160149054906101000a900460ff16613943576040517f08c379a000000000000000000000000000000000000000000000000000000000815260040161393a90614fe6565b60405180910390fd5b81600160008273ffffffffffffffffffffffffffffffffffffffff1673ffffffffffffffffffffffffffffffffffffffff16815260200190815260200160002060010160149054906101000a900460ff166139d3576040517f08c379a00000000000000000000000000000000000000000000000000000000081526004016139ca90614fe6565b60405180910390fd5b600460008473ffffffffffffffffffffffffffffffffffffffff1673ffffffffffffffffffffffffffffffffffffffff16815260200190815260200160002060003373ffffffffffffffffffffffffffffffffffffffff1673ffffffffffffffffffffffffffffffffffffffff16815260200190815260200160002060009054906101000a900460ff16613a9c576040517f08c379a0000000000000000000000000000000000000000000000000000000008152600401613a9390615a14565b60405180910390fd5b600160003373ffffffffffffffffffffffffffffffffffffffff1673ffffffffffffffffffffffffffffffffffffffff16815260200190815260200160002060030160008473ffffffffffffffffffffffffffffffffffffffff1673ffffffffffffffffffffffffffffffffffffffff16815260200190815260200160002060009054906101000a900460ff1615613b69576040517f08c379a0000000000000000000000000000000000000000000000000000000008152600401613b609061567d565b60405180910390fd5b600160003373ffffffffffffffffffffffffffffffffffffffff1673ffffffffffffffffffffffffffffffffffffffff168152602001908152602001600020600201839080600181540180825580915050600190039060005260206000200160009091909190916101000a81548173ffffffffffffffffffffffffffffffffffffffff021916908373ffffffffffffffffffffffffffffffffffffffff16021790555060018060003373ffffffffffffffffffffffffffffffffffffffff1673ffffffffffffffffffffffffffffffffffffffff16815260200190815260200160002060030160008573ffffffffffffffffffffffffffffffffffffffff1673ffffffffffffffffffffffffffffffffffffffff16815260200190815260200160002060006101000a81548160ff021916908315150217905550600160008473ffffffffffffffffffffffffffffffffffffffff1673ffffffffffffffffffffffffffffffffffffffff168152602001908152602001600020600201339080600181540180825580915050600190039060005260206000200160009091909190916101000a81548173ffffffffffffffffffffffffffffffffffffffff021916908373ffffffffffffffffffffffffffffffffffffffff16021790555060018060008573ffffffffffffffffffffffffffffffffffffffff1673ffffffffffffffffffffffffffffffffffffffff16815260200190815260200160002060030160003373ffffffffffffffffffffffffffffffffffffffff1673ffffffffffffffffffffffffffffffffffffffff16815260200190815260200160002060006101000a81548160ff021916908315150217905550600460008473ffffffffffffffffffffffffffffffffffffffff1673ffffffffffffffffffffffffffffffffffffffff16815260200190815260200160002060003373ffffffffffffffffffffffffffffffffffffffff1673ffffffffffffffffffffffffffffffffffffffff16815260200190815260200160002060006101000a81549060ff02191690553373ffffffffffffffffffffffffffffffffffffffff168373ffffffffffffffffffffffffffffffffffffffff167fc67647f0dc29b904529afc5071206426962fab8a22847d1dc5e49de234defe0842604051613ec69190614e60565b60405180910390a38273ffffffffffffffffffffffffffffffffffffffff163373ffffffffffffffffffffffffffffffffffffffff167f3365f8db520261f96abff7e0cf11cf08c78948d7bba32f8e3cef112242f8f24742604051613f2b9190614e60565b60405180910390a33373ffffffffffffffffffffffffffffffffffffffff168373ffffffffffffffffffffffffffffffffffffffff167f3365f8db520261f96abff7e0cf11cf08c78948d7bba32f8e3cef112242f8f24742604051613f909190614e60565b60405180910390a3505050565b600560009054906101000a900473ffffffffffffffffffffffffffffffffffffffff1681565b613fcb614813565b81600160008273ffffffffffffffffffffffffffffffffffffffff1673ffffffffffffffffffffffffffffffffffffffff16815260200190815260200160002060010160149054906101000a900460ff1661405b576040517f08c379a000000000000000000000000000000000000000000000000000000000815260040161405290614fe6565b60405180910390fd5b81600160008273ffffffffffffffffffffffffffffffffffffffff1673ffffffffffffffffffffffffffffffffffffffff16815260200190815260200160002060010160149054906101000a900460ff166140eb576040517f08c379a00000000000000000000000000000000000000000000000000000000081526004016140e290614fe6565b60405180910390fd5b600460008573ffffffffffffffffffffffffffffffffffffffff1673ffffffffffffffffffffffffffffffffffffffff16815260200190815260200160002060008473ffffffffffffffffffffffffffffffffffffffff1673ffffffffffffffffffffffffffffffffffffffff16815260200190815260200160002060009054906101000a900460ff166141b4576040517f08c379a00000000000000000000000000000000000000000000000000000000081526004016141ab90615a14565b60405180910390fd5b600160008573ffffffffffffffffffffffffffffffffffffffff1673ffffffffffffffffffffffffffffffffffffffff16815260200190815260200160002060030160008473ffffffffffffffffffffffffffffffffffffffff1673ffffffffffffffffffffffffffffffffffffffff16815260200190815260200160002060009054906101000a900460ff1615614281576040517f08c379a00000000000000000000000000000000000000000000000000000000081526004016142789061567d565b60405180910390fd5b600160008473ffffffffffffffffffffffffffffffffffffffff1673ffffffffffffffffffffffffffffffffffffffff168152602001908152602001600020600201849080600181540180825580915050600190039060005260206000200160009091909190916101000a81548173ffffffffffffffffffffffffffffffffffffffff021916908373ffffffffffffffffffffffffffffffffffffffff16021790555060018060008573ffffffffffffffffffffffffffffffffffffffff1673ffffffffffffffffffffffffffffffffffffffff16815260200190815260200160002060030160008673ffffffffffffffffffffffffffffffffffffffff1673ffffffffffffffffffffffffffffffffffffffff16815260200190815260200160002060006101000a81548160ff021916908315150217905550600160008573ffffffffffffffffffffffffffffffffffffffff1673ffffffffffffffffffffffffffffffffffffffff168152602001908152602001600020600201839080600181540180825580915050600190039060005260206000200160009091909190916101000a81548173ffffffffffffffffffffffffffffffffffffffff021916908373ffffffffffffffffffffffffffffffffffffffff16021790555060018060008673ffffffffffffffffffffffffffffffffffffffff1673ffffffffffffffffffffffffffffffffffffffff16815260200190815260200160002060030160008573ffffffffffffffffffffffffffffffffffffffff1673ffffffffffffffffffffffffffffffffffffffff16815260200190815260200160002060006101000a81548160ff021916908315150217905550600460008573ffffffffffffffffffffffffffffffffffffffff1673ffffffffffffffffffffffffffffffffffffffff16815260200190815260200160002060008473ffffffffffffffffffffffffffffffffffffffff1673ffffffffffffffffffffffffffffffffffffffff16815260200190815260200160002060006101000a81549060ff02191690558273ffffffffffffffffffffffffffffffffffffffff168473ffffffffffffffffffffffffffffffffffffffff167fc67647f0dc29b904529afc5071206426962fab8a22847d1dc5e49de234defe08426040516145de9190614e60565b60405180910390a38373ffffffffffffffffffffffffffffffffffffffff168373ffffffffffffffffffffffffffffffffffffffff167f3365f8db520261f96abff7e0cf11cf08c78948d7bba32f8e3cef112242f8f247426040516146439190614e60565b60405180910390a38273ffffffffffffffffffffffffffffffffffffffff168473ffffffffffffffffffffffffffffffffffffffff167f3365f8db520261f96abff7e0cf11cf08c78948d7bba32f8e3cef112242f8f247426040516146a89190614e60565b60405180910390a350505050565b6060600380548060200260200160405190810160405280929190818152602001828054801561473a57602002820191906000526020600020905b8160009054906101000a900473ffffffffffffffffffffffffffffffffffffffff1673ffffffffffffffffffffffffffffffffffffffff16815260200190600101908083116146f0575b5050505050905090565b61474c614813565b600073ffffffffffffffffffffffffffffffffffffffff168173ffffffffffffffffffffffffffffffffffffffff16036147bb576040517f08c379a00000000000000000000000000000000000000000000000000000000081526004016147b290615aa6565b60405180910390fd5b6147c481614891565b50565b6147cf614813565b80600560006101000a81548173ffffffffffffffffffffffffffffffffffffffff021916908373ffffffffffffffffffffffffffffffffffffffff16021790555050565b61481b614955565b73ffffffffffffffffffffffffffffffffffffffff16614839613432565b73ffffffffffffffffffffffffffffffffffffffff161461488f576040517f08c379a000000000000000000000000000000000000000000000000000000000815260040161488690615b12565b60405180910390fd5b565b60008060009054906101000a900473ffffffffffffffffffffffffffffffffffffffff169050816000806101000a81548173ffffffffffffffffffffffffffffffffffffffff021916908373ffffffffffffffffffffffffffffffffffffffff1602179055508173ffffffffffffffffffffffffffffffffffffffff168173ffffffffffffffffffffffffffffffffffffffff167f8be0079c531659141344cd1fd0a4f28419497f9722a3daafe3b4186f6b6457e060405160405180910390a35050565b600033905090565b6000604051905090565b600080fd5b600080fd5b600073ffffffffffffffffffffffffffffffffffffffff82169050919050565b600061499c82614971565b9050919050565b6149ac81614991565b81146149b757600080fd5b50565b6000813590506149c9816149a3565b92915050565b600080604083850312156149e6576149e5614967565b5b60006149f4858286016149ba565b9250506020614a05858286016149ba565b9150509250929050565b600080fd5b600080fd5b6000601f19601f8301169050919050565b7f4e487b7100000000000000000000000000000000000000000000000000000000600052604160045260246000fd5b614a6282614a19565b810181811067ffffffffffffffff82111715614a8157614a80614a2a565b5b80604052505050565b6000614a9461495d565b9050614aa08282614a59565b919050565b600067ffffffffffffffff821115614ac057614abf614a2a565b5b614ac982614a19565b9050602081019050919050565b82818337600083830152505050565b6000614af8614af384614aa5565b614a8a565b905082815260208101848484011115614b1457614b13614a14565b5b614b1f848285614ad6565b509392505050565b600082601f830112614b3c57614b3b614a0f565b5b8135614b4c848260208601614ae5565b91505092915050565b600060208284031215614b6b57614b6a614967565b5b600082013567ffffffffffffffff811115614b8957614b8861496c565b5b614b9584828501614b27565b91505092915050565b614ba781614991565b82525050565b6000602082019050614bc26000830184614b9e565b92915050565b600060208284031215614bde57614bdd614967565b5b6000614bec848285016149ba565b91505092915050565b60008115159050919050565b614c0a81614bf5565b82525050565b6000602082019050614c256000830184614c01565b92915050565b60008060408385031215614c4257614c41614967565b5b6000614c50858286016149ba565b925050602083013567ffffffffffffffff811115614c7157614c7061496c565b5b614c7d85828601614b27565b9150509250929050565b600081519050919050565b600082825260208201905092915050565b6000819050602082019050919050565b614cbc81614991565b82525050565b6000614cce8383614cb3565b60208301905092915050565b6000602082019050919050565b6000614cf282614c87565b614cfc8185614c92565b9350614d0783614ca3565b8060005b83811015614d38578151614d1f8882614cc2565b9750614d2a83614cda565b925050600181019050614d0b565b5085935050505092915050565b60006020820190508181036000830152614d5f8184614ce7565b905092915050565b600081519050919050565b600082825260208201905092915050565b60005b83811015614da1578082015181840152602081019050614d86565b60008484015250505050565b6000614db882614d67565b614dc28185614d72565b9350614dd2818560208601614d83565b614ddb81614a19565b840191505092915050565b6000819050919050565b614df981614de6565b82525050565b600060a0820190508181036000830152614e198188614dad565b9050614e286020830187614b9e565b614e356040830186614c01565b8181036060830152614e478185614ce7565b9050614e566080830184614df0565b9695505050505050565b6000602082019050614e756000830184614df0565b92915050565b614e8481614de6565b8114614e8f57600080fd5b50565b600081359050614ea181614e7b565b92915050565b600060208284031215614ebd57614ebc614967565b5b6000614ecb84828501614e92565b91505092915050565b60006080820190508181036000830152614eee8187614dad565b9050614efd6020830186614b9e565b614f0a6040830185614c01565b614f176060830184614df0565b95945050505050565b6000819050919050565b6000614f45614f40614f3b84614971565b614f20565b614971565b9050919050565b6000614f5782614f2a565b9050919050565b6000614f6982614f4c565b9050919050565b614f7981614f5e565b82525050565b6000602082019050614f946000830184614f70565b92915050565b7f5573756172696f206e6f207265676973747261646f0000000000000000000000600082015250565b6000614fd0601583614d72565b9150614fdb82614f9a565b602082019050919050565b60006020820190508181036000830152614fff81614fc3565b9050919050565b7f4e6f2068617920736f6c6963697475642064652065737465207573756172696f60008201527f20612063616e63656c6172000000000000000000000000000000000000000000602082015250565b6000615062602b83614d72565b915061506d82615006565b604082019050919050565b6000602082019050818103600083015261509181615055565b9050919050565b7f5573756172696f207961207265676973747261646f0000000000000000000000600082015250565b60006150ce601583614d72565b91506150d982615098565b602082019050919050565b600060208201905081810360008301526150fd816150c1565b9050919050565b600081905092915050565b600061511a82614d67565b6151248185615104565b9350615134818560208601614d83565b80840191505092915050565b600061514c828461510f565b915081905092915050565b7f4e6f6d62726520796120746f6d61646f00000000000000000000000000000000600082015250565b600061518d601083614d72565b915061519882615157565b602082019050919050565b600060208201905081810360008301526151bc81615180565b9050919050565b7f4e6f6d627265206e6f20707565646520657374617220766163696f0000000000600082015250565b60006151f9601b83614d72565b9150615204826151c3565b602082019050919050565b60006020820190508181036000830152615228816151ec565b9050919050565b7f4e6f6d6272652064656d61736961646f206c6172676f00000000000000000000600082015250565b6000615265601683614d72565b91506152708261522f565b602082019050919050565b6000602082019050818103600083015261529481615258565b9050919050565b7f4e487b7100000000000000000000000000000000000000000000000000000000600052602260045260246000fd5b600060028204905060018216806152e257607f821691505b6020821081036152f5576152f461529b565b5b50919050565b60008190508160005260206000209050919050565b60006020601f8301049050919050565b600082821b905092915050565b60006008830261535d7fffffffffffffffffffffffffffffffffffffffffffffffffffffffffffffffff82615320565b6153678683615320565b95508019841693508086168417925050509392505050565b600061539a61539561539084614de6565b614f20565b614de6565b9050919050565b6000819050919050565b6153b48361537f565b6153c86153c0826153a1565b84845461532d565b825550505050565b600090565b6153dd6153d0565b6153e88184846153ab565b505050565b5b8181101561540c576154016000826153d5565b6001810190506153ee565b5050565b601f82111561545157615422816152fb565b61542b84615310565b8101602085101561543a578190505b61544e61544685615310565b8301826153ed565b50505b505050565b600082821c905092915050565b600061547460001984600802615456565b1980831691505092915050565b600061548d8383615463565b9150826002028217905092915050565b6154a682614d67565b67ffffffffffffffff8111156154bf576154be614a2a565b5b6154c982546152ca565b6154d4828285615410565b600060209050601f83116001811461550757600084156154f5578287015190505b6154ff8582615481565b865550615567565b601f198416615515866152fb565b60005b8281101561553d57848901518255600182019150602085019450602081019050615518565b8683101561555a5784890151615556601f891682615463565b8355505b6001600288020188555050505b505050505050565b600060408201905081810360008301526155898185614dad565b90506155986020830184614df0565b9392505050565b7f4e6f2070756564657320656e76696172746520736f6c6963697475642061207460008201527f69206d69736d6f00000000000000000000000000000000000000000000000000602082015250565b60006155fb602783614d72565b91506156068261559f565b604082019050919050565b6000602082019050818103600083015261562a816155ee565b9050919050565b7f596120657320747520616d69676f000000000000000000000000000000000000600082015250565b6000615667600e83614d72565b915061567282615631565b602082019050919050565b600060208201905081810360008301526156968161565a565b9050919050565b7f596120656e76696173746520736f6c696369747564206120657374652075737560008201527f6172696f00000000000000000000000000000000000000000000000000000000602082015250565b60006156f9602483614d72565b91506157048261569d565b604082019050919050565b60006020820190508181036000830152615728816156ec565b9050919050565b7f4e6f20657320747520616d69676f000000000000000000000000000000000000600082015250565b6000615765600e83614d72565b91506157708261572f565b602082019050919050565b6000602082019050818103600083015261579481615758565b9050919050565b7f4e487b7100000000000000000000000000000000000000000000000000000000600052603260045260246000fd5b7f4e487b7100000000000000000000000000000000000000000000000000000000600052601160045260246000fd5b600061580482614de6565b915061580f83614de6565b9250828203905081811115615827576158266157ca565b5b92915050565b7f4e487b7100000000000000000000000000000000000000000000000000000000600052603160045260246000fd5b7f466f72657374546f6b656e206e6f20636f6e666967757261646f000000000000600082015250565b6000615892601a83614d72565b915061589d8261585c565b602082019050919050565b600060208201905081810360008301526158c181615885565b9050919050565b60006040820190506158dd6000830185614b9e565b6158ea6020830184614df0565b9392505050565b6000606082019050818103600083015261590b8186614dad565b9050818103602083015261591f8185614dad565b905061592e6040830184614df0565b949350505050565b7f4e6f2068617920736f6c69636974756420656e7669616461206120657374652060008201527f7573756172696f00000000000000000000000000000000000000000000000000602082015250565b6000615992602783614d72565b915061599d82615936565b604082019050919050565b600060208201905081810360008301526159c181615985565b9050919050565b7f4e6f2068617920736f6c6963697475642064652065737465207573756172696f600082015250565b60006159fe602083614d72565b9150615a09826159c8565b602082019050919050565b60006020820190508181036000830152615a2d816159f1565b9050919050565b7f4f776e61626c653a206e6577206f776e657220697320746865207a65726f206160008201527f6464726573730000000000000000000000000000000000000000000000000000602082015250565b6000615a90602683614d72565b9150615a9b82615a34565b604082019050919050565b60006020820190508181036000830152615abf81615a83565b9050919050565b7f4f776e61626c653a2063616c6c6572206973206e6f7420746865206f776e6572600082015250565b6000615afc602083614d72565b9150615b0782615ac6565b602082019050919050565b60006020820190508181036000830152615b2b81615aef565b905091905056fea2646970667358221220ad3d72a2668a87a4d994430bc0c677f2c8b6bf45d872856cb582920e1c545f5164736f6c634300081c0033",
  "linkReferences": {},
  "deployedLinkReferences": {}
}