{
  "_format": "hh-sol-artifact-1",
  "contractName": "UserRegistry",
  "sourceName": "contracts/User.sol",
  "abi": [
    {
      "anonymous": false,
      "inputs": [
        {
          "indexed": true,
          "internalType": "address",
          "name": "user",
          "type": "address"
        },
        {
          "indexed": true,
          "internalType": "address",
          "name": "friend",
          "type": "address"
        },
        {
          "indexed": false,
          "internalType": "uint256",
          "name": "timestamp",
          "type": "uint256"
        }
      ],
      "name": "FriendAdded",
      "type": "event"
    },
    {
      "anonymous": false,
      "inputs": [
        {
          "indexed": true,
          "internalType": "address",
          "name": "user",
          "type": "address"
        },
        {
          "indexed": true,
          "internalType": "address",
          "name": "friend",
          "type": "address"
        },
        {
          "indexed": false,
          "internalType": "uint256",
          "name": "timestamp",
          "type": "uint256"
        }
      ],
      "name": "FriendRemoved",
      "type": "event"
    },
    {
      "anonymous": false,
      "inputs": [
        {
          "indexed": true,
          "internalType": "address",
          "name": "from",
          "type": "address"
        },
        {
          "indexed": true,
          "internalType": "address",
          "name": "to",
          "type": "address"
        },
        {
          "indexed": false,
          "internalType": "uint256",
          "name": "timestamp",
          "type": "uint256"
        }
      ],
      "name": "FriendRequestAccepted",
      "type": "event"
    },
    {
      "anonymous": false,
      "inputs": [
        {
          "indexed": true,
          "internalType": "address",
          "name": "from",
          "type": "address"
        },
        {
          "indexed": true,
          "internalType": "address",
          "name": "to",
          "type": "address"
        },
        {
          "indexed": false,
          "internalType": "uint256",
          "name": "timestamp",
          "type": "uint256"
        }
      ],
      "name": "FriendRequestSent",
      "type": "event"
    },
    {
      "anonymous": false,
      "inputs": [
        {
          "indexed": true,
          "internalType": "address",
          "name": "userAddress",
          "type": "address"
        },
        {
          "indexed": false,
          "internalType": "string",
          "name": "oldName",
          "type": "string"
        },
        {
          "indexed": false,
          "internalType": "string",
          "name": "newName",
          "type": "string"
        },
        {
          "indexed": false,
          "internalType": "uint256",
          "name": "timestamp",
          "type": "uint256"
        }
      ],
      "name": "NameChanged",
      "type": "event"
    },
    {
      "anonymous": false,
      "inputs": [
        {
          "indexed": false,
          "internalType": "string",
          "name": "name",
          "type": "string"
        },
        {
          "indexed": true,
          "internalType": "address",
          "name": "userAddress",
          "type": "address"
        }
      ],
      "name": "NameTaken",
      "type": "event"
    },
    {
      "anonymous": false,
      "inputs": [
        {
          "indexed": true,
          "internalType": "address",
          "name": "previousOwner",
          "type": "address"
        },
        {
          "indexed": true,
          "internalType": "address",
          "name": "newOwner",
          "type": "address"
        }
      ],
      "name": "OwnershipTransferred",
      "type": "event"
    },
    {
      "anonymous": false,
      "inputs": [
        {
          "indexed": true,
          "internalType": "address",
          "name": "userAddress",
          "type": "address"
        },
        {
          "indexed": false,
          "internalType": "string",
          "name": "name",
          "type": "string"
        },
        {
          "indexed": false,
          "internalType": "uint256",
          "name": "timestamp",
          "type": "uint256"
        }
      ],
      "name": "UserRegistered",
      "type": "event"
    },
    {
      "inputs": [
        {
          "internalType": "address",
          "name": "_from",
          "type": "address"
        }
      ],
      "name": "acceptFriendRequest",
      "outputs": [],
      "stateMutability": "nonpayable",
      "type": "function"
    },
    {
      "inputs": [
        {
          "internalType": "address",
          "name": "_from",
          "type": "address"
        },
        {
          "internalType": "address",
          "name": "_to",
          "type": "address"
        }
      ],
      "name": "acceptFriendRequestAdmin",
      "outputs": [],
      "stateMutability": "nonpayable",
      "type": "function"
    },
    {
      "inputs": [
        {
          "internalType": "uint256",
          "name": "",
          "type": "uint256"
        }
      ],
      "name": "allUsers",
      "outputs": [
        {
          "internalType": "address",
          "name": "",
          "type": "address"
        }
      ],
      "stateMutability": "view",
      "type": "function"
    },
    {
      "inputs": [
        {
          "internalType": "address",
          "name": "_user1",
          "type": "address"
        },
        {
          "internalType": "address",
          "name": "_user2",
          "type": "address"
        }
      ],
      "name": "areFriends",
      "outputs": [
        {
          "internalType": "bool",
          "name": "",
          "type": "bool"
        }
      ],
      "stateMutability": "view",
      "type": "function"
    },
    {
      "inputs": [
        {
          "internalType": "string",
          "name": "_newName",
          "type": "string"
        }
      ],
      "name": "changeName",
      "outputs": [],
      "stateMutability": "nonpayable",
      "type": "function"
    },
    {
      "inputs": [
        {
          "internalType": "address",
          "name": "_userAddress",
          "type": "address"
        },
        {
          "internalType": "string",
          "name": "_newName",
          "type": "string"
        }
      ],
      "name": "changeNameAdmin",
      "outputs": [],
      "stateMutability": "nonpayable",
      "type": "function"
    },
    {
      "inputs": [],
      "name": "forestToken",
      "outputs": [
        {
          "internalType": "contract IForestToken",
          "name": "",
          "type": "address"
        }
      ],
      "stateMutability": "view",
      "type": "function"
    },
    {
      "inputs": [
        {
          "internalType": "address",
          "name": "",
          "type": "address"
        },
        {
          "internalType": "address",
          "name": "",
          "type": "address"
        }
      ],
      "name": "friendRequests",
      "outputs": [
        {
          "internalType": "bool",
          "name": "",
          "type": "bool"
        }
      ],
      "stateMutability": "view",
      "type": "function"
    },
    {
      "inputs": [
        {
          "internalType": "string",
          "name": "_name",
          "type": "string"
        }
      ],
      "name": "getAddressByName",
      "outputs": [
        {
          "internalType": "address",
          "name": "",
          "type": "address"
        }
      ],
      "stateMutability": "view",
      "type": "function"
    },
    {
      "inputs": [],
      "name": "getAllUsers",
      "outputs": [
        {
          "internalType": "address[]",
          "name": "",
          "type": "address[]"
        }
      ],
      "stateMutability": "view",
      "type": "function"
    },
    {
      "inputs": [
        {
          "internalType": "address",
          "name": "_userAddress",
          "type": "address"
        }
      ],
      "name": "getFriendCount",
      "outputs": [
        {
          "internalType": "uint256",
          "name": "",
          "type": "uint256"
        }
      ],
      "stateMutability": "view",
      "type": "function"
    },
    {
      "inputs": [
        {
          "internalType": "address",
          "name": "_userAddress",
          "type": "address"
        }
      ],
      "name": "getFriends",
      "outputs": [
        {
          "internalType": "address[]",
          "name": "",
          "type": "address[]"
        }
      ],
      "stateMutability": "view",
      "type": "function"
    },
    {
      "inputs": [],
      "name": "getTotalUsers",
      "outputs": [
        {
          "internalType": "uint256",
          "name": "",
          "type": "uint256"
        }
      ],
      "stateMutability": "view",
      "type": "function"
    },
    {
      "inputs": [
        {
          "internalType": "address",
          "name": "_userAddress",
          "type": "address"
        }
      ],
      "name": "getUserInfo",
      "outputs": [
        {
          "internalType": "string",
          "name": "name",
          "type": "string"
        },
        {
          "internalType": "address",
          "name": "userAddress",
          "type": "address"
        },
        {
          "internalType": "bool",
          "name": "exists",
          "type": "bool"
        },
        {
          "internalType": "address[]",
          "name": "friends",
          "type": "address[]"
        },
        {
          "internalType": "uint256",
          "name": "createdAt",
          "type": "uint256"
        }
      ],
      "stateMutability": "view",
      "type": "function"
    },
    {
      "inputs": [
        {
          "internalType": "string",
          "name": "_name",
          "type": "string"
        }
      ],
      "name": "isNameAvailable",
      "outputs": [
        {
          "internalType": "bool",
          "name": "",
          "type": "bool"
        }
      ],
      "stateMutability": "view",
      "type": "function"
    },
    {
      "inputs": [
        {
          "internalType": "address",
          "name": "_userAddress",
          "type": "address"
        }
      ],
      "name": "isUserRegistered",
      "outputs": [
        {
          "internalType": "bool",
          "name": "",
          "type": "bool"
        }
      ],
      "stateMutability": "view",
      "type": "function"
    },
    {
      "inputs": [
        {
          "internalType": "string",
          "name": "",
          "type": "string"
        }
      ],
      "name": "nameToAddress",
      "outputs": [
        {
          "internalType": "address",
          "name": "",
          "type": "address"
        }
      ],
      "stateMutability": "view",
      "type": "function"
    },
    {
      "inputs": [],
      "name": "owner",
      "outputs": [
        {
          "internalType": "address",
          "name": "",
          "type": "address"
        }
      ],
      "stateMutability": "view",
      "type": "function"
    },
    {
      "inputs": [
        {
          "internalType": "string",
          "name": "_name",
          "type": "string"
        }
      ],
      "name": "registerUser",
      "outputs": [],
      "stateMutability": "nonpayable",
      "type": "function"
    },
    {
      "inputs": [
        {
          "internalType": "address",
          "name": "_from",
          "type": "address"
        },
        {
          "internalType": "string",
          "name": "_name",
          "type": "string"
        }
      ],
      "name": "registerUserAdmin",
      "outputs": [],
      "stateMutability": "nonpayable",
      "type": "function"
    },
    {
      "inputs": [
        {
          "internalType": "address",
          "name": "_friendAddress",
          "type": "address"
        }
      ],
      "name": "removeFriend",
      "outputs": [],
      "stateMutability": "nonpayable",
      "type": "function"
    },
    {
      "inputs": [
        {
          "internalType": "address",
          "name": "_from",
          "type": "address"
        },
        {
          "internalType": "address",
          "name": "_friendAddress",
          "type": "address"
        }
      ],
      "name": "removeFriendAdmin",
      "outputs": [],
      "stateMutability": "nonpayable",
      "type": "function"
    },
    {
      "inputs": [],
      "name": "renounceOwnership",
      "outputs": [],
      "stateMutability": "nonpayable",
      "type": "function"
    },
    {
      "inputs": [
        {
          "internalType": "address",
          "name": "_to",
          "type": "address"
        }
      ],
      "name": "sendFriendRequest",
      "outputs": [],
      "stateMutability": "nonpayable",
      "type": "function"
    },
    {
      "inputs": [
        {
          "internalType": "address",
          "name": "_from",
          "type": "address"
        },
        {
          "internalType": "address",
          "name": "_to",
          "type": "address"
        }
      ],
      "name": "sendFriendRequestAdmin",
      "outputs": [],
      "stateMutability": "nonpayable",
      "type": "function"
    },
    {
      "inputs": [
        {
          "internalType": "address",
          "name": "_forestTokenAddress",
          "type": "address"
        }
      ],
      "name": "setForestTokenAddress",
      "outputs": [],
      "stateMutability": "nonpayable",
      "type": "function"
    },
    {
      "inputs": [
        {
          "internalType": "address",
          "name": "newOwner",
          "type": "address"
        }
      ],
      "name": "transferOwnership",
      "outputs": [],
      "stateMutability": "nonpayable",
      "type": "function"
    },
    {
      "inputs": [
        {
          "internalType": "address",
          "name": "",
          "type": "address"
        }
      ],
      "name": "users",
      "outputs": [
        {
          "internalType": "string",
          "name": "name",
          "type": "string"
        },
        {
          "internalType": "address",
          "name": "userAddress",
          "type": "address"
        },
        {
          "internalType": "bool",
          "name": "exists",
          "type": "bool"
        },
        {
          "internalType": "uint256",
          "name": "createdAt",
          "type": "uint256"
        }
      ],
      "stateMutability": "view",
      "type": "function"
    }
  ],
  "bytecode": "0x608060405234801561001057600080fd5b5061002d61002261003260201b60201c565b61003a60201b60201c565b6100fe565b600033905090565b60008060009054906101000a900473ffffffffffffffffffffffffffffffffffffffff169050816000806101000a81548173ffffffffffffffffffffffffffffffffffffffff021916908373ffffffffffffffffffffffffffffffffffffffff1602179055508173ffffffffffffffffffffffffffffffffffffffff168173ffffffffffffffffffffffffffffffffffffffff167f8be0079c531659141344cd1fd0a4f28419497f9722a3daafe3b4186f6b6457e060405160405180910390a35050565b6150d98061010d6000396000f3fe608060405234801561001057600080fd5b50600436106101c45760003560e01c8063837b770a116100f9578063a87430ba11610097578063c797c0a811610071578063c797c0a814610540578063e2842d791461055c578063f2fde38b1461057a578063f54f2cf614610596576101c4565b8063a87430ba146104d3578063a9f5646614610506578063bb154db614610522576101c4565b80638da5cb5b116100d35780638da5cb5b146104375780639a65ddec146104555780639be572f614610485578063a2bdedf4146104a3576101c4565b8063837b770a146103bb5780638a1c43ea146103d75780638cf44d2114610407576101c4565b80635cbb7caa11610166578063704f1b9411610140578063704f1b9414610349578063715018a61461036557806380cee8a51461036f5780638110a8001461038b576101c4565b80635cbb7caa146102b55780636386c1c7146102e557806366b2825314610319576101c4565b80633296ea10116101a25780633296ea10146102455780634969d18a146102615780634ec41eca1461027d5780635353a2d814610299576101c4565b806308d88aad146101c9578063163f7522146101f95780632ee340af14610229575b600080fd5b6101e360048036038101906101de919061414c565b6105b2565b6040516101f091906141d6565b60405180910390f35b610213600480360381019061020e919061421d565b6105fb565b6040516102209190614265565b60405180910390f35b610243600480360381019061023e9190614280565b610654565b005b61025f600480360381019061025a91906142dc565b6109fb565b005b61027b600480360381019061027691906142dc565b610e28565b005b61029760048036038101906102929190614280565b611256565b005b6102b360048036038101906102ae919061414c565b61176b565b005b6102cf60048036038101906102ca919061421d565b611c77565b6040516102dc91906143da565b60405180910390f35b6102ff60048036038101906102fa919061421d565b611dd8565b604051610310959493929190614494565b60405180910390f35b610333600480360381019061032e919061421d565b611f8f565b60405161034091906144f5565b60405180910390f35b610363600480360381019061035e919061414c565b61206f565b005b61036d61240d565b005b6103896004803603810190610384919061421d565b612421565b005b6103a560048036038101906103a091906142dc565b612846565b6040516103b29190614265565b60405180910390f35b6103d560048036038101906103d0919061421d565b6128dd565b005b6103f160048036038101906103ec91906142dc565b612d01565b6040516103fe9190614265565b60405180910390f35b610421600480360381019061041c919061414c565b612d30565b60405161042e9190614265565b60405180910390f35b61043f612da6565b60405161044c91906141d6565b60405180910390f35b61046f600480360381019061046a919061414c565b612dcf565b60405161047c91906141d6565b60405180910390f35b61048d612e17565b60405161049a91906144f5565b60405180910390f35b6104bd60048036038101906104b8919061453c565b612e24565b6040516104ca91906141d6565b60405180910390f35b6104ed60048036038101906104e8919061421d565b612e63565b6040516104fd9493929190614569565b60405180910390f35b610520600480360381019061051b919061421d565b612f48565b005b61052a613632565b6040516105379190614614565b60405180910390f35b61055a600480360381019061055591906142dc565b613658565b005b610564613d4b565b60405161057191906143da565b60405180910390f35b610594600480360381019061058f919061421d565b613dd9565b005b6105b060048036038101906105ab919061421d565b613e5c565b005b6002818051602081018201805184825260208301602085012081835280955050505050506000915054906101000a900473ffffffffffffffffffffffffffffffffffffffff1681565b6000600160008373ffffffffffffffffffffffffffffffffffffffff1673ffffffffffffffffffffffffffffffffffffffff16815260200190815260200160002060010160149054906101000a900460ff169050919050565b61065c613ea8565b81600160008273ffffffffffffffffffffffffffffffffffffffff1673ffffffffffffffffffffffffffffffffffffffff16815260200190815260200160002060010160149054906101000a900460ff16156106ed576040517f08c379a00000000000000000000000000000000000000000000000000000000081526004016106e49061467b565b60405180910390fd5b81600073ffffffffffffffffffffffffffffffffffffffff1660028260405161071691906146d7565b908152602001604051809103902060009054906101000a900473ffffffffffffffffffffffffffffffffffffffff1673ffffffffffffffffffffffffffffffffffffffff161461079b576040517f08c379a00000000000000000000000000000000000000000000000000000000081526004016107929061473a565b60405180910390fd5b8260008151116107e0576040517f08c379a00000000000000000000000000000000000000000000000000000000081526004016107d7906147a6565b60405180910390fd5b603281511115610825576040517f08c379a000000000000000000000000000000000000000000000000000000000815260040161081c90614812565b60405180910390fd5b6000600160008773ffffffffffffffffffffffffffffffffffffffff1673ffffffffffffffffffffffffffffffffffffffff1681526020019081526020016000209050848160000190816108799190614a34565b50858160010160006101000a81548173ffffffffffffffffffffffffffffffffffffffff021916908373ffffffffffffffffffffffffffffffffffffffff16021790555060018160010160146101000a81548160ff021916908315150217905550428160040181905550856002866040516108f491906146d7565b908152602001604051809103902060006101000a81548173ffffffffffffffffffffffffffffffffffffffff021916908373ffffffffffffffffffffffffffffffffffffffff1602179055506003869080600181540180825580915050600190039060005260206000200160009091909190916101000a81548173ffffffffffffffffffffffffffffffffffffffff021916908373ffffffffffffffffffffffffffffffffffffffff1602179055508573ffffffffffffffffffffffffffffffffffffffff167f89105a1c6a3c2fbd471255c66a31ccab604af5697f67d7e2e9a0028c5e4dbd9186426040516109eb929190614b06565b60405180910390a2505050505050565b610a03613ea8565b81600160008273ffffffffffffffffffffffffffffffffffffffff1673ffffffffffffffffffffffffffffffffffffffff16815260200190815260200160002060010160149054906101000a900460ff16610a93576040517f08c379a0000000000000000000000000000000000000000000000000000000008152600401610a8a90614b82565b60405180910390fd5b81600160008273ffffffffffffffffffffffffffffffffffffffff1673ffffffffffffffffffffffffffffffffffffffff16815260200190815260200160002060010160149054906101000a900460ff16610b23576040517f08c379a0000000000000000000000000000000000000000000000000000000008152600401610b1a90614b82565b60405180910390fd5b8273ffffffffffffffffffffffffffffffffffffffff168473ffffffffffffffffffffffffffffffffffffffff1603610b91576040517f08c379a0000000000000000000000000000000000000000000000000000000008152600401610b8890614c14565b60405180910390fd5b600160008573ffffffffffffffffffffffffffffffffffffffff1673ffffffffffffffffffffffffffffffffffffffff16815260200190815260200160002060030160008473ffffffffffffffffffffffffffffffffffffffff1673ffffffffffffffffffffffffffffffffffffffff16815260200190815260200160002060009054906101000a900460ff1615610c5e576040517f08c379a0000000000000000000000000000000000000000000000000000000008152600401610c5590614c80565b60405180910390fd5b600460008573ffffffffffffffffffffffffffffffffffffffff1673ffffffffffffffffffffffffffffffffffffffff16815260200190815260200160002060008473ffffffffffffffffffffffffffffffffffffffff1673ffffffffffffffffffffffffffffffffffffffff16815260200190815260200160002060009054906101000a900460ff1615610d28576040517f08c379a0000000000000000000000000000000000000000000000000000000008152600401610d1f90614d12565b60405180910390fd5b6001600460008673ffffffffffffffffffffffffffffffffffffffff1673ffffffffffffffffffffffffffffffffffffffff16815260200190815260200160002060008573ffffffffffffffffffffffffffffffffffffffff1673ffffffffffffffffffffffffffffffffffffffff16815260200190815260200160002060006101000a81548160ff0219169083151502179055508273ffffffffffffffffffffffffffffffffffffffff168473ffffffffffffffffffffffffffffffffffffffff167fc674dc10458b51dbf879e578e49eda21dc2e722c2790719dba64f006243dc8d042604051610e1a91906144f5565b60405180910390a350505050565b610e30613ea8565b81600160008273ffffffffffffffffffffffffffffffffffffffff1673ffffffffffffffffffffffffffffffffffffffff16815260200190815260200160002060010160149054906101000a900460ff16610ec0576040517f08c379a0000000000000000000000000000000000000000000000000000000008152600401610eb790614b82565b60405180910390fd5b600160008473ffffffffffffffffffffffffffffffffffffffff1673ffffffffffffffffffffffffffffffffffffffff16815260200190815260200160002060030160008373ffffffffffffffffffffffffffffffffffffffff1673ffffffffffffffffffffffffffffffffffffffff16815260200190815260200160002060009054906101000a900460ff16610f8c576040517f08c379a0000000000000000000000000000000000000000000000000000000008152600401610f8390614d7e565b60405180910390fd5b6000600160008573ffffffffffffffffffffffffffffffffffffffff1673ffffffffffffffffffffffffffffffffffffffff168152602001908152602001600020600201905060005b8180549050811015611152578373ffffffffffffffffffffffffffffffffffffffff1682828154811061100b5761100a614d9e565b5b9060005260206000200160009054906101000a900473ffffffffffffffffffffffffffffffffffffffff1673ffffffffffffffffffffffffffffffffffffffff16036111455781600183805490506110639190614dfc565b8154811061107457611073614d9e565b5b9060005260206000200160009054906101000a900473ffffffffffffffffffffffffffffffffffffffff168282815481106110b2576110b1614d9e565b5b9060005260206000200160006101000a81548173ffffffffffffffffffffffffffffffffffffffff021916908373ffffffffffffffffffffffffffffffffffffffff1602179055508180548061110b5761110a614e30565b5b6001900381819060005260206000200160006101000a81549073ffffffffffffffffffffffffffffffffffffffff02191690559055611152565b8080600101915050610fd5565b506000600160008673ffffffffffffffffffffffffffffffffffffffff1673ffffffffffffffffffffffffffffffffffffffff16815260200190815260200160002060030160008573ffffffffffffffffffffffffffffffffffffffff1673ffffffffffffffffffffffffffffffffffffffff16815260200190815260200160002060006101000a81548160ff0219169083151502179055508273ffffffffffffffffffffffffffffffffffffffff168473ffffffffffffffffffffffffffffffffffffffff167f969004a2b12b94321909d327bc9dc2a4fb7372ba3df22c77c30edcb6c1e6106a4260405161124891906144f5565b60405180910390a350505050565b61125e613ea8565b81600160008273ffffffffffffffffffffffffffffffffffffffff1673ffffffffffffffffffffffffffffffffffffffff16815260200190815260200160002060010160149054906101000a900460ff166112ee576040517f08c379a00000000000000000000000000000000000000000000000000000000081526004016112e590614b82565b60405180910390fd5b81600073ffffffffffffffffffffffffffffffffffffffff1660028260405161131791906146d7565b908152602001604051809103902060009054906101000a900473ffffffffffffffffffffffffffffffffffffffff1673ffffffffffffffffffffffffffffffffffffffff161461139c576040517f08c379a00000000000000000000000000000000000000000000000000000000081526004016113939061473a565b60405180910390fd5b8260008151116113e1576040517f08c379a00000000000000000000000000000000000000000000000000000000081526004016113d8906147a6565b60405180910390fd5b603281511115611426576040517f08c379a000000000000000000000000000000000000000000000000000000000815260040161141d90614812565b60405180910390fd5b600073ffffffffffffffffffffffffffffffffffffffff16600560009054906101000a900473ffffffffffffffffffffffffffffffffffffffff1673ffffffffffffffffffffffffffffffffffffffff16036114b7576040517f08c379a00000000000000000000000000000000000000000000000000000000081526004016114ae90614eab565b60405180910390fd5b6000600160008773ffffffffffffffffffffffffffffffffffffffff1673ffffffffffffffffffffffffffffffffffffffff168152602001908152602001600020600001805461150690614861565b80601f016020809104026020016040519081016040528092919081815260200182805461153290614861565b801561157f5780601f106115545761010080835404028352916020019161157f565b820191906000526020600020905b81548152906001019060200180831161156257829003601f168201915b505050505090506000678ac7230489e800009050600560009054906101000a900473ffffffffffffffffffffffffffffffffffffffff1673ffffffffffffffffffffffffffffffffffffffff166345f3427288836040518363ffffffff1660e01b81526004016115f0929190614ecb565b600060405180830381600087803b15801561160a57600080fd5b505af115801561161e573d6000803e3d6000fd5b5050505060028260405161163291906146d7565b908152602001604051809103902060006101000a81549073ffffffffffffffffffffffffffffffffffffffff021916905585600160008973ffffffffffffffffffffffffffffffffffffffff1673ffffffffffffffffffffffffffffffffffffffff16815260200190815260200160002060000190816116b29190614a34565b50866002876040516116c491906146d7565b908152602001604051809103902060006101000a81548173ffffffffffffffffffffffffffffffffffffffff021916908373ffffffffffffffffffffffffffffffffffffffff1602179055508673ffffffffffffffffffffffffffffffffffffffff167ff213349dece06413513eeb2c59f7a9faa83fa3e299d7243e9159c2e077656a6283884260405161175a93929190614ef4565b60405180910390a250505050505050565b33600160008273ffffffffffffffffffffffffffffffffffffffff1673ffffffffffffffffffffffffffffffffffffffff16815260200190815260200160002060010160149054906101000a900460ff166117fb576040517f08c379a00000000000000000000000000000000000000000000000000000000081526004016117f290614b82565b60405180910390fd5b81600073ffffffffffffffffffffffffffffffffffffffff1660028260405161182491906146d7565b908152602001604051809103902060009054906101000a900473ffffffffffffffffffffffffffffffffffffffff1673ffffffffffffffffffffffffffffffffffffffff16146118a9576040517f08c379a00000000000000000000000000000000000000000000000000000000081526004016118a09061473a565b60405180910390fd5b8260008151116118ee576040517f08c379a00000000000000000000000000000000000000000000000000000000081526004016118e5906147a6565b60405180910390fd5b603281511115611933576040517f08c379a000000000000000000000000000000000000000000000000000000000815260040161192a90614812565b60405180910390fd5b600073ffffffffffffffffffffffffffffffffffffffff16600560009054906101000a900473ffffffffffffffffffffffffffffffffffffffff1673ffffffffffffffffffffffffffffffffffffffff16036119c4576040517f08c379a00000000000000000000000000000000000000000000000000000000081526004016119bb90614eab565b60405180910390fd5b6000600160003373ffffffffffffffffffffffffffffffffffffffff1673ffffffffffffffffffffffffffffffffffffffff1681526020019081526020016000206000018054611a1390614861565b80601f0160208091040260200160405190810160405280929190818152602001828054611a3f90614861565b8015611a8c5780601f10611a6157610100808354040283529160200191611a8c565b820191906000526020600020905b815481529060010190602001808311611a6f57829003601f168201915b505050505090506000678ac7230489e800009050600560009054906101000a900473ffffffffffffffffffffffffffffffffffffffff1673ffffffffffffffffffffffffffffffffffffffff166345f3427233836040518363ffffffff1660e01b8152600401611afd929190614ecb565b600060405180830381600087803b158015611b1757600080fd5b505af1158015611b2b573d6000803e3d6000fd5b50505050600282604051611b3f91906146d7565b908152602001604051809103902060006101000a81549073ffffffffffffffffffffffffffffffffffffffff021916905585600160003373ffffffffffffffffffffffffffffffffffffffff1673ffffffffffffffffffffffffffffffffffffffff1681526020019081526020016000206000019081611bbf9190614a34565b5033600287604051611bd191906146d7565b908152602001604051809103902060006101000a81548173ffffffffffffffffffffffffffffffffffffffff021916908373ffffffffffffffffffffffffffffffffffffffff1602179055503373ffffffffffffffffffffffffffffffffffffffff167ff213349dece06413513eeb2c59f7a9faa83fa3e299d7243e9159c2e077656a62838842604051611c6793929190614ef4565b60405180910390a2505050505050565b606081600160008273ffffffffffffffffffffffffffffffffffffffff1673ffffffffffffffffffffffffffffffffffffffff16815260200190815260200160002060010160149054906101000a900460ff16611d09576040517f08c379a0000000000000000000000000000000000000000000000000000000008152600401611d0090614b82565b60405180910390fd5b600160008473ffffffffffffffffffffffffffffffffffffffff1673ffffffffffffffffffffffffffffffffffffffff168152602001908152602001600020600201805480602002602001604051908101604052809291908181526020018280548015611dcb57602002820191906000526020600020905b8160009054906101000a900473ffffffffffffffffffffffffffffffffffffffff1673ffffffffffffffffffffffffffffffffffffffff1681526020019060010190808311611d81575b5050505050915050919050565b60606000806060600080600160008873ffffffffffffffffffffffffffffffffffffffff1673ffffffffffffffffffffffffffffffffffffffff1681526020019081526020016000209050806000018160010160009054906101000a900473ffffffffffffffffffffffffffffffffffffffff168260010160149054906101000a900460ff16836002018460040154848054611e7390614861565b80601f0160208091040260200160405190810160405280929190818152602001828054611e9f90614861565b8015611eec5780601f10611ec157610100808354040283529160200191611eec565b820191906000526020600020905b815481529060010190602001808311611ecf57829003601f168201915b5050505050945081805480602002602001604051908101604052809291908181526020018280548015611f7457602002820191906000526020600020905b8160009054906101000a900473ffffffffffffffffffffffffffffffffffffffff1673ffffffffffffffffffffffffffffffffffffffff1681526020019060010190808311611f2a575b50505050509150955095509550955095505091939590929450565b600081600160008273ffffffffffffffffffffffffffffffffffffffff1673ffffffffffffffffffffffffffffffffffffffff16815260200190815260200160002060010160149054906101000a900460ff16612021576040517f08c379a000000000000000000000000000000000000000000000000000000000815260040161201890614b82565b60405180910390fd5b600160008473ffffffffffffffffffffffffffffffffffffffff1673ffffffffffffffffffffffffffffffffffffffff16815260200190815260200160002060020180549050915050919050565b33600160008273ffffffffffffffffffffffffffffffffffffffff1673ffffffffffffffffffffffffffffffffffffffff16815260200190815260200160002060010160149054906101000a900460ff1615612100576040517f08c379a00000000000000000000000000000000000000000000000000000000081526004016120f79061467b565b60405180910390fd5b81600073ffffffffffffffffffffffffffffffffffffffff1660028260405161212991906146d7565b908152602001604051809103902060009054906101000a900473ffffffffffffffffffffffffffffffffffffffff1673ffffffffffffffffffffffffffffffffffffffff16146121ae576040517f08c379a00000000000000000000000000000000000000000000000000000000081526004016121a59061473a565b60405180910390fd5b8260008151116121f3576040517f08c379a00000000000000000000000000000000000000000000000000000000081526004016121ea906147a6565b60405180910390fd5b603281511115612238576040517f08c379a000000000000000000000000000000000000000000000000000000000815260040161222f90614812565b60405180910390fd5b6000600160003373ffffffffffffffffffffffffffffffffffffffff1673ffffffffffffffffffffffffffffffffffffffff16815260200190815260200160002090508481600001908161228c9190614a34565b50338160010160006101000a81548173ffffffffffffffffffffffffffffffffffffffff021916908373ffffffffffffffffffffffffffffffffffffffff16021790555060018160010160146101000a81548160ff0219169083151502179055504281600401819055503360028660405161230791906146d7565b908152602001604051809103902060006101000a81548173ffffffffffffffffffffffffffffffffffffffff021916908373ffffffffffffffffffffffffffffffffffffffff1602179055506003339080600181540180825580915050600190039060005260206000200160009091909190916101000a81548173ffffffffffffffffffffffffffffffffffffffff021916908373ffffffffffffffffffffffffffffffffffffffff1602179055503373ffffffffffffffffffffffffffffffffffffffff167f89105a1c6a3c2fbd471255c66a31ccab604af5697f67d7e2e9a0028c5e4dbd9186426040516123fe929190614b06565b60405180910390a25050505050565b612415613ea8565b61241f6000613f26565b565b33600160008273ffffffffffffffffffffffffffffffffffffffff1673ffffffffffffffffffffffffffffffffffffffff16815260200190815260200160002060010160149054906101000a900460ff166124b1576040517f08c379a00000000000000000000000000000000000000000000000000000000081526004016124a890614b82565b60405180910390fd5b600160003373ffffffffffffffffffffffffffffffffffffffff1673ffffffffffffffffffffffffffffffffffffffff16815260200190815260200160002060030160008373ffffffffffffffffffffffffffffffffffffffff1673ffffffffffffffffffffffffffffffffffffffff16815260200190815260200160002060009054906101000a900460ff1661257d576040517f08c379a000000000000000000000000000000000000000000000000000000000815260040161257490614d7e565b60405180910390fd5b6000600160003373ffffffffffffffffffffffffffffffffffffffff1673ffffffffffffffffffffffffffffffffffffffff168152602001908152602001600020600201905060005b8180549050811015612743578373ffffffffffffffffffffffffffffffffffffffff168282815481106125fc576125fb614d9e565b5b9060005260206000200160009054906101000a900473ffffffffffffffffffffffffffffffffffffffff1673ffffffffffffffffffffffffffffffffffffffff16036127365781600183805490506126549190614dfc565b8154811061266557612664614d9e565b5b9060005260206000200160009054906101000a900473ffffffffffffffffffffffffffffffffffffffff168282815481106126a3576126a2614d9e565b5b9060005260206000200160006101000a81548173ffffffffffffffffffffffffffffffffffffffff021916908373ffffffffffffffffffffffffffffffffffffffff160217905550818054806126fc576126fb614e30565b5b6001900381819060005260206000200160006101000a81549073ffffffffffffffffffffffffffffffffffffffff02191690559055612743565b80806001019150506125c6565b506000600160003373ffffffffffffffffffffffffffffffffffffffff1673ffffffffffffffffffffffffffffffffffffffff16815260200190815260200160002060030160008573ffffffffffffffffffffffffffffffffffffffff1673ffffffffffffffffffffffffffffffffffffffff16815260200190815260200160002060006101000a81548160ff0219169083151502179055508273ffffffffffffffffffffffffffffffffffffffff163373ffffffffffffffffffffffffffffffffffffffff167f969004a2b12b94321909d327bc9dc2a4fb7372ba3df22c77c30edcb6c1e6106a4260405161283991906144f5565b60405180910390a3505050565b6000600160008473ffffffffffffffffffffffffffffffffffffffff1673ffffffffffffffffffffffffffffffffffffffff16815260200190815260200160002060030160008373ffffffffffffffffffffffffffffffffffffffff1673ffffffffffffffffffffffffffffffffffffffff16815260200190815260200160002060009054906101000a900460ff16905092915050565b33600160008273ffffffffffffffffffffffffffffffffffffffff1673ffffffffffffffffffffffffffffffffffffffff16815260200190815260200160002060010160149054906101000a900460ff1661296d576040517f08c379a000000000000000000000000000000000000000000000000000000000815260040161296490614b82565b60405180910390fd5b81600160008273ffffffffffffffffffffffffffffffffffffffff1673ffffffffffffffffffffffffffffffffffffffff16815260200190815260200160002060010160149054906101000a900460ff166129fd576040517f08c379a00000000000000000000000000000000000000000000000000000000081526004016129f490614b82565b60405180910390fd5b8273ffffffffffffffffffffffffffffffffffffffff163373ffffffffffffffffffffffffffffffffffffffff1603612a6b576040517f08c379a0000000000000000000000000000000000000000000000000000000008152600401612a6290614c14565b60405180910390fd5b600160003373ffffffffffffffffffffffffffffffffffffffff1673ffffffffffffffffffffffffffffffffffffffff16815260200190815260200160002060030160008473ffffffffffffffffffffffffffffffffffffffff1673ffffffffffffffffffffffffffffffffffffffff16815260200190815260200160002060009054906101000a900460ff1615612b38576040517f08c379a0000000000000000000000000000000000000000000000000000000008152600401612b2f90614c80565b60405180910390fd5b600460003373ffffffffffffffffffffffffffffffffffffffff1673ffffffffffffffffffffffffffffffffffffffff16815260200190815260200160002060008473ffffffffffffffffffffffffffffffffffffffff1673ffffffffffffffffffffffffffffffffffffffff16815260200190815260200160002060009054906101000a900460ff1615612c02576040517f08c379a0000000000000000000000000000000000000000000000000000000008152600401612bf990614d12565b60405180910390fd5b6001600460003373ffffffffffffffffffffffffffffffffffffffff1673ffffffffffffffffffffffffffffffffffffffff16815260200190815260200160002060008573ffffffffffffffffffffffffffffffffffffffff1673ffffffffffffffffffffffffffffffffffffffff16815260200190815260200160002060006101000a81548160ff0219169083151502179055508273ffffffffffffffffffffffffffffffffffffffff163373ffffffffffffffffffffffffffffffffffffffff167fc674dc10458b51dbf879e578e49eda21dc2e722c2790719dba64f006243dc8d042604051612cf491906144f5565b60405180910390a3505050565b60046020528160005260406000206020528060005260406000206000915091509054906101000a900460ff1681565b60008073ffffffffffffffffffffffffffffffffffffffff16600283604051612d5991906146d7565b908152602001604051809103902060009054906101000a900473ffffffffffffffffffffffffffffffffffffffff1673ffffffffffffffffffffffffffffffffffffffff16149050919050565b60008060009054906101000a900473ffffffffffffffffffffffffffffffffffffffff16905090565b6000600282604051612de191906146d7565b908152602001604051809103902060009054906101000a900473ffffffffffffffffffffffffffffffffffffffff169050919050565b6000600380549050905090565b60038181548110612e3457600080fd5b906000526020600020016000915054906101000a900473ffffffffffffffffffffffffffffffffffffffff1681565b6001602052806000526040600020600091509050806000018054612e8690614861565b80601f0160208091040260200160405190810160405280929190818152602001828054612eb290614861565b8015612eff5780601f10612ed457610100808354040283529160200191612eff565b820191906000526020600020905b815481529060010190602001808311612ee257829003601f168201915b5050505050908060010160009054906101000a900473ffffffffffffffffffffffffffffffffffffffff16908060010160149054906101000a900460ff16908060040154905084565b33600160008273ffffffffffffffffffffffffffffffffffffffff1673ffffffffffffffffffffffffffffffffffffffff16815260200190815260200160002060010160149054906101000a900460ff16612fd8576040517f08c379a0000000000000000000000000000000000000000000000000000000008152600401612fcf90614b82565b60405180910390fd5b81600160008273ffffffffffffffffffffffffffffffffffffffff1673ffffffffffffffffffffffffffffffffffffffff16815260200190815260200160002060010160149054906101000a900460ff16613068576040517f08c379a000000000000000000000000000000000000000000000000000000000815260040161305f90614b82565b60405180910390fd5b600460008473ffffffffffffffffffffffffffffffffffffffff1673ffffffffffffffffffffffffffffffffffffffff16815260200190815260200160002060003373ffffffffffffffffffffffffffffffffffffffff1673ffffffffffffffffffffffffffffffffffffffff16815260200190815260200160002060009054906101000a900460ff16613131576040517f08c379a000000000000000000000000000000000000000000000000000000000815260040161312890614f85565b60405180910390fd5b600160003373ffffffffffffffffffffffffffffffffffffffff1673ffffffffffffffffffffffffffffffffffffffff16815260200190815260200160002060030160008473ffffffffffffffffffffffffffffffffffffffff1673ffffffffffffffffffffffffffffffffffffffff16815260200190815260200160002060009054906101000a900460ff16156131fe576040517f08c379a00000000000000000000000000000000000000000000000000000000081526004016131f590614c80565b60405180910390fd5b600160003373ffffffffffffffffffffffffffffffffffffffff1673ffffffffffffffffffffffffffffffffffffffff168152602001908152602001600020600201839080600181540180825580915050600190039060005260206000200160009091909190916101000a81548173ffffffffffffffffffffffffffffffffffffffff021916908373ffffffffffffffffffffffffffffffffffffffff16021790555060018060003373ffffffffffffffffffffffffffffffffffffffff1673ffffffffffffffffffffffffffffffffffffffff16815260200190815260200160002060030160008573ffffffffffffffffffffffffffffffffffffffff1673ffffffffffffffffffffffffffffffffffffffff16815260200190815260200160002060006101000a81548160ff021916908315150217905550600160008473ffffffffffffffffffffffffffffffffffffffff1673ffffffffffffffffffffffffffffffffffffffff168152602001908152602001600020600201339080600181540180825580915050600190039060005260206000200160009091909190916101000a81548173ffffffffffffffffffffffffffffffffffffffff021916908373ffffffffffffffffffffffffffffffffffffffff16021790555060018060008573ffffffffffffffffffffffffffffffffffffffff1673ffffffffffffffffffffffffffffffffffffffff16815260200190815260200160002060030160003373ffffffffffffffffffffffffffffffffffffffff1673ffffffffffffffffffffffffffffffffffffffff16815260200190815260200160002060006101000a81548160ff021916908315150217905550600460008473ffffffffffffffffffffffffffffffffffffffff1673ffffffffffffffffffffffffffffffffffffffff16815260200190815260200160002060003373ffffffffffffffffffffffffffffffffffffffff1673ffffffffffffffffffffffffffffffffffffffff16815260200190815260200160002060006101000a81549060ff02191690553373ffffffffffffffffffffffffffffffffffffffff168373ffffffffffffffffffffffffffffffffffffffff167fc67647f0dc29b904529afc5071206426962fab8a22847d1dc5e49de234defe084260405161355b91906144f5565b60405180910390a38273ffffffffffffffffffffffffffffffffffffffff163373ffffffffffffffffffffffffffffffffffffffff167f3365f8db520261f96abff7e0cf11cf08c78948d7bba32f8e3cef112242f8f247426040516135c091906144f5565b60405180910390a33373ffffffffffffffffffffffffffffffffffffffff168373ffffffffffffffffffffffffffffffffffffffff167f3365f8db520261f96abff7e0cf11cf08c78948d7bba32f8e3cef112242f8f2474260405161362591906144f5565b60405180910390a3505050565b600560009054906101000a900473ffffffffffffffffffffffffffffffffffffffff1681565b613660613ea8565b81600160008273ffffffffffffffffffffffffffffffffffffffff1673ffffffffffffffffffffffffffffffffffffffff16815260200190815260200160002060010160149054906101000a900460ff166136f0576040517f08c379a00000000000000000000000000000000000000000000000000000000081526004016136e790614b82565b60405180910390fd5b81600160008273ffffffffffffffffffffffffffffffffffffffff1673ffffffffffffffffffffffffffffffffffffffff16815260200190815260200160002060010160149054906101000a900460ff16613780576040517f08c379a000000000000000000000000000000000000000000000000000000000815260040161377790614b82565b60405180910390fd5b600460008573ffffffffffffffffffffffffffffffffffffffff1673ffffffffffffffffffffffffffffffffffffffff16815260200190815260200160002060008473ffffffffffffffffffffffffffffffffffffffff1673ffffffffffffffffffffffffffffffffffffffff16815260200190815260200160002060009054906101000a900460ff16613849576040517f08c379a000000000000000000000000000000000000000000000000000000000815260040161384090614f85565b60405180910390fd5b600160008573ffffffffffffffffffffffffffffffffffffffff1673ffffffffffffffffffffffffffffffffffffffff16815260200190815260200160002060030160008473ffffffffffffffffffffffffffffffffffffffff1673ffffffffffffffffffffffffffffffffffffffff16815260200190815260200160002060009054906101000a900460ff1615613916576040517f08c379a000000000000000000000000000000000000000000000000000000000815260040161390d90614c80565b60405180910390fd5b600160008473ffffffffffffffffffffffffffffffffffffffff1673ffffffffffffffffffffffffffffffffffffffff168152602001908152602001600020600201849080600181540180825580915050600190039060005260206000200160009091909190916101000a81548173ffffffffffffffffffffffffffffffffffffffff021916908373ffffffffffffffffffffffffffffffffffffffff16021790555060018060008573ffffffffffffffffffffffffffffffffffffffff1673ffffffffffffffffffffffffffffffffffffffff16815260200190815260200160002060030160008673ffffffffffffffffffffffffffffffffffffffff1673ffffffffffffffffffffffffffffffffffffffff16815260200190815260200160002060006101000a81548160ff021916908315150217905550600160008573ffffffffffffffffffffffffffffffffffffffff1673ffffffffffffffffffffffffffffffffffffffff168152602001908152602001600020600201839080600181540180825580915050600190039060005260206000200160009091909190916101000a81548173ffffffffffffffffffffffffffffffffffffffff021916908373ffffffffffffffffffffffffffffffffffffffff16021790555060018060008673ffffffffffffffffffffffffffffffffffffffff1673ffffffffffffffffffffffffffffffffffffffff16815260200190815260200160002060030160008573ffffffffffffffffffffffffffffffffffffffff1673ffffffffffffffffffffffffffffffffffffffff16815260200190815260200160002060006101000a81548160ff021916908315150217905550600460008573ffffffffffffffffffffffffffffffffffffffff1673ffffffffffffffffffffffffffffffffffffffff16815260200190815260200160002060008473ffffffffffffffffffffffffffffffffffffffff1673ffffffffffffffffffffffffffffffffffffffff16815260200190815260200160002060006101000a81549060ff02191690558273ffffffffffffffffffffffffffffffffffffffff168473ffffffffffffffffffffffffffffffffffffffff167fc67647f0dc29b904529afc5071206426962fab8a22847d1dc5e49de234defe0842604051613c7391906144f5565b60405180910390a38373ffffffffffffffffffffffffffffffffffffffff168373ffffffffffffffffffffffffffffffffffffffff167f3365f8db520261f96abff7e0cf11cf08c78948d7bba32f8e3cef112242f8f24742604051613cd891906144f5565b60405180910390a38273ffffffffffffffffffffffffffffffffffffffff168473ffffffffffffffffffffffffffffffffffffffff167f3365f8db520261f96abff7e0cf11cf08c78948d7bba32f8e3cef112242f8f24742604051613d3d91906144f5565b60405180910390a350505050565b60606003805480602002602001604051908101604052809291908181526020018280548015613dcf57602002820191906000526020600020905b8160009054906101000a900473ffffffffffffffffffffffffffffffffffffffff1673ffffffffffffffffffffffffffffffffffffffff1681526020019060010190808311613d85575b5050505050905090565b613de1613ea8565b600073ffffffffffffffffffffffffffffffffffffffff168173ffffffffffffffffffffffffffffffffffffffff1603613e50576040517f08c379a0000000000000000000000000000000000000000000000000000000008152600401613e4790615017565b60405180910390fd5b613e5981613f26565b50565b613e64613ea8565b80600560006101000a81548173ffffffffffffffffffffffffffffffffffffffff021916908373ffffffffffffffffffffffffffffffffffffffff16021790555050565b613eb0613fea565b73ffffffffffffffffffffffffffffffffffffffff16613ece612da6565b73ffffffffffffffffffffffffffffffffffffffff1614613f24576040517f08c379a0000000000000000000000000000000000000000000000000000000008152600401613f1b90615083565b60405180910390fd5b565b60008060009054906101000a900473ffffffffffffffffffffffffffffffffffffffff169050816000806101000a81548173ffffffffffffffffffffffffffffffffffffffff021916908373ffffffffffffffffffffffffffffffffffffffff1602179055508173ffffffffffffffffffffffffffffffffffffffff168173ffffffffffffffffffffffffffffffffffffffff167f8be0079c531659141344cd1fd0a4f28419497f9722a3daafe3b4186f6b6457e060405160405180910390a35050565b600033905090565b6000604051905090565b600080fd5b600080fd5b600080fd5b600080fd5b6000601f19601f8301169050919050565b7f4e487b7100000000000000000000000000000000000000000000000000000000600052604160045260246000fd5b61405982614010565b810181811067ffffffffffffffff8211171561407857614077614021565b5b80604052505050565b600061408b613ff2565b90506140978282614050565b919050565b600067ffffffffffffffff8211156140b7576140b6614021565b5b6140c082614010565b9050602081019050919050565b82818337600083830152505050565b60006140ef6140ea8461409c565b614081565b90508281526020810184848401111561410b5761410a61400b565b5b6141168482856140cd565b509392505050565b600082601f83011261413357614132614006565b5b81356141438482602086016140dc565b91505092915050565b60006020828403121561416257614161613ffc565b5b600082013567ffffffffffffffff8111156141805761417f614001565b5b61418c8482850161411e565b91505092915050565b600073ffffffffffffffffffffffffffffffffffffffff82169050919050565b60006141c082614195565b9050919050565b6141d0816141b5565b82525050565b60006020820190506141eb60008301846141c7565b92915050565b6141fa816141b5565b811461420557600080fd5b50565b600081359050614217816141f1565b92915050565b60006020828403121561423357614232613ffc565b5b600061424184828501614208565b91505092915050565b60008115159050919050565b61425f8161424a565b82525050565b600060208201905061427a6000830184614256565b92915050565b6000806040838503121561429757614296613ffc565b5b60006142a585828601614208565b925050602083013567ffffffffffffffff8111156142c6576142c5614001565b5b6142d28582860161411e565b9150509250929050565b600080604083850312156142f3576142f2613ffc565b5b600061430185828601614208565b925050602061431285828601614208565b9150509250929050565b600081519050919050565b600082825260208201905092915050565b6000819050602082019050919050565b614351816141b5565b82525050565b60006143638383614348565b60208301905092915050565b6000602082019050919050565b60006143878261431c565b6143918185614327565b935061439c83614338565b8060005b838110156143cd5781516143b48882614357565b97506143bf8361436f565b9250506001810190506143a0565b5085935050505092915050565b600060208201905081810360008301526143f4818461437c565b905092915050565b600081519050919050565b600082825260208201905092915050565b60005b8381101561443657808201518184015260208101905061441b565b60008484015250505050565b600061444d826143fc565b6144578185614407565b9350614467818560208601614418565b61447081614010565b840191505092915050565b6000819050919050565b61448e8161447b565b82525050565b600060a08201905081810360008301526144ae8188614442565b90506144bd60208301876141c7565b6144ca6040830186614256565b81810360608301526144dc818561437c565b90506144eb6080830184614485565b9695505050505050565b600060208201905061450a6000830184614485565b92915050565b6145198161447b565b811461452457600080fd5b50565b60008135905061453681614510565b92915050565b60006020828403121561455257614551613ffc565b5b600061456084828501614527565b91505092915050565b600060808201905081810360008301526145838187614442565b905061459260208301866141c7565b61459f6040830185614256565b6145ac6060830184614485565b95945050505050565b6000819050919050565b60006145da6145d56145d084614195565b6145b5565b614195565b9050919050565b60006145ec826145bf565b9050919050565b60006145fe826145e1565b9050919050565b61460e816145f3565b82525050565b60006020820190506146296000830184614605565b92915050565b7f5573756172696f207961207265676973747261646f0000000000000000000000600082015250565b6000614665601583614407565b91506146708261462f565b602082019050919050565b6000602082019050818103600083015261469481614658565b9050919050565b600081905092915050565b60006146b1826143fc565b6146bb818561469b565b93506146cb818560208601614418565b80840191505092915050565b60006146e382846146a6565b915081905092915050565b7f4e6f6d62726520796120746f6d61646f00000000000000000000000000000000600082015250565b6000614724601083614407565b915061472f826146ee565b602082019050919050565b6000602082019050818103600083015261475381614717565b9050919050565b7f4e6f6d627265206e6f20707565646520657374617220766163696f0000000000600082015250565b6000614790601b83614407565b915061479b8261475a565b602082019050919050565b600060208201905081810360008301526147bf81614783565b9050919050565b7f4e6f6d6272652064656d61736961646f206c6172676f00000000000000000000600082015250565b60006147fc601683614407565b9150614807826147c6565b602082019050919050565b6000602082019050818103600083015261482b816147ef565b9050919050565b7f4e487b7100000000000000000000000000000000000000000000000000000000600052602260045260246000fd5b6000600282049050600182168061487957607f821691505b60208210810361488c5761488b614832565b5b50919050565b60008190508160005260206000209050919050565b60006020601f8301049050919050565b600082821b905092915050565b6000600883026148f47fffffffffffffffffffffffffffffffffffffffffffffffffffffffffffffffff826148b7565b6148fe86836148b7565b95508019841693508086168417925050509392505050565b600061493161492c6149278461447b565b6145b5565b61447b565b9050919050565b6000819050919050565b61494b83614916565b61495f61495782614938565b8484546148c4565b825550505050565b600090565b614974614967565b61497f818484614942565b505050565b5b818110156149a35761499860008261496c565b600181019050614985565b5050565b601f8211156149e8576149b981614892565b6149c2846148a7565b810160208510156149d1578190505b6149e56149dd856148a7565b830182614984565b50505b505050565b600082821c905092915050565b6000614a0b600019846008026149ed565b1980831691505092915050565b6000614a2483836149fa565b9150826002028217905092915050565b614a3d826143fc565b67ffffffffffffffff811115614a5657614a55614021565b5b614a608254614861565b614a6b8282856149a7565b600060209050601f831160018114614a9e5760008415614a8c578287015190505b614a968582614a18565b865550614afe565b601f198416614aac86614892565b60005b82811015614ad457848901518255600182019150602085019450602081019050614aaf565b86831015614af15784890151614aed601f8916826149fa565b8355505b6001600288020188555050505b505050505050565b60006040820190508181036000830152614b208185614442565b9050614b2f6020830184614485565b9392505050565b7f5573756172696f206e6f207265676973747261646f0000000000000000000000600082015250565b6000614b6c601583614407565b9150614b7782614b36565b602082019050919050565b60006020820190508181036000830152614b9b81614b5f565b9050919050565b7f4e6f2070756564657320656e76696172746520736f6c6963697475642061207460008201527f69206d69736d6f00000000000000000000000000000000000000000000000000602082015250565b6000614bfe602783614407565b9150614c0982614ba2565b604082019050919050565b60006020820190508181036000830152614c2d81614bf1565b9050919050565b7f596120657320747520616d69676f000000000000000000000000000000000000600082015250565b6000614c6a600e83614407565b9150614c7582614c34565b602082019050919050565b60006020820190508181036000830152614c9981614c5d565b9050919050565b7f596120656e76696173746520736f6c696369747564206120657374652075737560008201527f6172696f00000000000000000000000000000000000000000000000000000000602082015250565b6000614cfc602483614407565b9150614d0782614ca0565b604082019050919050565b60006020820190508181036000830152614d2b81614cef565b9050919050565b7f4e6f20657320747520616d69676f000000000000000000000000000000000000600082015250565b6000614d68600e83614407565b9150614d7382614d32565b602082019050919050565b60006020820190508181036000830152614d9781614d5b565b9050919050565b7f4e487b7100000000000000000000000000000000000000000000000000000000600052603260045260246000fd5b7f4e487b7100000000000000000000000000000000000000000000000000000000600052601160045260246000fd5b6000614e078261447b565b9150614e128361447b565b9250828203905081811115614e2a57614e29614dcd565b5b92915050565b7f4e487b7100000000000000000000000000000000000000000000000000000000600052603160045260246000fd5b7f466f72657374546f6b656e206e6f20636f6e666967757261646f000000000000600082015250565b6000614e95601a83614407565b9150614ea082614e5f565b602082019050919050565b60006020820190508181036000830152614ec481614e88565b9050919050565b6000604082019050614ee060008301856141c7565b614eed6020830184614485565b9392505050565b60006060820190508181036000830152614f0e8186614442565b90508181036020830152614f228185614442565b9050614f316040830184614485565b949350505050565b7f4e6f2068617920736f6c6963697475642064652065737465207573756172696f600082015250565b6000614f6f602083614407565b9150614f7a82614f39565b602082019050919050565b60006020820190508181036000830152614f9e81614f62565b9050919050565b7f4f776e61626c653a206e6577206f776e657220697320746865207a65726f206160008201527f6464726573730000000000000000000000000000000000000000000000000000602082015250565b6000615001602683614407565b915061500c82614fa5565b604082019050919050565b6000602082019050818103600083015261503081614ff4565b9050919050565b7f4f776e61626c653a2063616c6c6572206973206e6f7420746865206f776e6572600082015250565b600061506d602083614407565b915061507882615037565b602082019050919050565b6000602082019050818103600083015261509c81615060565b905091905056fea2646970667358221220dc3595b8c42583fe38eac8ffcc1644139891b2bf444487fcd25685b78eebe03864736f6c634300081c0033",
  "linkReferences": {},
  "deployedLinkReferences": {}
}